:020000040000FA
:10000000025052024F297F04025D4D0254838E2913
:100010008F2AEFF58AE529F58C22220254FF34FF5E
:10002000FCE0FAA3E0FBE4FFFE90030CECF0A3ED90
:10003000F0A3EAF0A3EBF090030AEEF0A3EFF012C6
:1000400046F0C390030FE09F90030EE09E4018908F
:10005000030CE0FEA3E0FF1246F0D390030FE09FF5
:1000600090030EE09E40030200F590030CE0FEA317
:10007000E0FF90030AE0FCA3E0FDD39FEE6480F86C
:10008000EC648098506FED2FFFEC3EFE7C007D020B
:100090001215EC900310EEF0A3EFF01246F0C390AF
:1000A000030FE09F90030EE09E5012900311E02496
:1000B000FFFE900310E034FF90030C8028900310A3
:1000C000E0FEA3E0FF1246F0D390030FE09F900301
:1000D0000EE09E4017900311E02401FE900310E013
:1000E000340090030AF0A3CEF002006A900310E0FF
:0F00F000FEA3E0FF22E4FEFF22126257025C969D
:100127000000E49002D2F0A3F0A3F0A3F0A3F07BC9
:10013700017A0279D51264BD9002D2EFF060149073
:1001470002D5E0FF1250DE9002D6E004F0E0C3943F
:100157000C40DC300314C2039002CB740DF0E4A30F
:10016700F07B017A0279CB12589D300414C20490B7
:1001770002CB740DF0A37401F0FB7A0279CB12580D
:100187009D300515C2059002CB740DF0A37402F0E3
:100197007B017A0279CB12589D12E5839000A4E087
:1001A700FF900087E0B507106402703D9000A5E05E
:1001B700FF900089E06F60319002CB7411F09000DE
:1001C70087E0FF9000A4F0900089E0FE9000A5F082
:1001D7009002CCEFF0900088E09002CDF0A3EEF013
:1001E7007B017A0279CB12589D22E490F0A8F0FFA8
:1001F70090F0A8EFF0A3E0FF228036805E02028C29
:100207000202B60202E102030C0203370203620292
:10021700038D0203B80203E302040E020439020449
:100227006402048F0204BAC01D7402C0E0C082C019
:1002370083C2AF751D00E510640060127510009051
:10024700F3AA7440F0E4A3F090F1FD7481F0D2AF0B
:1002570022C01D7402C0E0C082C083C2AF751D02F8
:10026700E5106401601275100190F3AA7480F0E440
:10027700A3F090F1FD7481F0D2AF22C01D7402C0CB
:10028700E0C082C083C2AF751D04E510640260122E
:1002970075100290F3AA74C0F0E4A3F090F1FD7416
:1002A70081F0D2AF22C01D7402C0E0C082C083C2F9
:1002B700AF751D07E5106403601375100390F3AA6B
:1002C7007400F07401A3F090F1FD7481F0D2AF22B5
:1002D700C01D7402C0E0C082C083C2AF751D0AE5AD
:1002E700106404601375100490F3AA7440F074014D
:1002F700A3F090F1FD7481F0D2AF22C01D7402C04B
:10030700E0C082C083C2AF751D0DE51064056013A0
:1003170075100590F3AA7480F07401A3F090F1FDB5
:100327007481F0D2AF22C01D7402C0E0C082C083C6
:10033700C2AF751D10E5106406601375100690F3C3
:10034700AA74C0F07401A3F090F1FD7481F0D2AFEC
:1003570022C01D7402C0E0C082C083C2AF751D13E6
:10036700E5106407601375100790F3AA7400F07422
:1003770002A3F090F1FD7481F0D2AF22C01D740288
:10038700C0E0C082C083C2AF751D16E51064086067
:100397001375100890F3AA7440F07402A3F090F15B
:1003A700FD7481F0D2AF22C01D7402C0E0C082C0CC
:1003B70083C2AF751D19E5106409601375100990A4
:1003C700F3AA7480F07402A3F090F1FD7481F0D267
:1003D700AF22C01D7402C0E0C082C083C2AF751DCA
:1003E7001CE510640A601375100A90F3AA74C0F034
:1003F7007402A3F090F1FD7481F0D2AF22C01D7496
:1004070002C0E0C082C083C2AF751D1FE510640B38
:10041700601375100B90F3AA7400F07403A3F090A7
:10042700F1FD7481F0D2AF22C01D7402C0E0C0821A
:10043700C083C2AF751D22E510640C601375100CE4
:1004470090F3AA7440F07403A3F090F1FD7481F067
:10045700D2AF22C01D7402C0E0C082C083C2AF7594
:100467001D25E510640D601375100D90F3AA7480B7
:10047700F07403A3F090F1FD7481F0D2AF22C01D98
:100487007402C0E0C082C083C2AF751D28E5106446
:100497000E601375100E90F3AA74C0F07403A3F0E6
:1004A70090F1FD7481F0D2AF22C01D7402C0E0C08C
:1004B70082C083C2AF751D2BE510640F60137510E2
:1004C7000F90F3AA7400F07404A3F090F1FD748107
:1004D700F0D2AF2290CD1C41D790E34041D790DFB7
:1004E700DD41D790E4BB41D790E6C241D790C6A47F
:1004F70041D790E19341D790E88141D790E5CB412F
:10050700D790DAA841D790DD3C41D790E7AA41D7E9
:1005170090D7E041D790D33A41D790D6F741AC90E6
:10052700C67441AC90D70241AC90C649418290C293
:1005370054418290C44F418290CE4A418290D05418
:10054700418290CFCB418290D06D418290D086413D
:100557008290D015418290CFEC418290D09F41820A
:1005670090D0BD418290D0CB418290D0AE41829055
:10057700CA33418290C842418290CF14418290CFC2
:1005870050418290D036418290C000610290DEB423
:10059700610290D76F610290E6C9610290E2ED6156
:1005A7000290E1AC610290DCFD610290D95C6102CE
:1005B70090C75F610290E03A610290D5476102906F
:1005C700E732610290E627610290D02F610290E73F
:1005D70033610290D2C1610290CCE3610290DB45A6
:1005E700610290E734610290E42B610290CFD4411D
:1005F7005890D948415890CB86415890D28F41584E
:1006070090CE74415890CD06415890C00041589003
:10061700D0A8415890D5A6415890D5F4415890D3C9
:100627000C415890D37B415890D63B415890D68285
:10063700415890D6C9415890D710415890D7574143
:100647005890D79E415890D7E5415890D3EA4158E2
:1006570090D82C415890D459415890D4C8415890BB
:10066700D205415890D873415890D179415890D8C4
:10067700BA415890D537415890D901415800900355
:100687002DEBF0A3EAF0A3E9F09003847401F0A343
:100697007403F0A37430F0E4900366F090032DE048
:1006A700F9A3E0FAA3E0900358C9F0A3EAF0A3E99D
:1006B700F0900358E0FBA3E0FAA3E0F912150BFF53
:1006C70070030211A664256003021190E49003678A
:1006D700F090036BF0900369F090036FF090036C58
:1006E70074FFF0E4900370F0A374FFF0A37465F057
:1006F700A3746BF0900358E0FBA3E475F0011216A6
:1007070022A9F0FA12150B1219ED11A600077B208A
:10071700078A2307942A07C62B07BC2D07CF2E0865
:100727006230086C31086C32086C33086C34086C22
:1007370035086C36086C37086C38086C390926445C
:100747000A874F0BF9550C855808D56208DF6309EE
:100757002D640A336608C168092D6908CB6C09DF67
:100767006E0A8E6F0B13700B4A730C00750C93781F
:1007770000001181900370E060030206FB7420F013
:100787000206FB90036BE04408F00206FB9003842B
:10079700E0FBA3E475F002121638A9F0FA12164E20
:1007A70090036FF0C36480948040030206FB9003BC
:1007B7006FE0F404F090036BE04410F00206FB9046
:1007C7000370742BF00206FB900358E0FBA3E4755B
:1007D700F001121622A9F0FA12150BB42A19900388
:1007E70084E0FBA3E475F002121638A9F0FA12169A
:1007F7004E900367F0804AE4900367F0900358E057
:10080700FBA3E0FAA3E0F912150BFFC3948050276E
:100817001268EF5022900358E0FBA3E475F0011231
:100827001638A9F0FA12150B24D0FF900367E0756C
:10083700F00AA42FF080C590035974FFF5F0121643
:1008470022900367E0FFC36480948050067EFF7F99
:10085700FF800090036CEFF00206FB90036BE0440F
:1008670020F00206FBE4900367F0900358E0FBA337
:10087700E0FAA3E0F912150BFFC394805027126822
:10088700EF5022900358E0FBA3E475F001121638ED
:10089700A9F0FA12150B24D0FF900367E075F00A50
:1008A700A42FF080C590035974FFF5F0121622901B
:1008B7000367E090036FF00206FB90036BE04404CC
:1008C700F00206FB90036BE04401F00206FB900385
:1008D7006BE04480F00206FB900384E0FBA3E47521
:1008E700F002121638A9F0FA12164EFF7B017A03AE
:1008F700797490035BEBF0A3EAF0A3E9F0EF12152C
:100907005112150B701090035BE0FBA3E0FAA3E014
:10091700F9742012155190036E7401F0020BF190D7
:10092700036BE04401F090036BE030E01590038423
:10093700E0FBA3E475F004121638A9F0FA1218FACE
:10094700805F90036BE0FF30E21A900384E0FBA323
:10095700E475F002121638A9F0FA12164EACF0AE92
:1009670004FF8037EF5480FF3395E04F9003846096
:1009770017E0FBA3E475F001121638A9F0FA121577
:100987000BFF3395E0FE8013E0FBA3E475F0021242
:100997001638A9F0FA12164EFFAEF0EE3395E0FDC9
:1009A700FC900362121954900362E0FCA3E0FDA3DC
:1009B700E0FEA3E0FFEC335016900362A3A3A3E08D
:1009C70012189F900362121954900370742DF090BF
:1009D7000368740AF0020D4190036BE030E0249045
:1009E7000366E0FF3395E0FEFDFC900384E0FBA384
:1009F700E475F003121638A9F0FA12199D12191AA4
:100A070002119990036BE0900366E0FF3395E0FED7
:100A1700900384E0FBA3E475F003121638A9F0FAFB
:100A270012199DEE8FF0121736021199900384E088
:100A3700FBA3E475F004121638A9F0FA1218FA901D
:100A4700035E121954E4FFFEFDFC90035EE0F8A379
:100A5700E0F9A3E0FAA3E0FB1212B64003020E4747
:100A670090035EE0FCA3E0FDA3E0FEA3E0FF12130A
:100A77002390035E121954900370742DF0020E47F1
:100A870090036BE04401F090036BE030E0159003B6
:100A970084E0FBA3E475F004121638A9F0FA1218E3
:100AA700FA805A90036BE0FF30E21A900384E0FB70
:100AB700A3E475F002121638A9F0FA12164EACF03C
:100AC700AE04FF8035EF5480FF3395E04F900384E9
:100AD7006015E0FBA3E475F001121638A9F0FA12CD
:100AE700150BFF7E008013E0FBA3E475F0021216DE
:100AF70038A9F0FA12164EFFAEF0E4FCFD9003623F
:100B07001219549003687408F0020D3C900384E0B6
:100B1700FBA3E475F003121638A9F0FA12199DAF7A
:100B270001AE02AD037C0090036212195490036F6B
:100B37007408F09003687410F090036BE04460F061
:100B4700020D3C900384E0FBA3E475F00312163812
:100B5700A9F0FA12199D90035BEBF0A3EAF0A3E961
:100B6700F04A4B700E90035B74FFF0A37465F0A31B
:100B7700747CF090036CE0FFC3648094804058EF6E
:100B87003395E0FE7D0090035BE0FBA3E0FAA3E072
:100B9700F9121A4D900387EBF0A3EAF0A3E9F04AA4
:100BA7004B602A90035BA3A3E0FF900387A3A3E016
:100BB700C39FFF90036EF090036CE0FED36480F850
:100BC700EF648098402490036EEEF0801D90036CD4
:100BD700E090036EF0801390035BE0FBA3E0FAA3C1
:100BE700E0F912684790036EEFF0E4900370F002AB
:100BF7000FF590036BE04401F090036BE030E015D4
:100C0700900384E0FBA3E475F004121638A9F0FA08
:100C17001218FA805A90036BE0FF30E21A900384AF
:100C2700E0FBA3E475F002121638A9F0FA12164E8B
:100C3700ACF0AE04FF8035EF5480FF3395E04F9062
:100C470003846015E0FBA3E475F001121638A9F0E0
:100C5700FA12150BFF7E008013E0FBA3E475F00288
:100C6700121638A9F0FA12164EFFAEF0E4FCFD900A
:100C77000362121954900368740AF0020D3C900342
:100C87007174FFF0A37465F0A37483F090036BE0B5
:100C970030E015900384E0FBA3E475F004121638E6
:100CA700A9F0FA1218FA805A90036BE0FF30E21AA3
:100CB700900384E0FBA3E475F002121638A9F0FA5A
:100CC70012164EACF0AE04FF8035EF5480FF33951B
:100CD700E04F9003846015E0FBA3E475F001121662
:100CE70038A9F0FA12150BFF7E008013E0FBA3E48E
:100CF70075F002121638A9F0FA12164EFFAEF0E49C
:100D0700FCFD9003621219549003687410F090036D
:100D17006BE030E320E4FFFEFDFC900362E0F8A304
:100D2700E0F9A3E0FAA3E0FBC31218C3600790033E
:100D37006BE04440F0E4900370F090036CE09003A4
:100D470069F0C364809480400790036BE054DFF040
:100D570090035B7401F0A37403F0A37484F0E4FFC1
:100D6700FEFDFC900362E0F8A3E0F9A3E0FAA3E03C
:100D7700FBC31218C3700990036CE07003020FE6FF
:100D8700900368E0FB3395E0FAF9F8900362E0FC22
:100D9700A3E0FDA3E0FEA3E0FF12180DAE02AF0330
:100DA700900371E0FBA3E0FAA3E0F98F828E831230
:100DB7001524FF90035BE0FBA374FFF5F0121622E6
:100DC700A9F0FAEF121551900362E0FCA3E0FDA32E
:100DD700E0FEA3E0FFC007900368E0FB3395E0FA6D
:100DE700F9F8D00712180D90036212195490036294
:100DF700E0FCA3E0FDA3E0FEA3E0FFEC4D4E4F6057
:100E070003020D8790036BE020E303020FE69003D4
:100E170068E0B4082890035BE0FBA3E0FAA3E0F9DD
:100E270012150B64307003020FE690035BA374FF87
:100E3700F5F0121622A9F0FA7430121551020FE6D6
:100E470090035B7401F0A37403F0A37484F0E4FFD0
:100E5700FE7D7A7C44A3E0F8A3E0F9A3E0FAA3E0DF
:100E6700FB1211B0121372E47BE87A03F9F8121837
:100E77000DAC00AD01AE02AF03900362121954E44A
:100E87007B0AFAF9F8900362E0FCA3E0FDA3E0FE19
:100E9700A3E0FF12180DAC00AD01AE02AF03E47B77
:100EA70005FAF9F8C31218C35010E47F01FEFDFCE0
:100EB700C004C005C006C007800DE4FBFAF9F8C0FE
:100EC70000C001C002C003E47B0AFAF9F89003628C
:100ED700E0FCA3E0FDA3E0FEA3E0FF12180DD003A2
:100EE700D002D001D000EF2BFFEE3AFEED39FDEC3A
:100EF70038FC900362121954E4900367F0E47B0A0C
:100F0700FAF9F8900362E0FCA3E0FDA3E0FEA3E09A
:100F1700FF12180DEB2430FF90035BE0FBA374FF77
:100F2700F5F0121622A9F0FAEF121551900362E0BC
:100F3700FCA3E0FDA3E0FEA3E0FFE47B0AFAF9F8D7
:100F470012180D900362121954900367E004F0E041
:100F5700B402AA90035BE0FBA374FFF5F01216221C
:100F6700A9F0FA742E12155190035EE0FCA3E0FD80
:100F7700A3E0FEA3E0FF121372900362121954E478
:100F87007B0AFAF9F8900362E0FCA3E0FDA3E0FE18
:100F9700A3E0FF12180DEB2430FF90035BE0FBA3E7
:100FA70074FFF5F0121622A9F0FAEF12155190030B
:100FB70062E0FCA3E0FDA3E0FEA3E0FFE47B0AFA06
:100FC700F9F812180D900362121954900362E0FCAD
:100FD700A3E0FDA3E0FEA3E0FFEC4D4E4F70A09011
:100FE700035BA3A3E0FFC374849F90036EF0900399
:100FF7006EE0FF90036AF0900369E0FED3EF648030
:10100700F8EE6480984004AF06800590036AE0FF1D
:1010170090036DEFF0900370E0600690036DE004BD
:10102700F090036BE0FF30E60790036DE02402F0D9
:10103700EF5430703090036FE0602A90036DE090BA
:101047000367F090036FE0FF900367E0FEC3EF6470
:1010570080F8EE648098500D7F201268DF90036758
:10106700E004F080DE900370E0FF60031268DF9019
:10107700036BE030E60A7F301268DF7F781268DFA3
:1010870090036BE05430FFBF202A90036DE090037C
:1010970067F090036FE0FF900367E0FEC3EF6480A3
:1010A700F8EE648098500D7F301268DF900367E098
:1010B70004F080DE90036AE0900367F0900369E034
:1010C700FF900367E0FEC3EF6480F8EE64809850FA
:1010D7000D7F301268DF900367E004F080DEE49054
:1010E7000387F0A3F090036EE0FF3395E0FE9003D3
:1010F70087E0FCA3E0FDC39FEE6480F8EC64809872
:10110700502690035BE0FBA3E0FAA3E0F98D828C05
:1011170083121524FF1268DF900388E004F070C57E
:10112700900387E004F080BD90036BE030E42A90E1
:10113700036DE0900367F090036FE0FF900367E0B3
:10114700FEC3EF6480F8EE648098500D7F2012682C
:10115700DF900367E004F080DE90036DE0FF90030B
:101167006FE0FED3EF6480F8EE6480984004AF062A
:101177008000900366E02FF08018900358E0FBA3EF
:10118700E0FAA3E0F912150BFF1268DF900366E09F
:1011970004F0900359E475F0011216220206B89084
:1011A7000366E0FF3395E0FE22EC4D6011E84970DD
:1011B70017ED33EC3304600DE4FCFFFEFD22E93349
:1011C700E8330470F80213DE1213A958046009E427
:1011D700CC248150062850090213E8284003021343
:1011E700E5C0E0EB4A7044B98006D0E0FB0213D4B7
:1011F700EF4E701CBD8008EBFFEAFEE9FD80EBE9CE
:101207008DF0A4FEE5F0021299E9CDF9EAFEEBFFB5
:10121700EF89F0A4FCE5F0CE89F0A42EFFE435F0C9
:10122700CD89F0A42DFEE435F08067EF4E7005BD43
:1012370080D780C3EF8BF0A4ACF0EE8BF0A42CFC2E
:10124700E435F0F8EF8AF0A42CE5F038FCE433CB72
:101257008DF0A42CFCE5F03BF8EE8AF0A42CFCE51D
:10126700F038F8E433CF89F0A42CFCE5F038CF341C
:1012770000CE89F0A42FFFE5F03EFEE433C98DF0E0
:10128700A42EFEE5F039CD8AF0A42FFFE5F03EFE4F
:10129700E43DFD33D0E0FB50070BBB000F0213E822
:1012A700EC2CFCEF33FFEE33FEED33FD0213C0747D
:1012B700F8CC6480CCC86480C8F582046043C3EB73
:1012C7009FF5F0EA9E42F0E99D42F0E89C45F06008
:1012D700305018E5825FFFE582F42B5582FB5021E1
:1012E7000ABA001D09B90019088016E5825BFBE5FB
:1012F70082F42F5582FF50090EBE00050DBD000177
:101307000CC3EB9FF5F0EA9E42F0E99D42F0E89CA2
:1013170045F06007CC4820E701B3EC22ED33EC330E
:10132700600A047003BD8004ECB2E7FC2275F0206C
:10133700800E75F010800575F0087D007E007F0037
:101347003392D530D50312189FEC334010EF33FF9B
:10135700EE33FEED33FDEC33FCD5F0ED22E5F02462
:101367007EA2D513CC92E7CDCEFF22EDD2E7CD33C7
:10137700EC3392D524814006E4FFFEFDFC22FCE419
:10138700CFCECDCC24E0501174FF80EDC3CC13CC6D
:10139700CD13CDCE13CECF13CF0470F030D5DE02F0
:1013A700189FE9D2E7C933E833F892D5EDD2E7CDF4
:1013B70033EC33FC5002B2D522EC30E7100FBF00FC
:1013C7000C0EBE00080DBD00040BEB6014A2D5EB9C
:1013D70013FCED92E7FD2274FFFCFDFEFF22E48083
:1013E700F8A2D574FF13FC7D80E480EFE709F608C7
:1013F700DFFA8046E709F208DFFA803E88828C83AD
:10140700E709F0A3DFFA8032E309F608DFFA80780C
:10141700E309F208DFFA807088828C83E309F0A37E
:10142700DFFA806489828A83E0A3F608DFFA8058AE
:1014370089828A83E0A3F208DFFA804C80D280FA9F
:1014470080C680D4806980F28033801080A680EACD
:10145700809A80A880DA80E280CA803389828A8372
:10146700ECFAE493A3C8C582C8CCC583CCF0A3C863
:10147700C582C8CCC583CCDFE9DEE7800D89828AC7
:1014870083E493A3F608DFF9ECFAA9F0EDFB2289D0
:10149700828A83ECFAE0A3C8C582C8CCC583CCF0A6
:1014A700A3C8C582C8CCC583CCDFEADEE880DB8968
:1014B700828A83E493A3F208DFF980CC88F0EF6097
:1014C700010E4E60C388F0ED2402B4040050B9F554
:1014D70082EB2402B4040050AF23234582239014E7
:1014E7004373C2D530F707B2D563F0FF05F030E795
:1014F7000CB2D5F4048463F0FF05F080018430D585
:1015070002F40422BB010689828A83E0225002E7A3
:1015170022BBFE02E32289828A83E49322BB010C69
:10152700E58229F582E5833AF583E0225006E9252D
:1015370082F8E622BBFE06E92582F8E222E5822947
:10154700F582E5833AF583E49322BB010689828A13
:1015570083F0225002F722BBFE01F322F8BB010DF4
:10156700E58229F582E5833AF583E8F0225006E91A
:101577002582C8F622BBFE05E92582C8F222EF8D37
:10158700F0A4A8F0CF8CF0A428CE8DF0A42EFE22D4
:10159700BC000BBE0029EF8DF084FFADF022E4CC38
:1015A700F875F008EF2FFFEE33FEEC33FCEE9DEC01
:1015B700984005FCEE9DFE0FD5F0E9E4CEFD22ED47
:1015C700F8F5F0EE8420D21CFEADF075F008EF2F91
:1015D700FFED33FD4007985006D5F0F222C398FD82
:1015E7000FD5F0EA22C2D5EC30E709B2D5E4C39DA6
:1015F700FDE49CFCEE30E715B2D5E4C39FFFE49E03
:10160700FE121597C3E49DFDE49CFC800312159719
:1016170030D507C3E49FFFE49EFE22C5F0F8A3E0A0
:1016270028F0C5F0F8E582158270021583E038F0DE
:1016370022A3F8E0C5F025F0F0E5821582700215C7
:1016470083E0C838F0E822BB010A89828A83E0F583
:10165700F0A3E022500687F009E71922BBFE07E353
:10166700F5F009E3192289828A83E493F5F074017E
:101677009322BB0110E58229F582E5833AF583E0E1
:10168700F5F0A3E0225009E92582F886F008E62262
:10169700BBFE0AE92582F8E2F5F008E222E5832A93
:1016A700F583E993F5F0A3E99322BB010789828AC1
:1016B70083021622500B09C5F027F7C5F01937F733
:1016C70022BBFE0D09F8E325F0F3C5F019E338F363
:1016D70022F889828A8374019325F0C5F0F8E49390
:1016E7003822BB010DC58229C582C5833AC583024D
:1016F70016225011C58229F808E5F026F618F5F0EC
:10170700E58236F622BBFE11C58229F808E225F0EC
:10171700F5F0F218E23582F222F8E58229F582E542
:10172700832AF58374019325F0F5F0E4933822BBFF
:10173700010A89828A83F0E5F0A3F0225006F709AF
:10174700A7F01922BBFE06F3E5F009F31922F8BB4F
:101757000111E58229F582E5833AF583E8F0E5F0A2
:10176700A3F0225009E92582C8F608A6F022BBFE9D
:1017770009E92582C8F2E5F008F222E88FF0A4CC47
:101787008BF0A42CFCE98EF0A42CFC8AF0EDA42CA1
:10179700FCEA8EF0A4CDA8F08BF0A42DCC3825F070
:1017A700FDE98FF0A42CCD35F0FCEB8EF0A4FEA95B
:1017B700F0EB8FF0A4CFC5F02ECD39FEE43CFCEA68
:1017C700A42DCE35F0FDE43CFC2275F008758200AF
:1017D700EF2FFFEE33FECD33CDCC33CCC58233C5EF
:1017E700829BED9AEC99E58298400CF582EE9BFE80
:1017F700ED9AFDEC99FC0FD5F0D6E4CEFBE4CDFADB
:10180700E4CCF9A88222B800C1B90059BA002DEC7E
:101817008BF084CFCECDFCE5F0CBF97818EF2FFF16
:10182700EE33FEED33FDEC33FCEB33FB10D70399BE
:101837004004EB99FB0FD8E5E4F9FA227818EF2F6B
:10184700FFEE33FEED33FDEC33FCC933C910D7058A
:101857009BE99A4007EC9BFCE99AF90FD8E0E4C9A9
:10186700FAE4CCFB2275F010EF2FFFEE33FEED33D9
:10187700FDCC33CCC833C810D7079BEC9AE8994006
:101887000AED9BFDEC9AFCE899F80FD5F0DAE4CD68
:10189700FBE4CCFAE4C8F922C3E49FFFE49EFEE42C
:1018A7009DFDE49CFC22EB9FF5F0EA9E42F0E99D4A
:1018B70042F0EC6480C864809845F022EB9FF5F015
:1018C700EA9E42F0E99D42F0E89C45F022E8600F6D
:1018D700ECC313FCED13FDEE13FEEF13FFD8F1225B
:1018E700E8600FEFC333FFEE33FEED33FDEC33FC5F
:1018F700D8F122BB010789828A83021AA15005E920
:10190700F8021A95BBFE05E9F8021AAD89828A83A7
:10191700021934BB010789828A830219545005E9E9
:10192700F8021AB9BBFE05E9F8021AC522E493FCCE
:10193700740193FD740293FE740393FF22E493F8FA
:10194700740193F9740293FA740393FB22ECF0A3E6
:10195700EDF0A3EEF0A3EFF022A8828583F0D08309
:10196700D082121977121977121977121977E4733F
:10197700E493A3C583C5F0C583C8C582C8F0A3C5D2
:1019870083C5F0C583C8C582C822A42582F582E530
:10199700F03583F58322BB010789828A83021ADA2D
:1019A7005005E9F8021AD1BBFE05E9F8021AE389E6
:1019B700828A83021AECBB010DE58229F582E58351
:1019C7003AF583021ADA5007E92582F8021AD1BBE1
:1019D700FE07E92582F8021AE3E58229F582E58305
:1019E7003AF583021AECD083D082F8E4937012742C
:1019F7000193700DA3A393F8740193F5828883E490
:101A0700737402936860EFA3A3A380DFD083D082AF
:101A1700E4937012740193700DA3A393F874019368
:101A2700F5828883E4737402936C70127403936D68
:101A3700700C7404936E70067405936F60DDA3A336
:101A4700A3A3A3A380CAEF60010E4E6015BB0117C5
:101A570089828A83E06D7005AA83A98222A3DFF4B5
:101A6700DEF2E4F9FAFB225009E76D60F909DFF9C4
:101A770080F0BBFE09E36D60ED09DF0280E4898237
:101A87008A83E4936D60D1A3DFF8DEF680D4E6FCA9
:101A970008E6FD08E6FE08E6FF22E0FCA3E0FDA35A
:101AA700E0FEA3E0FF22E2FC08E2FD08E2FE08E216
:101AB700FF22ECF608EDF608EEF608EFF622ECF258
:101AC70008EDF208EEF208EFF222E6FB08E6FA0864
:101AD700E6F922E0FBA3E0FAA3E0F922E2FB08E241
:101AE700FA08E2F922E493FB740193FA740293F97A
:101AF7002225733A256420002E2E5C74775F6C696B
:101B0700625C647269766572735C72632E6300202F
:101B17007265736F7572636520706F696E74203DAF
:101B2700202570200D0A00207265736F757263653A
:101B3700206D61676963203D203078256C58200D42
:101B47000A00206E656C656D656E7473203D2025F7
:101B570075200D0A00207265736F757263652065C5
:101B67006E64206D61676963203D203078256C586D
:101B7700200D0A001B5B33316D25733A2564205B0A
:101B87004552524F525D1B5B306D2000696E766186
:101B97006C696420726320696E6974210D0A0044C0
:101BA7004D412032205852414D204641494C452154
:101BB7000D0A004E4F204944210D0A005265736FEC
:101BC70075726365202575206E6F742069732054C4
:101BD7005950455F494D4720283120213D20256236
:101BE7007529210A005265736F7572636520257523
:101BF700206E6F7420697320545950455F535052BB
:101C070049544520283220213D2025627529210A83
:101C1700005265736F75726365202575206E6F744A
:101C270020697320545950455F454D55202833206E
:101C3700213D2025627529210A005265736F75724F
:101C47006365202575206E6F742069732054595081
:101C5700455F4D454E5520283420213D202562758E
:101C670029210A005265736F7572636520257520F7
:101C77006E6F7420697320545950455F54494C4521
:101C870020283520213D2025627529210A0052652B
:101C9700736F75726365202575206E6F7420697385
:101CA70020545950455F4C555420283620213D205B
:101CB70025627529210A005265736F757263652065
:101CC7002575206E6F7420697320545950455F4FF6
:101CD70052454720283720213D2025627529210AB2
:101CE700005265736F75726365202575206E6F747A
:101CF700206973205245535F49434F4E5F545F53EA
:101D0700495A4520283820213D2025627529210A76
:101D1700005265736F75726365202575206E6F7449
:101D270020697320545950455F5444202839202195
:101D37003D2025627529210A005265736F7572630C
:101D470065202575206973206E6F7420545950459E
:101D57005F544F464F4E5420283820213D2025629E
:101D67007529210A005265736F75726365202575A1
:101D7700206E6F7420697320545950455F43485F44
:101D870049434F4E2028313120213D2025627529B6
:101D9700210A0072635F69642020203A2025750AB2
:101DA7000072635F747970652020203A2025640AE9
:101DB7000072635F6C656E202020203A20256C64DA
:101DC7002062797465730A00696E76616C696420B4
:101DD7006E756D626572206F6620656C656D656EE8
:101DE7007473210D0A00696E76616C6964206D61F8
:101DF700676963210D0A00696E76616C69642070FA
:101E070061636B20737472756374210D0A00696EC8
:101E170076616C696420656C656D656E742073749A
:101E270072756374210D0A00696E76616C696420AE
:101E3700646D612032207872616D210D0A00726332
:101E470020696E69742073756363657373210D0A66
:101E5700006E756D626572206F6620656C656D65D5
:101E67006E7473206973202564200D0A006E6F203D
:101E77007265736F7572636520656C656D656E74E9
:101E870073210D0A0025733A256420002E2E5C74F9
:101E9700775F6C69625C7379735C74775F77696489
:101EA7006765745F7379732E6300783D5B25755D95
:101EB70020793D5B25755D20773D5B25755D206845
:101EC7003D5B25755D210A00696E20726567696F44
:101ED7006E210A004355525F49434F4E5345545FA5
:101EE7004E554D3D20256275210A0D0053757070C2
:101EF7006F7274203142502F524F4D20466F6E74CF
:101F07002076657273696F6E210A001B5B33316D32
:101F170025733A2564205B4552524F525D1B5B3057
:101F27006D200063616E27742066696E64206368A4
:101F370061676561626C65206F662069636F6E20FB
:101F47006964210A0074686973206D656E75206E77
:101F57006F742068617320636861676561626C658F
:101F6700206675636E74696F6E210A00537072691B
:101F7700746520636F756E74206973206F75747252
:101F8700616E6765210A0047726F75702049434F7C
:101F97004E202B204368616E676561626C65210A7C
:101FA7000D0067726F75702069636F6E206F662012
:101FB70049442074797065206973206572726F7265
:101FC700210A0D004661696C20546F204765742013
:101FD700474220537472696E67204C656E67746858
:101FE700210A004661696C20546F204765742047B9
:101FF7004220537472696E67204F66667365742159
:102007000A004661696C20546F2047657420474277
:1020170020436F6465210A006E6F206163746976DF
:10202700652070616765210A0043616E2774206C23
:1020370065667420736C696465210A0043616E27C5
:102047007420555020736C696465210A0043616EE2
:10205700277420646F776E20736C696465210A00AA
:1020670074775F74645F6472617720696D67494450
:102077003D202575210A0043616E2774206A756D1E
:1020870070210A00693D202562752C206A3D2025B4
:102097006275210A0047726F7570204F7574205260
:1020A700616E6765210A0047726F75705B256275FF
:1020B7005D3A204974656D204F75742052616E67D3
:1020C70065210A001B5B33326D25733A2564205B5B
:1020D700494E464F5D1B5B306D200063616E277470
:1020E700204820736C6964652C2063757272656E75
:1020F70074206973205620736C696465210A006334
:10210700616E2774205620736C6964652C20637593
:102117007272656E74206973204820736C696465F8
:10212700210A00000200020002000300040001006F
:10213700010001000200020002000200010001008C
:10214700010002000200019002CBEBF0A3EAF0A32A
:10215700E9F0E4FEEF14B41E0040030223ED9021E2
:102167007375F003A4C58325F0C583730221CD02DF
:1021770023B70221E00221F30222060222190222DA
:102187002C0223ED0223C90223A50223DB02223FEF
:1021970002225202226502227802228B02229E022A
:1021A70022B10222C40222D70222EA0222FD02231E
:1021B7001002232302233602234902235C02236FE2
:1021C7000223810223939002CBE0FBA3E0FAA3E072
:1021D700F912061BAE070223EF9002CBE0FBA3E048
:1021E700FAA3E0F9120602AE070223EF9002CBE052
:1021F700FBA3E0FAA3E0F9120607AE070223EF906C
:1022070002CBE0FBA3E0FAA3E0F912060CAE07024B
:1022170023EF9002CBE0FBA3E0FAA3E0F91205F36A
:10222700AE070223EF9002CBE0FBA3E0FAA3E0F9AD
:10223700120616AE070223EF9002CBE0FBA3E0FAEB
:10224700A3E0F9120620AE070223EF9002CBE0FBD2
:10225700A3E0FAA3E0F9120625AE070223EF9002E6
:10226700CBE0FBA3E0FAA3E0F912062AAE070223AC
:10227700EF9002CBE0FBA3E0FAA3E0F912062FAE42
:10228700070223EF9002CBE0FBA3E0FAA3E0F912E9
:102297000634AE070223EF9002CBE0FBA3E0FAA3DC
:1022A700E0F9120639AE070223EF9002CBE0FBA359
:1022B700E0FAA3E0F912063EAE070223EF9002CB45
:1022C700E0FBA3E0FAA3E0F9120643AE070223EF0F
:1022D7009002CBE0FBA3E0FAA3E0F9120648AE07B1
:1022E7000223EF9002CBE0FBA3E0FAA3E0F912068A
:1022F7004DAE070223EF9002CBE0FBA3E0FAA3E089
:10230700F9120652AE070223EF9002CBE0FBA3E0DF
:10231700FAA3E0F9120657AE070223EF9002CBE0CB
:10232700FBA3E0FAA3E0F912065CAE070223EF90E5
:1023370002CBE0FBA3E0FAA3E0F9120661AE0702C5
:1023470023EF9002CBE0FBA3E0FAA3E0F9120666C5
:10235700AE070223EF9002CBE0FBA3E0FAA3E0F97C
:1023670012066BAE070223EF9002CBE0FBA3E0FA65
:10237700A3E0F9120675AE07806E9002CBE0FBA3CF
:10238700E0FAA3E0F912067AAE07805C9002CBE090
:10239700FBA3E0FAA3E0F912067FAE07804A90029A
:1023A700CBE0FBA3E0FAA3E0F91205F8AE0780380B
:1023B7009002CBE0FBA3E0FAA3E0F91205FDAE071C
:1023C70080269002CBE0FBA3E0FAA3E0F912061106
:1023D700AE0780149002CBE0FBA3E0FAA3E0F9126A
:1023E7000670AE0780027E04AF06229002E7EEF089
:1023F700A3EFF0A3EDF0E4A3F0A3F0A3F0A3F0A301
:10240700F09002EEE025E0FF9002EDE033FE90024F
:10241700E8E02FFF9002E7E03EFAA9077BFF900272
:10242700F7EBF0A3EAF0A3E9F012150BB4FF26903F
:1024370002EAE004F0E4A3F0A3F09002EEE004F077
:1024470070069002EDE004F09002E9E0FFA3E0B52A
:1024570007AF022691E49002F1F0A3F09002F2E0B8
:1024670025E0FF9002F1E033FE9002F7E0FBA3E0E6
:10247700FAA3E02FF9EA3EFA900002121524FD7C38
:10248700009002F2E025E0FF9002F1E033FE9002B7
:10249700F7A3E0FAA3E0F98F828E831215242401B3
:1024A700FFE433FEEFB50530ECB5062C9002F2E001
:1024B70025E0FF9002F1E033FEE92FF9EA3EFA90BA
:1024C7000002121524F460109002F2E004F0700686
:1024D7009002F1E004F080849002F2E02401FE9083
:1024E70002F1E034009002EFF0A3CEF09000A3E0F9
:1024F700D3947C40121248C29002FAEFF0C3648072
:1025070094805003E0FF22E49002F1F0A3F09002E0
:10251700EFE0FEA3E0FFC39002F2E09F9002F1E03C
:102527009E400302266EE0FEA3E0FFC39002F0E0A8
:102537009FFF9002EFE09EFE9000A3E0FDC3747F33
:102547009DFDE49400FCD3EF9408EE94007A0040DC
:10255700047B0380027B02C3ED9BFDEC9AFCC3EF77
:102567009DEE9C50028004AE04AF059002F5EEF09C
:10257700A3EFF09002F2E025E0FF9002F1E033FED6
:102587009002F7E0FBA3E0FAA3E0F98F828E8312B3
:102597001524FD9002F5A3E09002FEF09002EAE018
:1025A700FF7B0112302C9002FAEFF0C36480948015
:1025B7005003E0FF22E49002F3F0A3F09002F5E06D
:1025C700FEA3E0FF9002F3E0FCA3E0FDC39FEC9EB7
:1025D700504E9002F2E02DFF9002F1E03CFEEF2515
:1025E700E0FFEE33FE9002F7E0FBA3E0FAA3E02F53
:1025F700F9EA3EFA900001121524FB7DC57F007EA3
:10260700031268849000A3E004F09000A1E014F0A6
:102617009002F4E004F070A49002F3E004F0809CD0
:102627009002F5E0FEA3E0FF9002F2E02FF09002A7
:10263700F1E03EF0E0FEA3E0FFC39002F0E09FFF71
:102647009002EFE09EFED3EF9400EE940050030259
:1026570025151248C29002FAEFF0C36480948040B7
:1026670003022515E0FF229002EFE0FEA3E0FF90B2
:1026770002ECE02FF09002EBE03EF09002EEE02F4C
:10268700F09002EDE03EF00224087F002290030064
:10269700EEF0A3EFF0E4A3F09003E0E0FEA3E0F593
:1026A700828E83121934A907AA06900303EDF0A3BB
:1026B700EAF0A3E9F07F337E777D347C129003D272
:1026C700E0F8A3E0F9A3E0FAA3E0FBC31218C360A4
:1026D7002890033074FFF0A3741AF0A374FFF0A3DB
:1026E7007401F0A374ABF07BFF7A1B797B1206852C
:1026F7007BFF7A1B79930227AE9003D6E0FFA3E016
:10270700900308CFF0A3EFF09003E2E070030227F5
:10271700B4A3E0FEA3E0FF900300E0FAA3E0FBB55B
:102727000716EAB506129003E6E07E007810C33379
:10273700CE33CED8F9022842900309E024FFFD905A
:102747000308E034FFFCE4FFFE120029900306EEC5
:10275700F0A3EFF0C3EE6480948040269003E3E09B
:10276700FEA3E0FF900300E0B50617A3E0B507124C
:102777009003E6E07E007810C333CE33CED8F9025B
:10278700284290033074FFF0A3741AF0A374FFF08B
:10279700A37401F0A374BFF07BFF7A1B797B120649
:1027A700857BFF7A1B79BA1206850228B3E490036A
:1027B70006F0A3F0900308E0FEA3E0FFC390030731
:1027C700E09FEE6480F8900306E06480984003027F
:1027D700285D900303E0FBA3E0FAA3E02406F9E4F5
:1027E7003AFAA3E0FEA3E07803C333CE33CED8F999
:1027F70029F9EA3EFAAF01FEAD037C009003277486
:1028070003F0A374E3F0A3E4F0A37408F0123C4CC4
:10281700E433900302F060669003E3E0FEA3E0FF79
:10282700900300E0B5061EA3E0B507199003E6E0A4
:102837007E007810C333CE33CED8F9FF9003E5E09E
:10284700FDED4FFF22900307E004F07006900306AA
:10285700E004F00227BB90033074FFF0A3741AF072
:10286700A374FFF0A37401F0A374C9F07BFF7A1B74
:10287700797B1206857BFF7A1B79BA12068590034E
:1028870002E0702890033074FFF0A3741AF0A37469
:10289700FFF0A37401F0A374CCF07BFF7A1B797B64
:1028A7001206857BFF7A1B79A6120685E4FEFF22B6
:1028B700E0FEA3E0FF900300EEF0A3EFF0E4A3F047
:1028C7009003E0E0FEA3E0F5828E83121934A90796
:1028D700AA06900303EDF0A3EAF0A3E9F07F337EA5
:1028E700777D347C129003D2E0F8A3E0F9A3E0FAF5
:1028F700A3E0FBC31218C3602890033074FFF0A352
:10290700741AF0A374FFF0A37401F0A3746BF07B47
:10291700FF7A1B797B1206857BFF7A1B7993022945
:10292700AF9003D6E0FFA3E0900308CFF0A3EFF04A
:102937009003E2E06078A3E0FEA3E0FF900300E0ED
:10294700B50608A3E0B50703022A34900309E0247B
:10295700FFFD900308E090030012001E900306EEAF
:10296700F0A3EFF0C3EE6480948040179003E3E098
:10297700FEA3E0FF900300E0B50608A3E0B5070358
:10298700022A3490033074FFF0A3741AF0A374FF83
:10299700F0A37401F0A37482F07BFF7A1B797B129A
:1029A70006857BFF7A1B79BA120685022AC0E49056
:1029B7000306F0A3F0900308E0FEA3E0FFC3900333
:1029C70007E09FEE6480F8900306E0648098400378
:1029D700022A6A900303E0FBA3E0FAA3E02406F9C6
:1029E700E43AFAA3E0FEA3E07803C333CE33CED8AC
:1029F700F929F9EA3EFAAF01FEAD037C00900327FF
:102A07007403F0A374E3F0A3E4F0A37408F0123C9A
:102A17004CE433900302F060729003E3E0FEA3E01E
:102A2700FF900300E0B5062AA3E0B507259003E76A
:102A3700A3E0FDA3E0FEA3E0FF900303E0FBA3E018
:102A4700FAA3E02FF9EA3EFAEB3DAF01AE02FD7CB7
:102A57000022900307E004F07006900306E004F0FC
:102A67000229BC90033074FFF0A3741AF0A374FF1B
:102A7700F0A37401F0A3748EF07BFF7A1B797B12AD
:102A870006857BFF7A1B79BA120685900302E070F0
:102A97002890033074FFF0A3741AF0A374FFF0A317
:102AA7007401F0A37491F07BFF7A1B797B12068582
:102AB7007BFF7A1B79A6120685E4FFFEFDFC2290B8
:102AC70002E6EBF0A3EAF0A3E9F0E4A3F0A3F0A396
:102AD700F0A3F0EFF47002EEF47003022CB97B015F
:102AE7007A0279ED1244279002F3E0FFA3E08FF01A
:102AF700A4FFAEF09002F7E0FD74088DF084FD7C32
:102B0700001215979002EBEEF0A3EFF030E00BE028
:102B170004F070069002EBE004F09002EBE0FEA3F5
:102B2700E0FF9002F8E0FD7C001215859002EBEEC5
:102B3700F0A3EFF09002EBE0C4135407F8E4F0E8D9
:102B4700A3F0E49002EAF09002EAE0FFFDD39002DE
:102B5700ECE09D9002EBE09400406BEF7004FEFF09
:102B670080047E107F009002E6E0FBA3E0FAA3E07A
:102B7700F9EE8FF01216B19002EAE0C43354E0FE8A
:102B8700E4FCFD9002EFE0F8A3E0F9A3E0FAA3E08C
:102B97002400FFEA3EFEED39FDEC38FC9002E6E04A
:102BA700FBA3E0FAA3E0F912164EFB9002FDE5F055
:102BB700F0A3EBF0A37420F0A3E4F01231BF90026E
:102BC700EAE004F080819002F3E0FFA3E08FF0A435
:102BD700FFAEF09002F7E0FD74088DF084FD7C00F5
:102BE7001215979002EBEEF0A3EFF030E00BE00444
:102BF700F070069002EBE004F09002EBE0FEA3E039
:102C0700FF9002F8E0FD7C001215859002EBEEF0D4
:102C1700A3EFF0EE541F4F7003022CB99002EAE0C5
:102C27007004FEFF80047E107F009002E6E0FBA3A5
:102C3700E0FAA3E0F9EE8FF01216B19002EAE0C4D1
:102C47003354E0FEE4FCFD9002EFE0F8A3E0F9A3C3
:102C5700E0FAA3E02400FFEA3EFEED39FDEC38FC84
:102C6700C0079002E6E0FBA3E0FAA3E0F912164ED4
:102C7700FB9002FDE5F0F0A3EBF09002EBE0541FB0
:102C8700FFA3E09002FFCFF0A3EFF0D0071231BF10
:102C97009002EBE0541FFEA3E0FFEEC313FEEF1319
:102CA700FF9002E6E0FBA3E0FAA3E0F9EE8FF01253
:102CB70016B1221B5B33326D25733A2564205B49BD
:102CC7004E464F5D1B5B306D20002E2E5C74775F88
:102CD7006C69625C647269766572735C7370697241
:102CE700772E630047445F3132384D5F5155414479
:102CF7005F4E4F52200D0A0047445F3132384D5F17
:102D0700515541445F4E4F522072313D2562782024
:102D170072323D2562782072333D2562780D0A00B4
:102D27001B5B33316D25733A2564205B4552524F47
:102D3700525D1B5B306D20004744203132384D20F7
:102D47007175616420656E61626C65206572726F72
:102D57007221200D0A005761697420444D412049B2
:102D67006E746572727570742054696D656F7574D1
:102D77000D0A005761697420444D412054696D65FF
:102D87006F75740D0A007370695F646D615F7772A8
:102D9700697465206C656E677468203E203235362D
:102DA7002062797465730D0A007370695F646D61E1
:102DB7005F777269746520776970206661696C0D49
:102DC7000A00535049204869676820506572666F4A
:102DD700726D616E6365204D6F6465204469736130
:102DE700626C6520537563636573730A00535049BA
:102DF700204869676820506572666F726D616E63FF
:102E070065204D6F64652044697361626C65204677
:102E170061696C0A0053504920486967682050650A
:102E270072666F726D616E6365204D6F64652045D4
:102E37006E61626C6520537563636573730A005333
:102E47005049204869676820506572666F726D61E6
:102E57006E6365204D6F646520456E61626C652009
:102E67004661696C0A007370695F646D615F7265C2
:102E77006164206C656E677468203E203831393292
:102E87002062797465730D0A00000000000D20535D
:102E9700746174652E446574655369676E616C541B
:102EA700797065203D2030782562780A000D204F23
:102EB7004B2053746174652E446574655369676E5E
:102EC700616C54696D6573203D2030782562780AFE
:102ED700000D0A57726974652043564253205441C6
:102EE700424C455F5F4F4B2121210A0D000D577260
:102EF700697465206E6F74205369676E616C212158
:102F0700210A0D005955562041637469766520736F
:102F170069676E616C2048746F74616C2030782526
:102F270078202056746F74616C2030782578207370
:102F37007464206973203078256278200A000D2098
:102F4700595556206C6F6164207461626C6520412D
:102F57006374697665207369676E616C2073746446
:102F67002069732030782562780A0025733A256432
:102F770020002E2E5C74775F6C69625C64726976E0
:102F87006572735C766964656F6465746563742ED6
:102F9700630044536967537464203D203078256289
:102FA700780A0D0041536967537464203D203078D7
:102FB7002562780A0D000D202073696773746174A8
:102FC700652E53696753746420213D205647415F3E
:102FD700554E4B4E4F5720202121210A0D000D2021
:102FE70020564741696E69745F636C6F7365207023
:102FF700616E656C20424C61636B20202121210AA0
:103007000D00646174613D25782025780A005955C3
:10301700563D2564204356443D25640A20564741C2
:103027003D25640A009002FBEFF0A3EDF0A3EBF05F
:10303700A3E0FDD394087E0240027E03ED2E9002AA
:10304700FFF0ED702790033074FFF0A37434F0A302
:10305700749DF0A37401F0A374C3F07BFF7A3479F5
:10306700851206857BFF7A3479E6802E9002FEE092
:10307700D3947C402B90033074FFF0A37434F0A3F7
:10308700749DF0A37401F0A374C8F07BFF7A3479C0
:10309700851206857BFF7A3479FB1206857FDF224E
:1030A7009000A1E0602B90033074FFF0A37434F01C
:1030B700A3749DF0A37401F0A374CDF07BFF7A3461
:1030C70079851206857BFF7A3579101206857FDDB3
:1030D700229002FFE0FF9000A3E02FFFE433FED32E
:1030E700EF947FEE64809480400C1248C2C3EF6473
:1030F7008094805001229002FFE09000A1F090029E
:10310700FEE0FFC394095034E4900300F0E0FE9022
:1031170002FDE07D0060027D01EDC4333354C04EF3
:10312700FE900300F09002FBE0540733333354F86A
:103137004EFE900300F0EF144EF0804990030074A8
:1031470080F0E0FF9002FDE07E0060027E01EEC4A9
:10315700333354C04FFF900300F09002FBE0540755
:1031670033333354F84F900300F0FB7DC57F007E67
:10317700031268849000A3E004F09000A1E014F02B
:103187009002FEE014FB7DC57F007E0312688490E9
:1031970000A3E004F09000A1E014F09002FCE0FB33
:1031A7007DC57F007E031268849000A3E004F09041
:1031B70000A1E014F07F00229002F9121954C20016
:1031C7007DF0E4FFFE126897900301EFF07B407DEE
:1031D700F0E4FFFE1268849002FDA3E0FB7DAAE401
:1031E700FFFE1268849002FDE0FB7DAAE4FFFE1259
:1031F70068849000A6E030E01A7B037D6D7F007E37
:10320700061268847BEB7D607F007E061268847BF4
:10321700688017E4FB7D6DFF7E061268847B0B7D5B
:10322700607F007E061268847B6D7D657F007E0669
:103237001268849002F9E0FCA3A3A3E0FFE4AB07C4
:103247007D61FF7E061268849002F9E0FCA3E0FD31
:10325700A3E0FEA3E0FF78081218D4E4AB077D6271
:10326700FF7E061268849002F9E0FCA3E0FDA3E06C
:10327700FEA3E0FF78101218D4E4AB077D63FF7E4E
:10328700061268841267C67BAB7D697F007E0612D3
:1032970068847BF07D6A7F007E061268849002FF57
:1032A700A3E0FB7D6B7F007E061268849002FFE03F
:1032B700541FFEA3EE44E0FB7D6C7F007E06126880
:1032C700847D147F007E06126897EF30E607125E52
:1032D700AD40078018125AB05013900301E0B45064
:1032E7000A7B507DF0E4FFFE126884D2009000A6AE
:1032F700E0C31330E00B7BEB7D607F007E06126836
:1033070084A200229002FDEEF0A3EFF0A3EDF0A35C
:10331700EBF0E490030BF0A3F0A3F0A3F0A3F0907D
:10332700F0F07440F0E490030CF0A3F09002FFE09B
:1033370025E0F0900309E060079002FFE04420F0E9
:10334700E490030BF0900303E0FF90030BE0FEC350
:103357009F4003023447900398E0FBA3E0FAA3E001
:10336700F990000D121524FDEEFF900301E0F92FEF
:10337700FFE433FEC3EF9D7480F86E984003023478
:103387003E900300E0FF90030BE0FEE92EFD900363
:1033970004E0FAA3E0FBA3E0900314F01263EFE468
:1033A70090030AF0900302E0FF90030AE0C39F40F6
:1033B7000302343E90030CE0FEA3E0FF9002FEE020
:1033C7002FFF9002FDE03EFE900308E02FFF9003E1
:1033D70007E03E90030EF0FCA3EFF0FD9002FFE044
:1033E7004CFFED90030ECFF0A3EFF0900398E0FBB6
:1033F700A3E0FAA3E0F990000C121524FF90030A4A
:10340700E0FD900300E02DFDE433FCC3ED9F7480E5
:10341700F86C98502290030EE0FEA3E0FF12672A93
:1034270090030DE004F0700690030CE004F09003A5
:103437000AE004F00233AB90030BE004F002334CD4
:1034470090F0F07450F02243515F53495A453A20A7
:103457002562640A00253362643A203078253032C9
:1034670062780A0043515F494E545F535441545F99
:103477005245473A20307825303262780A001B5B84
:1034870033316D25733A2564205B4552524F525DA7
:103497001B5B306D20002E2E5C74775F6C69625C5D
:1034A700647269766572735C63712E63007175650A
:1034B7007565206F766572666C6F770A007472693E
:1034C700676765722074696D656F75740A00696E48
:1034D70076616C696420636F6D6D616E640A006963
:1034E7006C6C6567616C207A65726F206C656E67BE
:1034F70074680A00696C6C6567616C20646174614B
:10350700206C656E6774680A006C61737420636F62
:103517006D6D616E6420756E66696E69736865644A
:103527000A00746F6F206D616E7920646174610A9F
:10353700006C61737420697373756520756E6669B5
:103547006E69736865640A00636F6D6D616E6420F0
:10355700717565756520656D7074790A0069737397
:1035670075652074696D656F75740A00696C6C65A3
:1035770067616C207472696767657220736F757213
:10358700636520282564290A00C103C104042100BA
:10359700000000042500000000042D0000000004C6
:1035A700310000000002290000022B00004100A4A6
:1035B700004100A500011B00011C0041007B0041E8
:1035C700007A004100A6004103EF004100A7004236
:1035D7000032F400420034F5004100312F41003041
:1035E7002FC105040C000000000408000000004182
:1035F70003F4004203E001144103E2004103B1FF79
:103607004203A3FFFF420396FFFF41039C004203CF
:103617009D000041039B00011E00410395FF4203EB
:10362700B2000044039F000000004403B400000000
:103637000041008000410086014503B900000000F9
:10364700004403BE69F469EB5003C2699A69A36930
:10365700AC69B569BE69C769D069D94103B8014189
:103667000177004100FE004100FC004100AA004133
:1036770000AB004100AC004700AD000000000000B7
:10368700004100B4004100B5004100B6004100B759
:10369700004100B8004100B9004100BA004400BB36
:1036A700FFFFFFF84200BF00004100C1004100C218
:1036B700014103F500009002E9EBF0A3EAF0A3E96A
:1036C700F09002E7EEF0A3EFF0E49002ECF01226A0
:1036D700949002EDEFF06409603E90033074FFF0C0
:1036E700A3741AF0A374FFF0A37403F0A37424F077
:1036F7007BFF7A1B797B1206857BFF7A1D791890F1
:1037070002E7E0FFA3E0900330CFF0A3EFF09002D1
:10371700EDE0900332F0804D9002E71228B7900257
:10372700E9A3E0FBA3E0900327CBF0A3EBF0A3E42E
:10373700F0A37410F0123C4CE4339002ECF07028C4
:1037470090033074FFF0A3741AF0A374FFF0A3740E
:1037570003F0A3742AF07BFF7A1B797B1206857B23
:10376700FF7A1B79A60206859002E9E0FBA3E0FA3F
:10377700A3E02402F9E43AFAC003C002C001121818
:10378700FA9003E0E0FAA3E0F5828A83121944EB8A
:103797002FFFEA3EFEE93DFDE83CFCD001D002D018
:1037A7000312191A9002E9E0FBA3E0FAA3E024064A
:1037B700F9E43AFAC003C002C0011218FA9003E014
:1037C700E0FAA3E0F5828A83121944EB2FFFEA3E61
:1037D700FEE93DFDE83CFCD001D002D00312191AE6
:1037E70022E49002CEF0A3F0A3F0A3F0A3ECF0A3A1
:1037F700EDF0EFF47002EEF4700302390B7B017AFF
:103807000279D412415A9002D6E0FCA3E0FDA3E06E
:10381700FEA3E0FF9003277402F0A374D0F0A3E4A3
:10382700F0A37402F0123C4C9002D0E07002A3E0C7
:10383700706A90039CE0FFFDD39002DBE09D90024D
:10384700DAE094004006EFD39400500690039C748E
:1038570001F090039CE075F002A4FFE4FCFD9002E8
:10386700D6E0F8A3E0F9A3E0FAA3E02FFFEA35F0EA
:10387700FEED39FDEC38FC9003277402F0A374D0F9
:10388700F0A3E4F0A37402F0123C4C9002D0E0FEE7
:10389700A3E0FF7B017A0279D412415AE49002CF68
:1038A700F09002CFE0FFFDD39002DBE09D9002DABB
:1038B700E09400404FEF75F002A4FFE4FCFD900296
:1038C700D6E0F8A3E0F9A3E0FAA3E02FFFEA35F08A
:1038D700FEED39FDEC38FC9003277402F0A374D099
:1038E700F0A3E4F0A37402F0123C4C9002D0E0FE87
:1038F700A3E0FF7B017A0279D2122AC69002CFE0B9
:1039070004F0809D22D200E49002CBF0A3F0A3F054
:10391700A3F090033074FFF0A3742CF0A374D1F0DC
:10392700A3E4F0A3745DF07BFF7A2C79BA120685C5
:103937007BFF7A2C79EB1206857D017F3C125DFFB8
:103947007D317F02125DFF7D117F60125DFFE49084
:1039570002CEF09002D27401F0A37402F0A374CCEB
:10396700F0A37401F0A37402F0A374CDF07B017A85
:103977000279CB124A589002CBE030E00C9002CE8D
:10398700E004F0E0C394FF40CA90033074FFF0A353
:10399700742CF0A374D1F0A3E4F0A3746BF07BFF55
:1039A7007A2C79BA1206857BFF7A2C79FF9002CBA5
:1039B700E0900330F09002CCE0900331F09002CD1C
:1039C700E0900332F01206859002CCE020E12990C6
:1039D700033074FFF0A3742CF0A374D1F0A3E4F0C8
:1039E700A3746EF07BFF7A2D79271206857BFF7A09
:1039F7002D793F12068580FE9002CBE0543C643C53
:103A07006002C2009002CCE030E602C2009002CD14
:103A1700E030E202C2001268AAA200229002CEECB5
:103A2700F0A3EDF0E4A3F0A3F0A3F07B017A027911
:103A3700D312406B9002DBE0C41354079002D2F01C
:103A4700E49002D1F09002D2E0FF9002D1E0FEC3F1
:103A57009F505CEEC43354E0FEE4FCFD9002D5E0D9
:103A6700F8A3E0F9A3E0FAA3E02400FFEA3EFEEDA5
:103A770039FDEC38FCC006C0079002D1E0C43354CE
:103A8700E0C313FEE413FF9002CFE02FFF9002CEB6
:103A9700E03E9002FDF0A3EFF0A37420F0A3E4F062
:103AA700D007D0061231BF9002D1E004F080969083
:103AB70002DBE0541FFEA3E04E60619002D1E0C438
:103AC7003354E0FEE4FCFD9002D5E0F8A3E0F9A34F
:103AD700E0FAA3E02400FFEA3EFEED39FDEC38FCF6
:103AE700C006C0079002D1E0C43354E0C313FEE41C
:103AF70013FF9002CFE02FFF9002CEE03E9002FD31
:103B0700F0A3EFF09002DBE0541FFFA3E09002FF69
:103B1700CFF0A3EFF0D007D0061231BF7F0212011A
:103B2700F7EF75F002A4FF9000A8E5F0F0A3EFF01F
:103B3700229002DA121954E49002E0F0FDA3F0A3F8
:103B4700F09002DEE0FEA3E07806CEC313CE13D8D2
:103B5700F9FF9002E1EEF0A3EFF090F0A87408F0FF
:103B6700E4A3F090F0A87409F0E49002E0F090026A
:103B7700E0E0FFFBD39002E2E09B9002E1E09400DB
:103B87004054EF75F040A4FFE4FCFD9002DAE0F842
:103B9700A3E0F9A3E0FAA3E02FFFEA35F0FEED3941
:103BA700FDEC38FC9003277402F0A374E3F0A3E460
:103BB700F0A37440F0123C4CE4FD74E32DF582E46D
:103BC7003402F583E090F0A9F00DEDB440EC9002DB
:103BD700E0E004F080989002DFE0543F6066A3E0E5
:103BE70075F040A4FFE4FCFD9002DAE0F8A3E0F9E9
:103BF700A3E0FAA3E02FFFEA35F0FEED39FDEC383C
:103C0700FCC0079003277402F0A374E3F09002DF6F
:103C1700E0543FFF900329E4F0A3EFF0D007123CF4
:103C27004CE4FD9002DFE0543FFFEDC39FE49400B6
:103C3700501274E32DF582E43402F583E090F0A985
:103C4700F00D80DF22900323121954C2009000A6C2
:103C5700E030E01A7B037D6D7F007E061268847B6F
:103C6700EB7D607F007E061268847B688017E4FB2B
:103C77007D6DFF7E061268847B0B7D607F007E066C
:103C87001268847B6D7D657F007E061268849003D1
:103C970023E0FCA3A3A3E0FFE4AB077D61FF7E065F
:103CA700126884900323E0FCA3E0FDA3E0FEA3E0F9
:103CB700FF78081218D4E4AB077D62FF7E0612680E
:103CC70084900323E0FCA3E0FDA3E0FEA3E0FF78DC
:103CD700101218D4E4AB077D63FF7E0612688412C6
:103CE70067C6900327A3E0FB7D697F007E06126805
:103CF70084900327E0FB7D6A7F007E06126884902C
:103D07000329A3E0FB7D6B7F007E06126884900386
:103D170029E0541FFEA3EE44E0FB7D6C7F007E0686
:103D27001268847D147F007E06126897EF30E607DD
:103D3700125EAD40078007125AB05002D2009000C1
:103D4700A6E0C31330E00B7BEB7D607F007E06129D
:103D57006884A200221B5B33316D25733A256420EA
:103D67005B4552524F525D1B5B306D20002E2E5C1F
:103D770074775F6C69625C647269766572735C6F95
:103D87007364326170692E63006F73645F6F726171
:103D97006D5F66696C6C3A206C656E677468207439
:103DA7006F6F206C6F6E672E0A006F73645F6F72A0
:103DB700616D5F66696C6C3A2074696D65206F751B
:103DC700742E0A0063715F77726974655F62797434
:103DD7006528290A0063715F666C75736828290A6C
:103DE700007477665F7075745F636861725F746F84
:103DF7005F6F72616D3A20556E65787065637465A3
:103E070064206368617261637465722E0A000A2018
:103E1700202020202020202020202020202020209B
:103E2700002020253168586820000A006F73645FFE
:103E370064756D705F6D656D6F72793A2074696D29
:103E470065206F75742E0A004F52414D2044756DE1
:103E570070202530346858683A20200025303468AF
:103E6700582000900000E0FBA3E0FAA3E0F99000DF
:103E7700021219BD900000E075F005A429F9EA3592
:103E8700F0FA9000021219BD900000E075F012A43C
:103E970029F9EA35F0FA90000F1219BD900000EBEE
:103EA700F0A3EAF0A3E9F012199D900000EBF0A34C
:103EB700EAF0A3E9F09002D3EBF0A3EAF0A3E9F06C
:103EC700E4A3F09002D3E0FBA3E0FAA3E0F9121613
:103ED7004EFFAEF07B017A0279D71236BD9002D938
:103EE700E0FCA3E0FDA3E0FEA3E0FF12516A90020D
:103EF700DDE0FCA3E0FDA3E0FEA3E0FF1251F2909A
:103F070002E1E0FEA3E0FF12667C9002E1E0FEA37F
:103F1700E0FF124FC19002D3E0FBA3E0FAA3E0F960
:103F2700900006121679FFAEF0900008121679FD80
:103F3700ACF012692F9002D3E0FBA3E0FAA3E0F9FB
:103F4700900002121679FFAEF0900004121679FD68
:103F5700ACF01265941262109002D3E0FBA3E0FA72
:103F6700A3E0F912164EFF9003A3E5F0F0A3EFF0DC
:103F77002290030574F0F090009EE0900304F07027
:103F870002FF22E490009EF01267B09000A3E09039
:103F9700009AF0E49000A3F0900304E030E30312EA
:103FA7005B15900304E0FFB40107A37401F002401E
:103FB700657BFF7A34796B900330EFF012068590BA
:103FC7000304E030E32E90033074FFF0A37434F061
:103FD700A3749DF0A37401F0A37487F07BFF7A3478
:103FE70079851206857BFF7A3479B41206859003AA
:103FF7000574EFF0900304E030E22E90033074FF75
:10400700F0A37434F0A3749DF0A37401F0A3748B30
:10401700F07BFF7A3479851206857BFF7A3479C481
:1040270012068590030574EEF0900304E030E12E4C
:1040370090033074FFF0A37434F0A3749DF0A3745D
:1040470001F0A3748FF07BFF7A3479851206857BA4
:10405700FF7A3479D512068590030574EDF0900345
:1040670005E0FF229002E1EBF0A3EAF0A3E9F0906C
:1040770002DFEEF0A3EFF0E49002E4F01226949052
:1040870002E5EFF06404603E90033074FFF0A37420
:104097001AF0A374FFF0A37402F0A3749DF07BFFE2
:1040A7007A1B797B1206857BFF7A1C79419002DFA8
:1040B700E0FFA3E0900330CFF0A3EFF09002E5E03C
:1040C700900332F0804D9002DF1228B79002E1A3EF
:1040D700E0FBA3E0900327CBF0A3EBF0A3E4F0A36E
:1040E700740CF0123C4CE4339002E4F07028900317
:1040F7003074FFF0A3741AF0A374FFF0A37402F0F6
:10410700A374A3F07BFF7A1B797B1206857BFF7A6A
:104117001B79A60206859002E1E0FBA3E0FAA3E083
:104127002402F9E43AFAC003C002C0011218FA9057
:1041370003E0E0FAA3E0F5828A83121944EB2FFF2C
:10414700EA3EFEE93DFDE83CFCD001D002D0031277
:10415700191A229002F5EBF0A3EAF0A3E9F0900216
:10416700F3EEF0A3EFF0E49002F8F0122694900239
:10417700F9EFF06405603E90033074FFF0A3741A02
:10418700F0A374FFF0A37402F0A374B8F07BFF7A76
:104197001B797B1206857BFF7A1C796B9002F3E013
:1041A700FFA3E0900330CFF0A3EFF09002F9E09087
:1041B7000332F0804D9002F31228B79002F5A3E086
:1041C700FBA3E0900327CBF0A3EBF0A3E4F0A374E9
:1041D70008F0123C4CE4339002F8F070289003305A
:1041E70074FFF0A3741AF0A374FFF0A37402F0A392
:1041F70074BEF07BFF7A1B797B1206857BFF7A1BE7
:1042070079A60206859002F5E0FBA3E0FAA3E02475
:1042170002F9E43AFAC003C002C0011218FA900387
:10422700E0E0FAA3E0F5828A83121944EB2FFFEA54
:104237003EFEE93DFDE83CFCD001D002D003121957
:104247001A229002DCEBF0A3EAF0A3E9F09002DA7D
:10425700EEF0A3EFF0E49002DFF01226949002E074
:10426700EFF06406603E90033074FFF0A3741AF019
:10427700A374FFF0A37402F0A374D3F07BFF7A1B3F
:10428700797B1206857BFF7A1C79959002DAE0FF2D
:10429700A3E0900330CFF0A3EFF09002E0E09003AB
:1042A70032F0804D9002DA1228B79002DCA3E0FBCF
:1042B700A3E0900327CBF0A3EBF0A3E4F0A3740BE8
:1042C700F0123C4CE4339002DFF070289003307416
:1042D700FFF0A3741AF0A374FFF0A37402F0A374A1
:1042E700D9F07BFF7A1B797B1206857BFF7A1B79D6
:1042F700A60206859002DCE0FBA3E0FAA3E0240215
:10430700F9E43AFAC003C002C0011218FA9003E0B8
:10431700E0FAA3E0F5828A83121944EB2FFFEA3E05
:10432700FEE93DFDE83CFCD001D002D00312191A8A
:10433700229002D8EBF0A3EAF0A3E9F09002D6EEC0
:10434700F0A3EFF0E49002DBF01226949002DCEF8A
:10435700F06407603E90033074FFF0A3741AF0A373
:1043670074FFF0A37402F0A374EEF07BFF7A1B795D
:104377007B1206857BFF7A1C79BE9002D6E0FFA3ED
:10438700E0900330CFF0A3EFF09002DCE09003322F
:10439700F0804D9002D61228B79002D8A3E0FBA375
:1043A700E0900327CBF0A3EBF0A3E4F0A37407F0AE
:1043B700123C4CE4339002DBF0702890033074FF1A
:1043C700F0A3741AF0A374FFF0A37402F0A374F4BB
:1043D700F07BFF7A1B797B1206857BFF7A1B79A618
:1043E7000206859002D8E0FBA3E0FAA3E02402F9D5
:1043F700E43AFAC003C002C0011218FA9003E0E0E1
:10440700FAA3E0F5828A83121944EB2FFFEA3EFEF6
:10441700E93DFDE83CFCD001D002D00312191A2275
:104427009002FBEBF0A3EAF0A3E9F09002F9EEF0BB
:10443700A3EFF0E49002FEF01226949002FFEFF053
:104447006408603E90033074FFF0A3741AF0A374FD
:10445700FFF0A37403F0A37409F07BFF7A1B797B49
:104467001206857BFF7A1C79E89002F9E0FFA3E04A
:10447700900330CFF0A3EFF09002FFE0900332F00B
:10448700804D9002F91228B79002FBA3E0FBA3E04E
:10449700900327CBF0A3EBF0A3E4F0A3740CF01286
:1044A7003C4CE4339002FEF0702890033074FFF028
:1044B700A3741AF0A374FFF0A37403F0A3740FF0AE
:1044C7007BFF7A1B797B1206857BFF7A1B79A60215
:1044D70006859002FBE0FBA3E0FAA3E02402F9E4DF
:1044E7003AFAC003C002C0011218FA9003E0E0FADA
:1044F700A3E0F5828A83121944EB2FFFEA3EFEE917
:104507003DFDE83CFCD001D002D00312191A2290DD
:1045170002D0EBF0A3EAF0A3E9F09002CEEEF0A30D
:10452700EFF0E49002D3F01226949002D4EFF064F7
:104537000A603E90033074FFF0A3741AF0A374FF6F
:10454700F0A37403F0A37463F07BFF7A1B797B12EB
:1045570006857BFF7A1D79409002CEE0FFA3E090AD
:104567000330CFF0A3EFF09002D4E0900332F08055
:104577004D9002CE1228B79002D0A3E0FBA3E090A3
:104587000327CBF0A3EBF0A3E4F0A3740AF0123CEB
:104597004CE4339002D3F0702890033074FFF0A3FB
:1045A700741AF0A374FFF0A37403F0A37469F07B8B
:1045B700FF7A1B797B1206857BFF7A1B79A6020699
:1045C700859002D0E0FBA3E0FAA3E02402F9E43AE5
:1045D700FAC003C002C0011218FA9003E0E0FAA380
:1045E700E0F5828A83121944EB2FFFEA3EFEE93D8C
:1045F700FDE83CFCD001D002D00312191A22900228
:10460700CBEEF0A3EFF09002CFEAF0A3EBF090022D
:10461700CDECF0A3EDF0E49002D1F0A3F0D3ED944C
:1046270000EC9440402790033074FFF0A3743DF0F2
:10463700A37474F0A3E4F0A3749CF07BFF7A3D7934
:104647005C1206857BFF7A3D79900246EC90F0A8D4
:104657007440F09002CFE0FCA3E090F0A9F090F056
:10466700A87441F0ECA3F090F0A87442F09002CB4C
:10467700E0FCA3E090F0A9F090F0A87443F0ECA35D
:10468700F090F0A87444F09002CDE0FCA3E090F025
:10469700A9F090F0A87445F0EC4480A3F090F0A93D
:1046A700E020E7449002D2E004F070069002D1E0E7
:1046B70004F0D39002D2E094009002D1E094284015
:1046C700DC90033074FFF0A3743DF0A37474F0A37F
:1046D700E4F0A374ADF07BFF7A3D795C1206857B2D
:1046E700FF7A3D79B112068522900312EEF0A3EF0F
:1046F700F0E4A3F09003E0E0FEA3E0F5828E8312DE
:104707001934A907AA06900315EDF0A3EAF0A3E967
:10471700F07F337E777D347C129003D2E0F8A3E0FC
:10472700F9A3E0FAA3E0FBC31218C3602690033095
:1047370074FFF0A3741AF0A374FFF0A3E4F0A3745A
:10474700DBF07BFF7A1B797B1206857BFF7A1B796F
:1047570093806C900315E0FBA3E0FAA3E02406F92D
:10476700E43AFA900312E0FEA3E07803C333CE33B2
:10477700CED8F929F9EA3EFAAF01FEAD037C0090E5
:1047870003277403F0A374E3F0A3E4F0A37408F021
:10479700123C4CE433900314F0702B90033074FFF9
:1047A700F0A3741AF0A374FFF0A3E4F0A374E1F08C
:1047B7007BFF7A1B797B1206857BFF7A1B79A61212
:1047C7000685E4FEFF229003E3E0FEA3E0FF22A3B9
:1047D700F0A3F012164EFFAEF09002E6EEF0A3EF54
:1047E700F0E4A3F0A3F0A3F01226949002E8EFF010
:1047F700640570749002E6E0FEA3E0FF7B017A0295
:1048070079EB12415A90039CE0FFFDC39002F2E05E
:104817009D9002F1E094004006EFD394005006907B
:10482700039C7401F090039CE024FFFFE434FFFE37
:10483700EF25E0FFEE33FEE4FCFD9002EDE0F8A388
:10484700E0F9A3E0FAA3E02FFFEA3EFEED39FDEC25
:1048570038FC9003277402F0A374E9F0A3E4F0A3F3
:104867007402F0123C4C80449002E8E0B4081190C6
:1048770002E6E0FFA3E09002E9CFF0A3EFF0802C7F
:1048870090033074FFF0A3741EF0A37493F0A37425
:1048970003F0A37454F07BFF7A1F79121206857B0D
:1048A700FF7A1F79A9120685E4FEFF229002E9E04C
:1048B700FEA3E0FF229000A37413F09000A1E06034
:1048C7002B90033074FFF0A37434F0A3749DF0A30E
:1048D7007402F0A3740DF07BFF7A34798512068594
:1048E7007BFF7A3579381206857FDD229000A3E0B9
:1048F700702B90033074FFF0A37434F0A3749DF011
:10490700A37402F0A37412F07BFF7A347985120640
:10491700857BFF7A35794F1206857FE02212663252
:10492700E4900301F0A3F0123F78900303EFF070D7
:104937001D900302E004F07006900301E004F0C349
:10494700900302E094FF900301E094FF40D99003A5
:1049570001E0B4FF33A3E0B4FF2E125B15900330E0
:1049670074FFF0A37434F0A3749DF0A37402F0A352
:10497700741EF07BFF7A3479851206857BFF7A35C2
:1049870079641206857FDC22900303E0FF22E4F5B9
:104997001112E34812E54D9002D1E4F0A37427F019
:1049A7007B997A007D247C007F1E7E0112D78F12AF
:1049B70068CE12D61B12696412E1DD7F0112E56D24
:1049C700E4FB7D0FFFFE1268847B807D19E4FFFE08
:1049D7001268847B067D137F007E011268847BFF4B
:1049E7007D667F007E01126884E49002C6F0A3F022
:1049F7009002C6E0FEA3E0FFE4FCFD7BB87A88F9ED
:104A0700F8D31218AD40109002C7E004F070E1909F
:104A170002C6E004F080D97BFF7A69797F124BD117
:104A2700124DE17D327F051259E412051C1266A072
:104A37001266C412012912052B1204DB12648B9033
:104A470002C8EBF0A3EAF0A3E9F01267098F11801F
:104A5700E29002CFEBF0A3EAF0A3E9F0C2017B05F5
:104A67007D607F007E061268847B857D657F007E82
:104A7700061268841265174003024B037D667F00A8
:104A87007E061268979002CFE0FBA3E0FAA3E0F955
:104A9700EF1215517B357D607F007E061268847B9F
:104AA700857D657F007E06126884126517504D7DEF
:104AB700667F007E061268979002D2E0FBA3E0FAB9
:104AC700A3E0F9EF1215517B157D607F007E06127A
:104AD70068847B857D657F007E0612688412651772
:104AE700501A7D667F007E061268979002D5E0FB1C
:104AF700A3E0FAA3E0F9EF121551D2019000A6E066
:104B0700C31330E00B7BEB7D607F007E0612688469
:104B1700A20122E49002CEF07B017A0279CF124201
:104B2700499002D5E0FEA3E07802C333CE33CED856
:104B3700F9FF9002DEEEF0A3EFF09002D1E0FCA3C4
:104B4700E0FDA3E0FEA3E0FF123B389002D5E0FEB4
:104B5700A3E07802C333CE33CED8F9FFE4FCFD904F
:104B670002D1E0F8A3E0F9A3E0FAA3E02FFFEA3EC1
:104B7700FEED39FDEC38FC9002D8E09002DEF01231
:104B8700574E9002D5E0FEA3E07802C333CE33CE72
:104B9700D8F9FFE4FCFD9002D1E0F8A3E0F9A3E027
:104BA700FAA3E02FFBEA3EFAED39F9EC38F8900268
:104BB700D8E0FFE4FEEB2FFFEE3AFEED39FDEC38CF
:104BC700FCA3E09002DEF00257BE9002CBEBF0A30D
:104BD700EAF0A3E9F09002CBE0FBA3E0FAA3E0F947
:104BE700900398EBF0A3EAF0A3E9F012164EFFAE9C
:104BF700F07B017A0379A512406B900398E0FBA341
:104C0700E0FAA3E0F9900008121679FFAEF0F4700D
:104C170002EEF460097B017A03798B124516900244
:104C2700CBE0FBA3E0FAA3E0F9900006121679FFA8
:104C3700AEF012641C9002CBE0FBA3E0FAA3E0F90C
:104C4700900004121679FFAEF0124B1A9002CBE0D7
:104C5700FBA3E0FAA3E0F9900002121679FFAEF089
:104C670012696A9002CBE0FBA3E0FAA3E0F91268AD
:104C7700BC7F311201F7BF010312687002695C7DC6
:104C8700D07F007E03126897EF547FFB7DD07F00B3
:104C97007E031260A1EF602890033074FFF0A374C5
:104CA7005BF0A374A3F0A37403F0A374D3F07BFFAA
:104CB7007A5B798B1206857BFF7A5B79BE12068554
:104CC7007B017D9E7F007E031260A1EF6028900329
:104CD7003074FFF0A3745BF0A374A3F0A37403F024
:104CE700A374D5F07BFF7A5B798B1206857BFF7AFD
:104CF7005B79BE120685126942C3EF6480948050C7
:104D07002890033074FFF0A3745BF0A374A3F0A39F
:104D17007403F0A374D7F07BFF7A5B798B12068557
:104D27007BFF7A5B79CF120685E49003EFF0229040
:104D370002E0EBF0A3EAF0A3E9F0E4A3F01247D610
:104D4700EF4E7003024DE09002E0E0FBA3E0FAA310
:104D5700E0F9900009121679FD9002E4E5F0F0A35E
:104D6700EDF07B017A0279E4122AC69002E0E0FBBB
:104D7700A3E0FAA3E0F9900007121679FFAEF090CE
:104D87000002121524FBE4FD12541F9002E3EFF01A
:104D9700FD9002E0E0FBA3E0FAA3E0F99000071220
:104DA7001679FFAEF0900003121524FBC0039002A2
:104DB700E0E0FB9000041215249002F9F090000542
:104DC7001215249002FAF09000061215249002FBA7
:104DD700F0E4A3F0D003125E5722E4FF7B107DA816
:104DE700FE1260A17B807DA9E4FFFE1260A1E4FBB7
:104DF7007DA8FFFE1260A17B807DA9E4FFFE126003
:104E0700A1C3EF64809480502890033074FFF0A30F
:104E1700743DF0A37474F0A37401F0A3747DF07B68
:104E2700FF7A3D795C1206857BFF7A3D79CB1206C6
:104E370085126942C3EF64809480502890033074D0
:104E4700FFF0A3743DF0A37474F0A37401F0A3748E
:104E57007FF07BFF7A3D795C1206857BFF7A3D798F
:104E6700DC1206857DE2E4FFFE126897EF30E40A64
:104E77007B117DE2E4FFFE1268849000A77401F0C5
:104E870022E4FF7B107DA8FE1260A1E4FB7DA9FF51
:104E9700FE1260A17B187DA8E4FFFE1260A1E4FB6F
:104EA7007DA9FFFE1260A1E4FB7DA8FFFE1260A1B1
:104EB700E4FB7DA9FFFE1260A1C3EF6480948050DC
:104EC7002890033074FFF0A3743DF0A37474F0A32B
:104ED7007401F0A3749CF07BFF7A3D795C12068520
:104EE7007BFF7A3D79CB120685126942C3EF648056
:104EF7009480502890033074FFF0A3743DF0A3749E
:104F070074F0A37401F0A3749EF07BFF7A3D795C83
:104F17001206857BFF7A3D79DC120685E49000A7AF
:104F2700F022C0E0C0F0C083C082C0D075D000C0FE
:104F370000C001C002C003C004C005C006C0077599
:104F470014001268FEEF7057C2A81261C98E158F40
:104F57001675140074017E00A814088005C333CEAB
:104F670033CED8F9FFE5155EFEE5165F4E6025E501
:104F77001424FC600D24F8600E14601024FE6011E8
:104F87008012126328800D126657800812605280C3
:104F97000312660C0514E514C3941040B7D2A8D0C9
:104FA70007D006D005D004D003D002D001D000D05E
:104FB700D0D082D083D0F0D0E0329002E7EEF0A3D9
:104FC700EFF0E4FDEF540360249002E7E0FEA3E076
:104FD7007802CEC313CE13D8F97802C333CE33CEBB
:104FE700D8F9FF9002E7EEF0A3EFF080039002E814
:104FF700E02408F09002E7E03400F09002E7A3E035
:10500700FB7DD47F007E031260A19002E7E0FB7D69
:10501700D57F007E031260A1AD07C3EF6480948043
:10502700502890033074FFF0A3745BF0A374A3F0CF
:10503700A37404F0A374EFF07BFF7A5B798B1206FD
:10504700857BFF7A5B79BE12068522787FE4F6D8E6
:10505700FD758134025099024995E493A3F8E493CE
:10506700A34003F68001F208DFF48029E493A3F854
:105077005407240CC8C333C4540F4420C8834004C6
:10508700F456800146F6DFE4800B01020408102085
:105097004080903590E47E019360BCA3FF543F307D
:1050A700E509541FFEE493A360010ECF54C025E029
:1050B70060A840B8E493A3FAE493A3F8E493A3C8E1
:1050C700C582C8CAC583CAF0A3C8C582C8CAC58372
:1050D700CADFE9DEE780BE900037E0900036F09047
:1050E7000038E0900037F0900039E0900038F090F9
:1050F700003AE0900039F090003BE090003AF090E1
:10510700003CE090003BF090003DE090003CF090C8
:10511700003EE090003DF090003FE090003EF090B0
:105127000040E090003FF0900041E0900040F0A385
:10513700EFF0900036E064AA7028FF7E0174362EE7
:10514700F582E43400F583E02FFF0EEEB40BEEEFAB
:10515700B4AA027F55900041E0B507061205261252
:10516700685C229002E71219549002E7E0FCA3A3BF
:10517700A3E0FFE4AB077DD1FF7E031260A190029D
:10518700E7E0FCA3E0FDA3E0FEA3E0FF7808121828
:10519700D4E4AB077DD2FF7E031260A19002E7E063
:1051A700FCA3E0FDA3E0FEA3E0FF78101218D4E40F
:1051B700AB077DD3FF7E031260A1C3EF64809480A9
:1051C700502890033074FFF0A3745BF0A374A3F02E
:1051D700A37404F0A374D1F07BFF7A5B798B12067A
:1051E700857BFF7A5B79BE120685229002E712194A
:1051F700549002E7E0FCA3A3A3E0FFE4AB077D968E
:10520700FF7E031260A19002E7E0FCA3E0FDA3E0AC
:10521700FEA3E0FF78081218D4E4AB077D97FF7E62
:10522700031260A19002E7E0FCA3E0FDA3E0FEA368
:10523700E0FF78101218D4E4AB077D98FF7E0312C5
:1052470060A1C3EF64809480502790033074FFF00F
:10525700A3745BF0A374A3F0A3E4F0A374A5F07B9D
:10526700FF7A5B798B1206857BFF7A5B79BE120624
:1052770085221B5B33326D25733A2564205B5741CA
:10528700524E5D1B5B306D20002E2E5C74775F6C79
:1052970069625C7379735C6765745F65712E63001F
:1052A7006576656E742071756575652066756C6CBD
:1052B7003B2064617461206C6F7374210A0025734D
:1052C7003A256420006576656E743A2562642C2061
:1052D70045513C3C20636E743D2562640A00657647
:1052E700656E743A202562642C2045513E3E20634A
:1052F7006E743D2562640A009002E9ECF0A3EDF0BC
:105307009002E7EEF0A3EFF0E4EFFB7D8C7F007EE9
:10531700031260A19002E7E05407FEA3EEFB7D8D28
:105327007F007E031260A19002E9A3E0FB7D8E7FE0
:10533700007E031260A19002E9E05407FEA3EEFB92
:105347007D8F7F007E031260A1AD07C3EF64809459
:1053570080502890033074FFF0A3745BF0A374A30C
:10536700F0A37401F0A374AEF07BFF7A5B798B1224
:1053770006857BFF7A5B79BE120685220D312E20CA
:10538700206F70656E2070616E656C20424C5545CC
:1053970020202121210A0D001B5B33316D25733A33
:1053A7002564205B4552524F525D1B5B306D2000D8
:1053B7002E2E5C74775F6C69625C7379735C6963CA
:1053C700636F6E74726F6C2E630063715F666C75CA
:1053D700736828290A004E4F205653594E432C20F4
:1053E7004E45454420454E5445522046524545209A
:1053F70052554E20535441545553210D0A00E4FD94
:10540700E0FBA3E0FAA3E0F9900007121679FFAEDC
:10541700F0900002121524FB9002F5EEF0A3EFF0D6
:10542700A3EDF0A3EBF0E4FEA3F090039BE0603E56
:105437007F021201F77E00EFF470077F031201F776
:105447007E00EF25E0FFEE33FE9002F7E0FD9002CD
:10545700F6E02DF09002F5E03400F0C3A3E09F9052
:1054670002F5E09E9002F8E05008A3F08008900251
:10547700F8E0540FA3F09002F9E0FF22C0E0C0F07B
:10548700C083C082C0D075D000C000C001C002C0B8
:1054970003C004C005C006C007C28CE52AF58AE52B
:1054A70029F58CE5302401F530E4352FF52FE43567
:1054B7002EF52EE4352DF52DAF24AE23AD22AC21EC
:1054C700AB30AA2FA92EF8C31218C3400E753000AF
:1054D700752F00752E00752D00D203D28CD007D002
:1054E70006D005D004D003D002D001D000D0D0D050
:1054F70082D083D0F0D0E032C0E0C0F0C083C08259
:10550700C0D075D000C000C001C002C003C004C035
:1055170005C006C007C28EE52CF58BE52BF58DE59A
:10552700342401F534E43533F533E43532F532E428
:105537003531F531AF28AE27AD26AC25AB34AA33CC
:10554700A932F8C31218C3400E75340075330075BD
:105557003200753100D204D28ED007D006D005D0E4
:1055670004D003D002D001D000D0D0D082D083D0D5
:10557700F0D0E0329002E9EEF0A3EFF0E025E0F0A2
:105587009002E9E033F09003EBE0FEA3E0FF900226
:10559700EAE02FF09002E9E03EF0A3E0FB7D887F90
:1055A700007E031260A19002E9E05407FEA3EEFB20
:1055B7007D897F007E031260A1C3EF6480948050D1
:1055C7002890033074FFF0A3745BF0A374A3F0A3D7
:1055D7007401F0A3740EF07BFF7A5B798B1206855A
:1055E7007BFF7A5B79BE12068522EF60031256674E
:1055F7007B807D9E7F007E031260A1EF6028900371
:105607003074FFF0A3745BF0A374A3F0A37403F0EA
:10561700A374BDF07BFF7A5B798B1206857BFF7ADB
:105627005B79BE12068512694BC3EF648094805084
:105637002890033074FFF0A3745BF0A374A3F0A366
:105647007403F0A374BFF07BFF7A5B798B12068536
:105657007BFF7A5B79CF1206859003EF7401F02206
:105667007B997D9E7F007E031268847B987D9E7F59
:10567700007E031260A1EF602890033074FFF0A34F
:10568700745BF0A374A3F0A37403F0A3744CF07BD2
:10569700FF7A5B798B1206857BFF7A5B79BE1206F0
:1056A7008512694BC3EF648094805028900330744F
:1056B700FFF0A3745BF0A374A3F0A37403F0A374C7
:1056C7004EF07BFF7A5B798B1206857BFF7A5B79DD
:1056D700CF120685229000A7E06022126942C3EF2D
:1056E70064809480504A90033074FFF0A3743DF0B7
:1056F700A37474F0A37401F0A374B2802012693903
:10570700C3EF64809480502890033074FFF0A37433
:105717003DF0A37474F0A37401F0A374B5F07BFF9C
:105727007A3D795C1206857BFF7A3D79DC12068526
:105737007DE2E4FFFE126897EF30E40A7B117DE219
:10574700E4FFFE126884229002DA1219549002DEF6
:10575700E0FE6062EED3944040069002DE7440F0B3
:105767009002DAE0FCA3E0FDA3E0FEA3E0FF9003D4
:10577700277402F0A374DFF09002DEE0FB900329A8
:10578700E4F0A3EBF0123C4C90F0A87408F0A3747B
:1057970090F090F0A87409F0E4FF9002DEE0FEEFCD
:1057A700C39E501274DF2FF582E43402F583E09034
:1057B700F0A9F00F80E4229002DA1219549002DE69
:1057C700E0FE6062EED3940640069002DE7406F0B7
:1057D7009002DAE0FCA3E0FDA3E0FEA3E0FF900364
:1057E700277402F0A374DFF09002DEE0FB90032938
:1057F700E4F0A3EBF0123C4C90F0A87408F0A3740B
:1058070098F090F0A87409F0E4FF9002DEE0FEEF54
:10581700C39E501274DF2FF582E43402F583E090C3
:10582700F0A9F00F80E4229002DFEFF0A3EDF0A3E0
:10583700EBF09002FE7403F07B017D9DE4FF1230D4
:105847002C9002DFE0FF125FAC9002E0E0FF125FF6
:10585700AC9002E1E0FF125FAC7B877D91E4FFFE35
:105867001260A17DE2E4FFFE126897EF4412FB7D10
:10587700C2E4FFFE1260A1E4FF125F571248C27D27
:10588700E2E4FFFE126897EF30E40A7B117DE2E461
:10589700FFFE126884229002D7EBF0A3EAF0A3E997
:1058A700F090007AE0C39408402790033074FFF02B
:1058B700A37452F0A37490F0A3E4F0A37426F07BD2
:1058C700FF7A5279791206857BFF7A5279A7020609
:1058D7008590007AE0FFA3E02F540775F007A42412
:1058E70042F9740035F0A801FC7D019002D7E0FB76
:1058F700A3E0FAA3E0F97E007F071214C390007AB1
:10590700E004F0229002DEEBF0A3EAF0A3E9F090C6
:1059170002DEE0FBA3E0FAA3E0F9900003121524EE
:10592700FF900004121524FD900005121524FBC0FA
:10593700039002DEE0FB9000061215249002EDF0C2
:10594700900398E0FBA3E0FAA3E0F990000E12168B
:1059570079FB9002EEE5F0F0A3EBF0900398E0FB03
:10596700A3A390000C1215249002F0F0D00302605C
:10597700ED9002E9EEF0A3EFF09003EDE0FEA3E077
:10598700FF9002EAE02FF09002E9E03EF0A3E0FB8F
:105997007D8A7F007E031260A19002E9E05407FE32
:1059A700A3EEFB7D8B7F007E031260A1C3EF6480B3
:1059B7009480502890033074FFF0A3745BF0A374B5
:1059C700A3F0A37401F0A37426F07BFF7A5B798BB5
:1059D7001206857BFF7A5B79BE120685229002CB81
:1059E700EFF0A3EDF09002CBE025E025E0540CF0BA
:1059F700ED5403A3F0E4FB7DA8FFFE1260A1900223
:105A0700CBE04480FFA3E04FFB7DA9E4FFFE1260DB
:105A1700A1C3EF64809480502890033074FFF0A3F3
:105A2700743DF0A37474F0A37401F0A374D2F07BF7
:105A3700FF7A3D795C1206857BFF7A3D79CB1206AA
:105A4700850256DCE49002E1F0A3F0A3F09002DFB8
:105A5700F0A3F09002DDF0A3F0AB057D04126749D7
:105A67001248C2C3EF64809480502790033074FFBC
:105A7700F0A37453F0A374B7F0A3E4F0A37474F025
:105A87007BFF7A53799F1206857BFF7A5379D11270
:105A970006857DE2E4FFFE126897EF30E40A7B118A
:105AA7007DE2E4FFFE12688422E490032BF0A3F06A
:105AB70090032BE0FEA3E0FFE4FCFD7BFF7AFFF9F8
:105AC700F8D31218AD403C7D127F007E061268970E
:105AD700EF30E6187D127F007E06126897EF44408C
:105AE700FB7D127F007E06126884D3227F037E002F
:105AF70012680890032CE004F070B590032BE004C3
