S31508000000580400209D010008F70B00089F0B000804
S31508000010F50B00088D030008B90D00080000000064
S315080000200000000000000000000000009D0C000811
S315080000303508000800000000610C0008590D00088A
S31508000040B7010008B7010008B7010008B7010008A2
S31508000050B7010008B7010008B7010008B701000892
S31508000060B7010008B7010008B7010008B701000882
S31508000070B7010008B7010008B7010008B701000872
S31508000080B7010008B7010008B7010008B701000862
S3150800009081040008B7010008B7010008B701000885
S315080000A0B7010008B7010008B7010008B701000842
S315080000B0B7010008B7010008B7010008B701000832
S315080000C0B7010008B7010008B7010008B701000822
S315080000D0B7010008B7010008B7010008B701000812
S315080000E0B7010008B7010008B7010008B701000802
S315080000F0B7010008B7010008B7010008B7010008F2
S31508000100B7010008B7010008B7010008B7010008E1
S31508000110B7010008B7010008B7010008B7010008D1
S31508000120B7010008B7010008B7010008B7010008C1
S31508000130B7010008B7010008B7010008B7010008B1
S31508000140B7010008B7010008B7010008B7010008A1
S31508000150B7010008B7010008B7010008B701000891
S31508000160B7010008B7010008B7010008B701000881
S31508000170B7010008B7010008B7010008B701000871
S31508000180B7010008B7010008DFF80CD000F018F82E
S3150800019000480047E90D0008580400200648804733
S315080001A006480047FEE7FEE7FEE7FEE7FEE7FEE74E
S315080001B0FEE7FEE7FEE7FEE75D0D00088901000899
S315080001C0064C074D06E0E06840F0010394E8070096
S315080001D098471034AC42F6D3FFF7DAFF4C0E000806
S315080001E06C0E000808B5002015230722062100908A
S315080001F000F0CEF808BD00002DE9F0415A4D5B4EDF
S31508000200002429785A4F05F10800072921D2DFE88A
S3150800021001F02004304B778A970000217B18425C56
S31508000220DA72491CC9B20829F8D35149304600F098
S31508000230A6FA5049504800F055FB022258B1002052
S31508000240FF213B18D972401CC0B20828F9D3FA72AC
S315080002502C70BDE8F08100217818C472491CC9B217
S315080002600829F9D3FA724249304600F088FA2C7008
S31508000270EFE7C1798279037901EB02214279120409
S3150800028002EB03621144696000217B18425CDA7252
S31508000290491CC9B20829F8D30420F87234493046F3
S315080002A000F06DFA2C70D4E7334A6968304F524231
S315080002B0324B0A4414379A420CD300217818C47278
S315080002C0491CC9B20829F9D329493046143100F026
S315080002D056FA13E00CC8084600F082FB002168684D
S315080002E07B1810F8012BDA726860491CC9B2082914
S315080002F0F5D31F493046143100F041FA2C70A8E7AF
S3150800030000217B18425CDA72491CC9B20829F8D365
S315080003101749304600F033FA16481949C01E00F04E
S315080003206DFB00F06DFBBFF34F8F16480168164A48
S3150800033001F4E06111430160BFF34F8F00BFFDE791
S315080003400620F87205213973302179735121B97362
S31508000350FC731921397403217974B8740449304639
S3150800036000F00DFA2C7074E70800002000640040C5
S3150800037018000020FFFF0F0800000208FFFF0D000D
S31508000380785634120CED00E00400FA05FEE700008A
S315080003902DE9F04F8BB08046894692469B4601214F
S315080003A0022000F05FFC0121480600F069FC4FF4CA
S315080003B04070099002208DF8280001258DF82A50F2
S315080003C003268DF8296000248DF82B402A4F09A9A9
S315080003D0384600F096FB09220821384600F0CFFB84
S315080003E009221146384600F0CAFB8DF81E408DF8E2
S315080003F01F408DF820408DF821508DF822408DF849
S315080004002340149F8DF81A708DF81B808DF81CA058
S315080004108DF81D90ADF818B0184F06A9384600F0AB
S31508000420EBF88DF812408DF813408DF81450ADF89E
S315080004300840ADF80A40ADF80C40ADF80E40ADF8EE
S3150800044010408DF8155002A800F062F814208DF8B7
S3150800045004008DF805608DF806608DF8075001A830
S3150800046000F0CAFB01220221384600F0BBF80BB0A7
S315080004700020BDE8F08F0000000402400064004040
S3150800048010B5204A0021204800F038F91D49087A9D
S31508000490A0B91E4B086803F10802B0F5A66F14D080
S315080004A0A0F5A064313C09D100200C18E47A145454
S315080004B0401CC0B20828F8D30320187012480C3024
S315080004C0016841F02001016010BD00200C18E47A93
S315080004D01454401CC0B20828F8D3107801280AD052
S315080004E003280BD0042803D00628E7D11870E5E7BF
S315080004F002201870E2E701201870DFE70420187060
S31508000500DCE70000400000200064004008000020EE
S31508000510F0B5827A01219140304C226842F00102FE
S3150800052022602E4D1C352A688A432A602B4A067B90
S315080005300C322B4B002E14D116688E431660468853
S31508000540C78846EA0746877A03EBC707C7F84066AF
S315080005500688878846EA0746877A03EBC707C7F8F7
S315080005604466067B012E14D116680E43166042882F
S31508000570068842EA0642867A03EBC606C6F840268D
S31508000580C288868842EA0642867A03EBC603C3F81F
S315080005904426124AC37A121D3BB113680B431360F3
S315080005A00E4A0389143223B106E013688B4313609D
S315080005B0F6E713688B4313600389012B02D113688E
S315080005C00B431360407B012802D128680843286042
S315080005D0206820F001002060F0BD000000660040A1
S315080005E000600040002A03D042690A43426170470E
S315080005F042698A434261704710B50022036823F0B6
S3150800060002030360036843F0010303604FF6FF73B8
S3150800061000E0521C4468E40701D19A42F9D14268C5
S31508000620D2073ED08A79012A3DD0026822F080029C
S315080006300260CA79012A3BD0026822F040020260B1
S315080006400A7A012A39D0026822F0200202604A7A20
S31508000650012A37D0026822F0100202608A7A012A3B
S3150800066035D0026822F008020260CA7A012A33D01D
S31508000670026822F0040202608A78CC78920742EA7D
S3150800068004620C7942EA04424C79098842EA045227
S31508000690491E0A43C261016821F001010160002177
S315080006A020E0002010BD026842F080020260C0E728
S315080006B0026842F040020260C2E7026842F0200285
S315080006C00260C4E7026842F010020260C6E70268E8
S315080006D042F008020260C8E7026842F004020260BB
S315080006E0CAE7491C4268D20701D09942F9D1406845
S315080006F0C00701D0002010BD012010BD10B500EBC9
S315080007000113D3F8B04104F004041472002C2CD061
S31508000710D3F8B041E408546003F5D8731C6804F0B4
S31508000720020454725C6804F00F0494725C68240A2C
S31508000730D4749C68D4729C68240A14739C68240C2C
S3150800074054739C68240E9473DC68D473DC68240A9A
S315080007501474DC68240C5474DB681B0E937449B15A
S31508000760016941F02001016110BDD3F8B041640D63
S315080007701460D1E7C16841F02001C16010BD30B5F1
S315080007800246002093685B010AD49068000101D5EF
S31508000790012005E09068C00001D5022000E0042091
S315080007A004283BD002EB0012D2F8803103F0010393
S315080007B0C2F880310B7A93B3D2F880414D681C4356
S315080007C04B7A43EAC5031C43C2F880418B7A03F08F
S315080007D00F038B7202F5C072536823F00F03536040
S315080007E053688C7A23435360CB7A8C7B0D7B43EA20
S315080007F004634C7B240444EA052423439360CB7B9F
S315080008008C7C43EA04634C7C097C240444EA012179
S315080008100B43D360116841F00101116030BDFFE759
S31508000820D2F880314C7A23430C8843EA4453C2F801
S315080008308031CBE77047000070B5064600250029D1
S3150800084005D0012927D0022928D04FF4407500F099
S3150800085047F909281ED1134C206820F440702060FF
S31508000860206828432060206820F0F800206020686F
S3150800087046F0020108432060206840F4803020607A
S3150800088000F02EF9216821F002012160216821F08B
S31508000890F801216070BD4FF48075D8E74FF40075F4
S315080008A0D5E70000103C024009200D490A68D2032A
S315080008B001D5012070470A68D20601D5062070477F
S315080008C00A68D20501D5022070470A6812F0E00FBF
S315080008D001D00720704709688907FBD508207047AB
S315080008E00C3C024070B50D46092600F01BF804467C
S315080008F0284600F017F8054605E002212046FFF7CE
S315080009009BFF06460834092E01D1AC42F5D90835B5
S31508000910AC4201D1092E01D0012070BD002070BD66
S3150800092000F0CCB801460020A1F100624FF48043E4
S315080009309A4204D320480844984201D208207047B6
S315080009401E480844984201D2102070471C480844A3
S31508000950984201D2182070471A480844B0F5803FDB
S3150800096001D22020704718484FF4003208449042BC
S3150800097001D22820704715480844904201D23020F9
S31508000980704713480844904201D2382070471148EE
S315080009900844904201D2402070470F4808449042CC
S315080009A001D2482070470D480844904201D2502091
S315080009B0704758207047000000C0FFF70080FFF717
S315080009C00040FFF70000FFF70000FEF70000FCF705
S315080009D00000FAF70000F8F70000F6F70000F4F751
S315080009E070B51C46054613461946284600F006F813
S315080009F02146281D00F002F8092070BD00F040B815
S31508000A000248016841F0004101607047103C02400D
S31508000A1004490A7822F00C020A700A7802430A701E
S31508000A2070470000143C02400248007800F00C00B1
S31508000A3070470000143C02400348017841F0020167
S31508000A40017000F04DB80000143C024002480168ED
S31508000A5041F0010101607047143C024005480068F6
S31508000A60C00705D0034804490C38016003490160F2
S31508000A7070470000143C02403B2A19087F6E5D4C03
S31508000A8070B505460E4600F02BF8092813D10A4C16
S31508000A90206820F440702060206840F400702060D0
S31508000AA0206840F0010020602E6000F019F82168E7
S31508000AB021F00101216070BD103C02400548006824
S31508000AC0002805DA034804490C3801600349016027
S31508000AD070470000103C024023016745AB89EFCD03
S31508000AE008B509200090FFF7DFFE009002E0FFF747
S31508000AF0DBFE00909DF800000128F8D09DF8000064
S31508000B0008BD2DE9F041002201274FF0030C07FA32
S31508000B1002F50B682B40AB422CD1066853000CFA41
S31508000B2003F4A64306600E79D0F800809E4046EA94
S31508000B30080606600E79012E01D0022E12D18668AB
S31508000B40A64386604E79D0F808809E4046EA080695
S31508000B5086604668AE43466045688E799640B6B26A
S31508000B6035434560C568A543C560CC799C40C368D4
S31508000B701C43C460521C102AC9D3BDE8F08110B5C5
S31508000B804B07DB0E9A40C90800EB8100016A0F2467
S31508000B909C40A1430162016A1143016210BDFEE750
S31508000BA030B4124A0021117251720824947240F22C
S31508000BB02E50106000201318D972401CC0B20828A5
S31508000BC0F9D30A4A143211725172947240F22F50B4
S31508000BD0106000201318D972401CC0B20828F9D337
S31508000BE030BC02490248FFF7CABD000018000020C1
S31508000BF000640040FEE7704730B50F23C278012530
S31508000C000178002A1FD0154A126802F4E062C2F57C
S31508000C10E062C2F30722C2F10404D3404278A2403C
S31508000C2084781C401443220101F1E02181F8002454
S31508000C30007800F01F018D404009800000F1E02097
S31508000C40C0F8005130BD01F01F00854048098000FA
S31508000C5000F1E020C0F8805130BD00000CED00E046
S31508000C6070470000054A002903D011680143116046
S31508000C7070471168814311607047000030380240A0
S31508000C80054A002903D011680143116070471168AD
S31508000C9081431160704700004038024070470000E9
S31508000CA00CB50022019200922749086840F480306A
S31508000CB008604FF4A043086800F4003000900198DB
S31508000CC0401C0190009810B901989842F3D1086821
S31508000CD0800302D50120009000E0009200980128C8
S31508000CE031D119484030026842F0805202601748F4
S31508000CF0026842F440420260134808300268026003
S31508000D00026842F400420260026842F4A05202609D
S31508000D10021F0F4B13600A6842F080720A600A6865
S31508000D209201FCD50B4A40F205711160016821F069
S31508000D3003010160016841F0020101600168C1F325
S31508000D4081010229FAD10CBD00380240007000402A
S31508000D5008544007003C02407047000010B512488E
S31508000D60016841F4700101601048016841F0010111
S31508000D7001600E4A00210832116002680C4B1A40C5
S31508000D800260031D0B4A1A60026822F48022026080
S31508000D9006480C300160FFF783FF03494FF00060F7
S31508000DA08039086010BD000088ED00E00038024078
S31508000DB0FFFFF6FE10300024FEE702E008C8121F07
S31508000DC008C1002AFAD170477047002001E001C126
S31508000DD0121F002AFBD1704710B5FFF703FABDE8CA
S31508000DE01040FFF7DDBE000013490868134A10409B
S31508000DF0B0F1005F0CD112480068124A904207D140
S31508000E004868114A50601060096881F3088880476D
S31508000E10FFF7E2FFFFF784FDFFF706FE40B1FFF795
S31508000E201DFE0020FFF7F4FDFFF706FEFFF70EFE96
S31508000E30FFF7E2F9FCE70000000002080000FE2FB9
S31508000E40FCFF0F0878563412000000206C0E0008CC
S31508000E500000002018000000BA0D0008840E0008E3
S31508000E601800002040040000CA0D00080000000019
S31508000E700000000000000000000000000000000064
S30908000E800000000060
S309080FFFFC78563412D0
