S3150800000098980020A10100089513000875120008A9
S315080000109113000881050008014E00080000000041
S31508000020000000000000000000000000CD140008D9
S31508000030AD0C00080000000049140008BD150008B2
S31508000040BB010008BB010008BB010008BB01000892
S31508000050BB010008BB010008BB010008B10C000881
S31508000060BB010008BB010008D10C0008BB01000851
S31508000070BB010008BB010008BB010008BB01000862
S31508000080BB010008BB010008BB010008BB01000852
S3150800009085060008BB010008BB010008BB01000873
S315080000A0BB010008BB010008BB010008BB01000832
S315080000B01D160008BB010008BB010008BB010008AB
S315080000C0BB010008BB010008BB010008BB01000812
S315080000D0BB010008BB010008BB010008BB01000802
S315080000E0BB010008BB010008BB010008BB010008F2
S315080000F0BB010008BB010008BB010008BB010008E2
S31508000100BB010008BB010008BB010008BB010008D1
S31508000110BB010008BB010008BB010008BB010008C1
S31508000120BB010008BB010008BB010008BB010008B1
S31508000130BB010008BB010008BB010008BB010008A1
S31508000140B9060008BB010008BB01000839140008FD
S31508000150BB010008BB010008BB010008BB01000881
S31508000160BB010008BB010008BB010008BB01000871
S31508000170BB010008BB010008BB010008BB01000861
S31508000180BB010008BB010008DFF810D000F01AF820
S315080001900048004719590008AFF3008098980020D6
S315080001A00648804706480047FEE7FEE7FEE7FEE703
S315080001B0FEE7FEE7FEE7FEE7FEE7FEE7C1150008F5
S315080001C089010008064C074D06E0E06840F0010387
S315080001D094E8070098471034AC42F6D3FFF7D8FFE7
S315080001E0345B0008545B000870B505460C460848A1
S315080001F00560204600F014F800BF0548006800288E
S31508000200FBD100214FF0804001F01BFA70BD0000C1
S315080002103400002010B501F063F801F075F810BD40
S315080002203EB5044600214FF0804001F00AFA00224C
S315080002300121880701F022FA022C02D10B20019035
S3150800024004E0012C02D142F6DF6001900520ADF8EA
S3150800025000000020ADF80800ADF8020069464FF02E
S31508000260804001F015FA0121880701F0E7F901211C
S31508000270880701F0D7F901221146900701F0FEF927
S315080002800121880701F0DDF93EBD38B505460C4663
S31508000290ADB9FA2C08D100200C230A2201210090BE
S315080002A0084600F06FF91FE07D2C1DD100201523AC
S315080002B00C2201210090084600F064F914E0FA2C9B
S315080002C008D100200C230A2201210090084600F0DC
S315080002D0EFF909E07D2C07D1002015230C22012116
S315080002E00090084600F0E4F938BD0000204805688B
S315080002F000260024411E1F4800F06EFD00BF09E0DD
S315080003001B4A02EB840251681A4A02EB840000F089
S31508000310E7FD641CB4EB950FF2D305F0030585B130
S31508000320134800EB8400466805F00305E900012040
S315080003308840401E06400F4901EB8400314600F014
S31508000340CFFD0D490A48001F00F0CAFD00BFBFF3E4
S315080003504F8F0A48006800F4E06009490843001D09
S3150800036006490860BFF34F8F00BF00BFFEE70000D5
S315080003700000040800000208785634120CED00E06C
S315080003800000FA0570B573480078072805D2DFE83B
S3150800039000F004053E639DB2C300D9E0002405E0E1
S315080003A06D48015D6D480155601CC4B2082CF7DB29
S315080003B06A490B396A4800F024FB6A496A4800F022
S315080003C00BFD98B9002404E0002164480155601C1F
S315080003D0C4B2082CF8DB022060490B39C8726048A1
S315080003E000F00FFB00205B490870B1E0002404E030
S315080003F0FF215A480155601CC4B2082CF8DB0220BC
S3150800040056490B39C872002052490870A0E0524874
S31508000410C0795149897900EB01204F49497900EBA8
S3150800042001404D49097900EB0160504908600024F4
S3150800043005E04948015D49480155601CC4B2082CCD
S31508000440F7DB042045490B39C872454800F0D9FA4C
S315080004500020404908707BE04448006842498842C9
S3150800046004D3424800683F4988420ED3002404E07A
S3150800047000213F480155601CC4B2082CF8DB3C49F2
S315080004800B39374800F0BDFA1CE03348D0E9005371
S315080004902A463648006800F015FD00240BE033486C
S315080004A0006801783248015530480068401C2F49D9
S315080004B00860601CC4B2082CF1DB2D490B392848AA
S315080004C000F09FFA00202349087041E0002405E067
S315080004D02148015D21480155601CC4B2082CF7DB90
S315080004E01E490B391E4800F08CFA22491D48C01EC9
S315080004F000F0F6FC00BF00BFBFF34F8F1E48006830
S3150800050000F4E0601D490843001D1B490860BFF35D
S315080005104F8F00BF00BFFEE7062010490B39C8728F
S3150800052005210E480B38017330214173212181734F
S315080005300021C1731621017412214174212181748D
S315080005400146074800F05DFA00200249087000BF1E
S3150800055000BF70BD940000209C000020CB8D0020B9
S3150800056000640040FFFF030800000208980000200E
S31508000570DF8D0020785634120CED00E00000FA05F5
S3150800058000BFFEE72DE9F0418AB004460D4616463F
S315080005901F46DDF840800121022000F057FF0121A7
S315080005A0480600F073FF4FF44070089002208DF85B
S315080005B0240001208DF8260003208DF82500002050
S315080005C08DF8270008A92D4800F02BFD09220821DF
S315080005D02A4800F06EFD09221146284800F069FDF8
S315080005E000208DF81A008DF81B008DF81C000120DC
S315080005F08DF81D0000208DF81E008DF81F008DF85F
S3150800060016808DF817408DF818608DF81950ADF8DA
S31508000610147005A91A4800F0F2F800208DF80E00AB
S315080006208DF80F0001208DF810000020ADF80400A9
S31508000630ADF80600ADF80800ADF80A00ADF80C00F4
S3150800064001208DF8110001A800F04CF814208DF84F
S31508000650000003208DF801008DF8020001208DF8B6
S315080006600300684600F098FE01220221044800F0C3
S31508000670BDF800200AB0BDE8F08100000004024081
S315080006800064004010B5084A0021084800F041F906
S3150800069000F0A4FD05480C30006840F0200003492E
S315080006A00C31086010BD0000E88D00200064004091
S315080006B030B50546039C30BD10B5084A00210848E8
S315080006C000F027F900F08AFD05480C30006840F074
S315080006D0200003490C31086010BD0000E88D002099
S315080006E00068004010B50021837A012202FA03F15E
S315080006F03D4A126842F001023B4B1A603A4A1C32E4
S3150800070012688A43384B1C331A60027BCAB9364AC8
S315080007100C3212688A43344B0C331A604288C388F9
S3150800072042EA0343304A4032847A42F83430028837
S31508000730838842EA03432C4A4032847A02EBC40295
S315080007405360027B012A19D1274A0C3212680A43E0
S31508000750254B0C331A604288038842EA0343224A2F
S315080007604032847A42F83430C288838842EA0343A6
S315080007701D4A4032847A02EBC4025360C27A3AB9FF
S31508000780194A121D12688A43174B1B1D1A6006E088
S31508000790154A121D12680A43134B1B1D1A6002895B
S315080007A032B9114A143212688A430F4B14331A604D
S315080007B00289012A06D10C4A143212680A430A4BE6
S315080007C014331A60427B012A06D1074A1C32126882
S315080007D00A43054B1C331A60034A126822F00102C9
S315080007E0014B1A6010BD0000006600401AB143694B
S315080007F00B43436102E043698B434361704730B55D
S31508000800024600200023146824F0020414601468C9
S3150800081044F00104146000E05B1C546804F0010411
S315080008201CB94FF6FF74A342F6D1546804F00104CC
S315080008300CB900206CE08C79012C04D1146844F0C2
S315080008408004146003E0146824F080041460CC79F2
S31508000850012C04D1146844F04004146003E01468C1
S3150800086024F0400414600C7A012C04D1146844F076
S315080008702004146003E0146824F0200414604C7A01
S31508000880012C04D1146844F01004146003E01468C1
S3150800089024F0100414608C7A012C04D1146844F0F6
S315080008A00804146003E0146824F008041460CC7A81
S315080008B0012C04D1146844F00404146003E014689D
S315080008C024F0040414608C78A407CD7844EA0564FF
S315080008D00D7944EA05444D7944EA05540D886D1EA0
S315080008E02C43D461146824F001041460002300E04A
S315080008F05B1C546804F001041CB14FF6FF74A34254
S31508000900F6D1546804F001040CB1002000E001207F
S3150800091030BD10B500F5D87303EB01131B6803F05F
S3150800092004031372137A53B900F5D87303EB011352
S315080009301B6840F2FF7404EA5353136009E000F59C
S31508000940D87303EB01131B686FF0604404EAD30302
S31508000950536000F5D87303EB01131B6803F0020319
S31508000960537200F5D87303EB01135B6803F00F03AA
S31508000970937200F5D87303EB01135B681B0AD374F3
S3150800098000F5D87303EB01139B68D37200F5D8738F
S3150800099003EB01139B681C0A147300F5D87303EB69
S315080009A001139B681C0C547300F5D87303EB0113F1
S315080009B09B681B0E937300F5D87303EB0113DB6872
S315080009C0D37300F5D87303EB0113DB681C0A1474A0
S315080009D000F5D87303EB0113DB681C0C547400F59F
S315080009E0D87303EB0113DB681B0E937421B9C36834
S315080009F043F02003C36003E0036943F02003036167
S31508000A0010BD10B502460020936803F08063B3F169
S31508000A10806F00D110E0936803F00063B3F1006FB4
S31508000A2001D1012008E0936803F08053B3F1805F99
S31508000A3001D1022000E00420042874D002F5C07316
S31508000A4003EB00131B6803F0010402F5C07303EB04
S31508000A5000131C600B7A7BB94B7A0C8843EA445323
S31508000A6002F5C07404EB00142468234302F5C0742D
S31508000A7004EB0014236010E00B7A4C6843EAC403C5
S31508000A804C7A234302F5C07404EB0014246823430C
S31508000A9002F5C07404EB001423608B7A03F00F038D
S31508000AA08B7202F5C07303EB00135B6823F00F0427
S31508000AB002F5C07303EB00135C6002F5C07303EB29
S31508000AC000135B688C7A234302F5C07404EB0014A8
S31508000AD063608B7B1C064B7B44EA03440B7B44EA2E
S31508000AE00323CC7A234302F5C07404EB0014A360F5
S31508000AF08B7C1C064B7C44EA03440B7C44EA0323A8
S31508000B00CC7B234302F5C07404EB0014E36002F5C2
S31508000B10C07303EB00131B6843F0010402F5C073AE
S31508000B2003EB00131C6010BD10B5002401220FA1B1
S31508000B30114804F0BFFBB0B90F48C0680F49884296
S31508000B400ED8012000F00CFC002000F0FFFB0C4939
S31508000B500C4800F041F918B900F02CF800B101244E
S31508000B60054804F06DFB204610BD0000303A696D5B
S31508000B706167652E42494E00708B0020FCFF01001C
S31508000B80FFFF03080000020800BFBFF34F8F0748A6
S31508000B90006800F4E06006490843001D0349086040
S31508000BA0BFF34F8F00BF00BFFEE700000CED00E06B
S31508000BB00000FA057CB5002001900125314832492C
S31508000BC0086032483249086043E0002403E0FF2009
S31508000BD02C490855641CB4F5004FF8D36B464FF4FE
S31508000BE0004228492B4804F0A9FBBDF800002A4911
S31508000BF0086008460068B0F5004F00D20025264870
S31508000C00006801901AE02549019808601E4A126892
S31508000C10019BD21A204B1B68D1581D4A12681F4BDC
S31508000C201B68D21A1C4B1B68D01800F059F9082803
S31508000C3001D000207CBD0198001F01900198002872
S31508000C40E1DC13480068144909680844104908603B
S31508000C5000BF012D04D1124800F0A5FA0128B4D02E
S31508000C600F4800F0A0FA012801D00020E2E70D495C
S31508000C700D4800F035F9082801D00020DAE70120F0
S31508000C80D8E70000FC000020080000200000020849
S31508000C900C000020708B00200400002000000020BB
S31508000CA0FC80002078563412FCFF030870470000C9
S31508000CB010B5022000F014F838B10449D1F88010B4
S31508000CC048698047022000F005F810BDA886002074
S31508000CD0704700000149086070470000143C014055
S31508000CE0014600200022074B1B6803EA0102054B58
S31508000CF014331B680B4013B10AB1012000E0002031
S31508000D0070470000003C014070B504460A460026BC
S31508000D10082502B909E0012A01D1160205E0022ACE
S31508000D2001D1160201E04FF4407600F061F905465C
S31508000D30082D28D11548006820F44070134908602A
S31508000D4008460068304308600846006820F0F80046
S31508000D5008600846006844F0020108430B49086029
S31508000D600846006840F48030086000F041F90546FE
S31508000D700648006820F00200044908600846006832
S31508000D8020F0F8000860284670BD0000103C0240BC
S31508000D9008201049096801F48031B1F5803F01D176
S31508000DA0012015E00B49096801F0100109B1052079
S31508000DB00EE00849096801F0EF0109B1062007E0CD
S31508000DC00449096801F0020109B1072000E008207A
S31508000DD0704700000C3C02402DE9F04180460D4664
S31508000DE000260827404600F023F80446284600F067
S31508000DF01FF8064608E0012000F0BCFA022120464A
S31508000E00FFF782FF07460834082F01D1B442F2D90A
S31508000E1006F10800844201D1082F02D00120BDE85E
S31508000E20F0810020FBE710B500F0D0F810BD0000F7
S31508000E30014600201C4A914203D2B1F1006F00D34B
S31508000E4030E01A4A914204D2174A914201D3082047
S31508000E5028E0174A914204D2144A914201D310203D
S31508000E6020E0144A914204D2114A914201D3182033
S31508000E7018E0114A914204D20E4A914201D3202029
S31508000E8010E00E4A914204D20B4A914201D328201F
S31508000E9008E00B4A914204D2084A914201D3302015
S31508000EA000E0382070470000004000080080000875
S31508000EB000C000080000010800000208000004083D
S31508000EC00000060870B5064614461D4621463046FB
S31508000ED000F006F82946301D00F002F8082070BD1B
S31508000EE070B504460D4608262946204600F046F801
S31508000EF00646304670BD00000549097821F00C0108
S31508000F00034A1170114609780143117070470000B1
S31508000F10143C02400248007800F00C0070470000BC
S31508000F20143C024000B508220548007840F002004B
S31508000F300349087000F05CF80246104600BD000040
S31508000F40143C02400348006840F00100014908606B
S31508000F5070470000143C02400548006800F0010094
S31508000F6028B1044802490C390860034808607047EC
S31508000F70143C02403B2A19087F6E5D4C30B5024688
S31508000F800C46082500F034F80546082D19D10E48F8
S31508000F90006820F440700C4908600846006840F470
S31508000FA0007008600846006840F001000860146098
S31508000FB000F01EF805460448006820F001000249C2
S31508000FC00860284630BD0000103C0240054800680D
S31508000FD000F0004028B1044802490C39086003486B
S31508000FE008607047103C024023016745AB89EFCD86
S31508000FF008B508200090FFF7CBFE009002E0FFF747
S31508001000C7FE00909DF800000128F8D09DF8000062
S3150800101008BD10B5002000F0A3F9012000F096F9EC
S3150800102010BDF0B50A4600210023002400BF3DE0AC
S31508001030012505FA01F3156805EA03049C4234D133
S3150800104005684F000326BE40B543056015794E0076
S31508001050B5400668354305601579012D02D0157926
S31508001060022D16D185684F000326BE40B54385601C
S3150800107055794E00B5408668354385604568012632
S315080010808E40B5434560456896798E40B6B235437D
S315080010904560C5684F000326BE40B543C560D5798F
S315080010A04E00B540C6683543C560491C1029BFD3F4
S315080010B0F0BDF0B5002300244D07ED0E02FA05F346
S315080010C0CE1000F1200555F826504E07F70E0F26CC
S315080010D0BE40B543CF1000F1200646F82750CE1083
S315080010E000F1200555F8265045EA0304CE1000F114
S315080010F0200545F82640F0BD0246002013690B403E
S315080011000BB1012000E0002070474183704701833E
S31508001110704701464869806880B2704708B501463D
S31508001120D1F8CC00006800900098C0F3414008BD93
S31508001130024602F29B30405C7047024602F5547044
S3150800114050F82100704770B504460E460025002168
S31508001150C4F8101300BF0BE0002104F5457040F8F1
S3150800116025103C3040F825103C304155681CC5B266
S315080011700F2DF1DB0821A4F8B2133146204602F000
S31508001180A7FE204602F0AEFA204602F075F90121C4
S31508001190204602F005FF204602F001FA204602F03A
S315080011A0FAFA002070BD0146D1F81003704710B551
S315080011B00446204602F06BFE002010BD70B50446BA
S315080011C00D46002104F29B304155113000EB4510C5
S315080011D041612946204602F009FD70BD2249097A77
S315080011E000293FD120490968B1F5A66F26D100200C
S315080011F006E01D490B31095C1C4A1154411CC8B252
S315080012000828F6DB1949097801290ED0032910D0D8
S31508001210042902D0062910D103E00221144A1170CC
S315080012200BE00621124A117007E00121104A1170DD
S3150800123003E004210E4A117000BF13E00A49096849
S3150800124040F2315291420DD1002006E006490B3199
S31508001250095C064A1154411CC8B20828F6DB03216A
S31508001260034A117070470000E88D00209C0000209A
S315080012709400002000BFFEE70021134A1172517244
S315080012800821917240F22E511160002005E00022DB
S315080012900D490B310A54411CC8B20828F7DB002156
S315080012A00A4A117251720821917240F22F51116047
S315080012B0002005E0002205490B310A54411CC8B23A
S315080012C00828F7DB70470000C08D0020D48D002069
S315080012D010B501210148FFF70FFF10BD00100240AD
S315080012E01CB50121102000F0B1F800208DF804008B
S315080012F001208DF80700009069460248FFF791FE25
S315080013001CBD0000001002401CB50121022000F09F
S315080013109DF84FF4C040009001208DF8040000208D
S315080013208DF8060002208DF807008DF8050069463D
S315080013300548FFF776FE4FF4005003491A31088036
S31508001340400008801CBD000000040240024931F834
S315080013501010024A11807047305B00081A040240D8
S31508001360024931F81010024A11807047305B0008B4
S315080013701804024004490968044A32F8102051400A
S31508001380014A11607047000014040240305B0008EF
S3150800139000BFFEE77047000070B5002100230F224A
S315080013A0C4781CB3174C246804F4E064C4F5E064FC
S315080013B0C4F30721C1F10404E3B20A4144789C400E
S315080013C0E1B28478144021430C07210E0E4C0578AF
S315080013D06155047804F01F050124AC4005786D11A9
S315080013E0AD0005F1E025C5F8004109E0047804F0F0
S315080013F01F050124AC40054D0678761145F82640B0
S3150800140070BD00000CED00E000E400E080E100E0C3
S3150800141002490143024A1160704700000000FA05BC
S315080014200CED00E0024A0A400243024B1A6070477C
S3150800143080FFFF1F08ED00E010B5024801F01AFC16
S3150800144010BD0000FC8000207047000029B1064A44
S3150800145012680243044B1A6004E0034A1268824386
S31508001460014B1A60704700003038024029B1064A1D
S3150800147012680243044B1A6004E0034A1268824366
S31508001480014B1A60704700003438024029B1064AF9
S3150800149012680243044B1A6004E0034A1268824346
S315080014A0014B1A60704700004038024029B1064ACD
S315080014B012680243044B1A6004E0034A1268824326
S315080014C0014B1A607047000044380240704700001C
S315080014D00CB50020019000903448006840F4803034
S315080014E03249086000BF3148006800F400300090B7
S315080014F00198401C0190009818B90198B0F5A06FA2
S31508001500F1D12A48006800F4003010B1012000909B
S3150800151001E0002000900098012846D12348403079
S31508001520006840F080502149403108602048006832
S3150800153040F480401E4908601C48083000681B4972
S31508001540083108600846006840F40040086008460C
S31508001550006840F4A05008601648091F0860081F74
S31508001560006840F08070091F086000BF0F480068D7
S3150800157000F000700028F9D040F205600E490860B6
S315080015800A480830006820F0030008490831086056
S315080015900846006840F00200086000BF03480830AB
S315080015A0006800F00C000828F8D10CBD003802408D
S315080015B00070004008544007003C02407047000095
S315080015C010B51248006840F0010010490860002074
S315080015D00E49083108600D4800680D4908400B4956
S315080015E008600C48091D0860081F006820F4802060
S315080015F0091F0860002005490C310860FFF768FFDD
S315080016004FF000600449086010BD00000038024031
S31508001610FFFFF6FE1030002408ED00E010B501F0DB
S3150800162001FF10BD21B1028842F08002028004E069
S3150800163002884FF67F731A4002807047CA430282B7
S31508001640704721B1028842F00102028004E0028854
S315080016504FF6FE731A400280704730B502460020E6
S3150800166000230024158A05EA0103958905EA010481
S3150800167013B10CB1012000E0002030BD1AB18389F6
S315080016800B43838102E083898B4383817047000083
S3150800169000220288184B98420ED0184B98420BD05D
S315080016A0B0F1804F08D0164B984205D0154B98429A
S315080016B002D0154B984204D14FF68F731A404B88C7
S315080016C01A43124B984207D0114B984204D04FF652
S315080016D0FF431A400B891A4302804B68C3620B8882
S315080016E00385054B984202D0044B984201D18B7A68
S315080016F003860123838270470000014000040140ED
S315080017000004004000080040000C004000100040A3
S315080017100014004070B505460E46284600F0BEF98E
S3150800172004464FF6FF70844205D046F4004105F2A0
S315080017308C5020F81410E0B270BD2DE9F041054632
S315080017400E4617461C46012105F56B7000EB441042
S31508001750817005F56B7000EB4410C66005F56B707B
S3150800176000EB4410076105F56B7000EB4410007E32
S3150800177030B9002105F56B7000EB4410017205E0E5
S31508001780022105F56B7000EB4410017221462846CC
S31508001790FFF714FD0020BDE8F0812DE9F04105466C
S315080017A00E4617461C46002105F56B7000EB4410E3
S315080017B0817005F56B7000EB4410C66005F56B701B
S315080017C000EB4410076105F56B7000EB4410407E92
S315080017D028B905F56B7000EB4410017205E002218B
S315080017E005F56B7000EB4410017221462846FFF799
S315080017F0E5FC0020BDE8F0812DE9F04105460C46E0
S3150800180016461F4602212175012161750021E182D4
S315080018102683618306F08000802805D105F56B7064
S3150800182000EB4710017605E0002105F56B7000EB2B
S315080018304710417600231A462146284600F02BF821
S31508001840BDE8F08101460122C1F810230020704747
S315080018502DE9F04105460E4617461C46012105F5B9
S315080018606B7000EB44108170022105F56B7000EB7C
S315080018704410017205F56B7000EB4410C66005F55F
S315080018806B7000EB4410076121462846FFF796FC6B
S315080018900020BDE8F0812DE9F04180460C4615464A
S315080018A01E460127E078012802D0022820D108E048
S315080018B032462946204601F06CFC0220E0700127DA
S315080018C017E0207F0D2805D10120E070002121773F
S315080018D000270CE0207F0B2803D10120E0700227A7
S315080018E005E0207F0C2802D10120E070032700E0E4
S315080018F000BF00BF3846BDE8F0812DE9F041054636
S315080019000F4616461C46002105F56B7000EB441081
S31508001910817005F56B7000EB4410C76005F56B70B8
S3150800192000EB441006612EB9012105F56B7000EB3A
S315080019304410417605F56B7000EB4410407E30B9D3
S31508001940002105F56B7000EB4410017205E00221D9
S3150800195005F56B7000EB4410017221462846FFF727
S315080019602DFC0020BDE8F08170B505460E461446EC
S31508001970002105F56B7000EB44108170032105F515
S315080019806B7000EB4410017205F56B7000EB4410A8
S31508001990C660082105F56B7000EB4410016121460D
S315080019A02846FFF70BFCC0B270BD0246022106E0CE
S315080019B0002302F28C5020F81130481CC1B20829C5
S315080019C0F6DB0020704770B505460C4600202070EF
S315080019D06070A0700120E070012121774021A1717B
S315080019E0002084F82000012121200155217928466C
S315080019F000F023F86179284600F01FF8002070BD32
S31508001A0001460022C1F810230020704770B504462D
S31508001A100D46052D01D0042D06D1D4F88010486C4A
S31508001A2080470A20207007E0062D05D10A2020707D
S31508001A30D4F880100868804770BD0246082909DA7C
S31508001A4002F28C5030F81100C0F30E0302F28C50EB
S31508001A5020F81130002070472DE9F04780460C46E3
S31508001A6016461D46DDE9089746F0800121750621D0
S31508001A706175E58205F47F40B0F5407F03D140F2F9
S31508001A800941218301E00021218367833B464A46B9
S31508001A9021464046FFF7FFFEBDE8F08702460021D3
S31508001AA000BF0AE002F28C5030F8110000F4004042
S31508001AB008B908467047481CC1B20829F2DB4FF638
S31508001AC0FF70F7E710B502460B88147823440B809D
S31508001AD01378981810BD00002DE9FC4104460D4600
S31508001AE01646002704F588704FF40073002229462D
S31508001AF0CDE900062046FFF7AFFFB0F1000814D184
S31508001B0006E004F58870C05D0949C855781C87B297
S31508001B10B742F6DB04F5887305F1500205F13E017C
S31508001B2005F13400009601F047F94046BDE8FC810E
S31508001B30969200202DE9FC4104460D46164604F50A
S31508001B4088704FF4807300222946CDE900062046A6
S31508001B50FFF782FF071E06D1324604F5887105F1A4
S31508001B60220001F0B7F93846BDE8FC812DE9FC47AB
S31508001B700446884615461E460A9F04F5887045F4AD
S31508001B80407300224146CDE900072046FFF764FF6F
S31508001B90B0F1000905D13A46314604F5887001F0DE
S31508001BA0E8F94846BDE8FC872DE9F04106460C46AB
S31508001BB04FF0000800250021A174207F0C2878D258
S31508001BC0DFE800F077060F3D466778939CC2D9F0A8
S31508001BD0627904F114013046FFF7C6FE0221217727
S31508001BE0F1E061793046FFF7A3FA0546012D1FD1CA
S31508001BF0207D00F08007608B58B141F28830744927
S31508001C000880802F02D1032121770CE00521217756
S31508001C1009E032206E490880802F02D109212177F8
S31508001C2001E0072121773046FFF773FA208205E0A5
S31508001C30032D03D10B2121770521A174C3E0237954
S31508001C40A2893046A168FFF703FE04212177BAE08E
S31508001C5021793046FFF76CFA0546012D01D1092195
S31508001C602177042D04D1607820700C2121770FE0AC
S31508001C70032D02D10B2121770AE03046FFF749FAF6
S31508001C80218A401A52490988884201D90B212177AD
S31508001C9099E00121627906F56B7000EB42104176F6
S31508001CA06379A2893046A168FFF727FE06212177C6
S31508001CB089E087E061793046FFF73AFA0546012D53
S31508001CC002D1072121770FE0042D04D16078207016
S31508001CD00C21217708E0022D02D10521217703E0A6
S31508001CE0032D01D10B2121776DE0237900221146BE
S31508001CF03046FFF7ADFD0821217764E021793046AB
S31508001D00FFF716FA0546012D04D1607820700D21DB
S31508001D10217718E0032D02D10B21217713E03046F5
S31508001D20FFF7F7F9218A401A29490988884202D912
S31508001D300B21217707E0042D05D160782070042156
S31508001D40A1744FF003083EE0617906F56B7000EB6D
S31508001D504110407E80F00101627906F56B7000EB58
S31508001D60421041766379002211463046FFF7C5FDD9
S31508001D700A21217727E061793046FFF7D9F9054628
S31508001D80012D04D1607820700D21217708E0022DFD
S31508001D9002D10921217703E0032D01D10B212177F7
S31508001DA011E0FFE7A07B401CC1B2A173022902DC47
S31508001DB00121217705E00821A174607820704FF091
S31508001DC0020800E000BF00BF4046BDE8F081000001
S31508001DD0F000002070B592B005460C460126A078A2
S31508001DE00A287AD2DFE800F00528375D667A97B4C4
S31508001DF0D1DB082221462846FFF79CFED8B994F87D
S31508001E002910A1712846FFF7D2F90120A070A07900
S31508001E100021CDE90010617900231A46284600F012
S31508001E20F7FEA0790021CDE90010217900231A4692
S31508001E30284600F0EDFEB5E0122221462846FFF7B7
S31508001E4079FE38B9D4F88000C16904F122008847C0
S31508001E500220A070A6E001222146284601F073F967
S31508001E60F0B9022001F0FAFA0120A41CA077D4F8F0
S31508001E707E10086A80470320207000200090019099
S31508001E80A27FA1780346284600F0C2FE00200090F3
S31508001E900190A27FA41E61790346284600F0B8FE89
S31508001EA080E0092221462846FFF716FE08B90420D5
S31508001EB0A07077E0E28E21462846FFF70DFE58B956
S31508001EC0D4F8800004F1500204F13E01436A04F19B
S31508001ED0340098470520A07064E062E094F830006A
S31508001EE088B1FF20009094F8302002AB214628469E
S31508001EF0FFF73CFE70B9D4F88000816A02A88847CB
S31508001F000620A07006E0D4F88000816A27A08847DA
S31508001F100620A07046E094F8310088B1FF200090B2
S31508001F2094F8312002AB21462846FFF71FFE70B908
S31508001F30D4F88000C16A02A888470720A07006E086
S31508001F40D4F88000C16A19A088470720A07029E044
S31508001F5094F8320088B1FF20009094F8322002AB42
S31508001F6021462846FFF702FE70B9D4F88000016BB7
S31508001F7002A888470820A07006E0D4F88000016B04
S31508001F800AA088470820A0700CE094F8392021465A
S31508001F90284601F0EBF808B90920A07002E00026EF
S31508001FA000E000BF00BF304612B070BD4E2F4100A2
S31508001FB02DE9F04106460F4614461D46DDF8188001
S31508001FC0304601F0E3F9002001F096F92146304643
S31508001FD0FFF7F9FCE567C4F8808039463046FFF715
S31508001FE0B2F8D4F8801008688047304601F0BAF98C
S31508001FF0BDE8F08170B505460C4621212175FF2103
S3150800200061750021E1822183618300231A462146F6
S315080020102846FFF740FC70BD2DE9F04105460E46FF
S315080020201446012714B1012C12D108E01048037890
S31508002030C27831462846FFF7DFFB074609E00C4819
S315080020404378827831462846FFF7D6FB074600E0F4
S3150800205000BF00BF07480068401C064908600846DC
S315080020600068042800D904273846BDE8F081000036
S315080020704C920020A800002010B50246002000233C
S31508002080014C237010BD00003C9200202DE9F04160
S3150800209005460F46002601242846FFF784F820B394
S315080020A0154801782846FFF748F806460D2E01D050
S315080020B002241CE0114800681149884216D10F48CD
S315080020C0406810494968884211D10C48007B08B914
S315080020D000240CE00948007B012801D1012406E010
S315080020E00648007B022802D1022400E002240648A2
S315080020F0C4732046BDE8F0814C9200202C92002043
S31508002100555342530C9200203C920020012812D1CC
S315080021100D490978491C0C4A1170114609780A2993
S3150800212005DA0621094A11700121D1700AE00A214F
S31508002130064A117006E0022803D10A21034A1170E3
S3150800214000E000BF70470000C40000203C92002059
S3150800215070B505460C46A1212175FE216175002141
S31508002160E1822183012161830123034A214628460E
S31508002170FFF791FB70BD0000549200202DE9F0474F
S3150800218081460F463E46012403254FF0000848467F
S31508002190FFF709F8002878D05E4800780B2875D232
S315080021A0DFE800F0060D1E5566798A999E44B00050
S315080021B0484600F05FFA022056490870A5E03946FD
S315080021C04846FFF717FF044614B90220514908701C
S315080021D0032C04D102204F4948700920087094E066
S315080021E039464846FFF7B4FF0446BCB94A48007A60
S315080021F0494981F84800084690F8480000280ADD51
S315080022004648007838B9012044490870D6F8801045
S31508002210086C804779E003203E490870032C04D1F6
S3150800222003203C494870092008706EE07379002243
S3150800223039464846FFF7E0FA04463CB900203649D5
S3150800224081F8480033484078324908705DE04846CE
S3150800225000F086FC05463DB904202E49087000208A
S315080022602F490870002402E02846FFF74FFF4CE08C
S31508002270484600F097FB05464DB9052025490870E4
S31508002280002027490870002404E03FE03CE0284687
S31508002290FFF73CFF39E0484600F09CFA05463DB991
S315080022A008201C49087000201D490870002402E017
S315080022B02846FFF72BFF28E0484600F0E1FB0546D5
S315080022C02DB91448407813490870002402E02846BE
S315080022D0FFF71CFF19E03946484600F023F814E0DA
S315080022E0D6F88010C86B804700F0FF08B8F1000FD9
S315080022F003D108200749087003E0B8F1010F00D19F
S31508002300062402E0042400E000BF00BF2046BDE822
S31508002310F08700003C9200204C920020D800002054
S31508002320C40000202DE9F04780468946002440462F
S31508002330FEF739FF00287DD0C548007909287AD2EA
S31508002340DFE800F079051251A3FDFCFBFA00C1484D
S3150800235043781F22C0494046FFF71FFA0120BC49AF
S3150800236048710220087170E1BA4841784046FEF784
S31508002370DFFE0446012C26D10020B8490860022059
S31508002380B3494871B448007B00F08007B2488068BA
S31508002390A8B1B1488068B2490860AD488068B149BB
S315080023A0086008460068B0490860802F03D10320FA
S315080023B0A749087116E00420A549087112E005200E
S315080023C0A34908710EE0022C04D1A1484079A0491E
S315080023D0087107E0042C05D10120A44908700820DB
S315080023E09B49087131E19B4801784046FEF7A0FEFB
S315080023F00446012C03D09648407903283AD0002099
S315080024009649086003209249487192488088944901
S315080024100968884219D28F480378828891480168EA
S315080024204046FFF78AF98B4880888D490968081A5B
S315080024308B4901E00AE107E10860864880888949F6
S3150800244009680844874908601EE08548006818B985
S3150800245005207F49087117E07E4803788048008880
S3150800246082B2804801684046FFF767F900207C4938
S31508002470086009E0042C07D100207C490870072071
S315080024807349087105204871DFE072484178404673
S31508002490FEF74EFE0446012C3BD100206F4908602A
S315080024A004206B4948716B48C0886D4909688842A1
S315080024B01AD268484378C2886A4801684046FFF7D6
S315080024C06CF968480068684908606248C0886549C8
S315080024D009680844634908605E48C0886049096815
S315080024E0081A5F49086042E05D48006818B9052087
S315080024F0574908713BE0574843785948008882B2E3
S31508002500584801684046FFF748F9002054490860D2
S315080025102DE0022C21D153480068534909688842A6
S3150800252012D04C484378C288C088DFF838C1DCF836
S3150800253000C0ACEB000103E074E059E037E017E0B7
S315080025404046FFF72AF912E042484378C2884548D0
S3150800255001684046FFF721F909E0042C07D101205C
S315080025604249087008203A490871052048716CE00C
S315080025700520374948713E4888603F2088810D26E6
S3150800258004E000203A498855701EC6B2002EF8D1DC
S315080025900020374908702F4803782D483F22816864
S315080025A04046FFF7CAF80620294908714DE0294830
S315080025B001784046FEF7BCFD0446012C0FD10020E9
S315080025C0264908600520224948710846807808701F
S315080025D049464046FFF75AFD1D49C87307E0042CD3
S315080025E005D10020214908700720194908712CE0F7
S315080025F0002249464046FFF70FFD054665B91B48C8
S315080026000078022803D108201149087109E010480A
S3150800261040790F49087104E0042D02D102200C49C3
S31508002620C87312E0012249464046FFF7F5FC054605
S3150800263025B9074840790649087104E0042D02D1F6
S3150800264002200349C87300E000BF00BFBDE8F08759
S315080026503C9200204C9200200C920020A8000020FA
S31508002660AC000020B0000020B4000020B800002014
S315080026702C92002010B504462046FEF794FD48B17A
S315080026800748084908600848486000204873012040
S315080026900649C8700020064908600649087010BD3A
S315080026A0555342430C920020504030203C92002063
S315080026B0A8000020C400002070B504460D46104846
S315080026C0407860B10E484178204601F032F90C484E
S315080026D041782046FFF7B1F90020094948700848B3
S315080026E0007860B106480178204601F022F90448CE
S315080026F001782046FFF7A1F900200149087070BD4E
S315080027004C9200207CB506460D462C4694F84300AC
S31508002710082856D194F84500502852D194F852000A
S3150800272000F0800038B194F852002949C870B4F80E
S315080027305400888006E094F8520025498870B4F859
S315080027405400C88094F85A0000F0800038B194F814
S315080027505A001F49C870B4F85C00888006E094F8EF
S315080027605A001B498870B4F85C00C88018488178FC
S315080027703046FEF7CFFF164948700846C1783046FE
S31508002780FEF7C8FF124908700846C0880221CDE93D
S3150800279000102120035D94F820200D48417830462A
S315080027A000F0BCFA0A4880880221CDE900102120F1
S315080027B0035D94F8202006480178304600F0AEFA0A
S315080027C003E0D4F88010086C804700207CBD000028
S315080027D04C92002070B5054603262846FEF7E3FC12
S315080027E0002855D02B48C078012802D002284DD1A0
S315080027F027E03F2028498860802008730A208873CC
S3150800280026482449886005208870102405E00021A0
S3150800281021480F300155601EC4B2002CF7D11A208A
S315080028201D49C8733F211C484174C17401201949C8
S315080028300871072008700320C8730220C870032691
S3150800284025E01448C07B80B91448807800F08000E1
S3150800285018B101201249087302E0002010490873D4
S3150800286001200C49C87000260FE00A48C07B0128E1
S3150800287003D10849C870012607E00648C07B02282C
S3150800288003D101200349C870022600E000BF00BF3B
S31508002890304670BD3C9200200C9200200C8E002021
S315080028A0FC8D0020FFB581B007460E461D46032065
S315080028B0394908703846FEF776FC002867D037484D
S315080028C0C078012802D002285FD139E034488560F3
S315080028D08020334908730A2088733048866010249C
S315080028E005E000212E480F300155601EC4B2002CA9
S315080028F0F7D128202A49C8739DF80F102848417433
S315080029009DF80E1081749DF80D10C1749DF80C1079
S315080029100175C5F34F2000909DF801102048817578
S315080029209DF80010C17501201C4908710720087020
S315080029300320C8730220C87003201749087025E0D1
S315080029401648C07B50B93846FEF72DFC30B1012039
S315080029501249C87000201049087015E00F48C07B5E
S31508002960012807D13846FEF71EFC18B101200B498D
S31508002970C87009E00948C07B022805D1012007492B
S31508002980C87002200449087000E000BF00BF024872
S31508002990007805B0F0BD0000A40000203C9200209D
S315080029A00C92002070B5054603262846FEF7FBFB69
S315080029B000285AD02E48C078012802D0022852D1C1
S315080029C023E008202B498860802008730A20887332
S315080029D029482749886004208870102405E00021CA
S315080029E024480F300155601EC4B2002CF7D12520AB
S315080029F02049C87301201E49087107200870032062
S31508002A00C8730220C87003262EE01948C07BC8B9CF
S31508002A10194800781949C8701748407888701648C8
S31508002A20807848701448C07808701348817913482C
S31508002A3041721148C0791149087201200C49C870C1
S31508002A4000260FE00A48C07B012803D10849C87050
S31508002A50012607E00648C07B022803D10120044965
S31508002A60C870022600E000BF00BF304670BD0000F7
S31508002A703C9200200C9200200C8E0020FC8D002039
S31508002A8070B5054603262846FEF78DFB00285DD05F
S31508002A902F48C078012802D0022855D12BE03F20C4
S31508002AA02C498860802008730A2088732A48284998
S31508002AB0886008468078487006208870102405E0EB
S31508002AC0002124480F300155601EC4B2002CF7D1EE
S31508002AD003202049C87300211E4801743F21C17490
S31508002AE001201B490871072008700320C8730220BB
S31508002AF0C870032629E01648C07BA0B91648017895
S31508002B001648C17114484178144881711248817871
S31508002B10124841711048C0781049087101200C49C3
S31508002B20C87000260FE00A48C07B012803D108496F
S31508002B30C870012607E00648C07B022803D1012099
S31508002B400349C870022600E000BF00BF304670BDCA
S31508002B503C9200200C9200200C8E0020FC8D002058
S31508002B6070B5054603262846FEF71DFB002846D005
S31508002B702448C078012802D002283ED124E000204B
S31508002B802149886008730620887320481D49886093
S31508002B903F20888103208870102405E000211A4808
S31508002BA00F300155601EC4B2002CF7D1002016491B
S31508002BB0C873012013490871072008700320C873D9
S31508002BC00220C870032619E00E48C07B20B90120F0
S31508002BD00C49C87000260FE00A48C07B012803D1BB
S31508002BE00849C870012607E00648C07B022803D1B9
S31508002BF001200449C870022600E000BF00BF304625
S31508002C0070BD00003C9200200C9200202C920020FF
S31508002C102DE9F04704460D4617461E46DDE9089895
S31508002C2027B104F56B7000EB4510077004F56B705F
S31508002C3000EB4510C088404508D0B8F1000F05D014
S31508002C4004F56B7000EB4510A0F8068004F56B7070
S31508002C5000EB4510C078B04205D026B104F56B707C
S31508002C6000EB4510C6702946204600F0A3FE00205A
S31508002C70BDE8F08738B505460024002000902846B0
S31508002C8001F0C3F8002847D0284601F0C8F800909C
S31508002C90009808B9002038BD0098C0F3C00018B1E4
S31508002CA0284602F077F804430098C0F3001018B1DC
S31508002CB0284601F0BCFF04430098C0F3401018B141
S31508002CC0284601F0F6FD04430098C0F3806018B169
S31508002CD0284601F015FF04430098C0F3406018B178
S31508002CE0284601F0BEF904430098C0F3006018B105
S31508002CF0284601F075FE04430098C0F3407018B1E9
S31508002D00284601F075F904430098C0F3405018B1FD
S31508002D10284601F083F904432046BCE72DE9F0472D
S31508002D2004460D4617461E46DDE9088904F28C500E
S31508002D3010F8150000F07F0104F56B7000EB4510E4
S31508002D40417004F28C5010F81500C0F3C01104F558
S31508002D506B7000EB4510817004F56B7000EB451045
S31508002D60077004F56B7000EB451080F8058004F5D4
S31508002D706B7000EB4510A0F8069004F56B7000EB3D
S31508002D804510C670002104F56B7000EB45100176FE
S31508002D9004F56B7000EB451041762EB9012104F558
S31508002DA06B7000EB451001712946204600F002FEC3
S31508002DB00020BDE8F08700002DE9F04F85B00646F3
S31508002DC0894692461D462C460027B84600BF2878F5
S31508002DD0307068787070A978E87801EB0020708008
S31508002DE02879307168797071A879B071E879F071CD
S31508002DF0287A30720E98092864DD09200090307907
S31508002E0002285ADCBB4653E069462046FEF75AFEBE
S31508002E100446607804284BD1A07847B207EBC70070
S31508002E2000EB090BE078032842DA214602A800F0F5
S31508002E308DF84FF000089DF80C00022838DC32E0C7
S31508002E4069462046FEF73EFE0446607805282AD1E4
S31508002E500AEB071000EBC80001901C480078B8423E
S31508002E6006D01A490F7002A9584600F06FF80CE010
S31508002E702179607901EB002015490988884200DA32
S31508002E8015E002A9584600F061F82146019800F0BD
S31508002E904DF82179607901EB00200D49088008F189
S31508002EA001004FFA80F89DF80C004045C8DC00BFC9
S31508002EB07088BDF800108842A6DC00200449088006
S31508002EC00249087005B0BDE8F08F0000DC0000205C
S31508002ED0DA00002010B50B7803704B7843708C78B5
S31508002EE0CB7804EB032343800B7903714B79437149
S31508002EF08B798371CB79C371082A16DD0C7A4B7AE4
S31508002F0004EB032303818C7ACB7A04EB03234381F6
S31508002F100C7B4B7B04EB032383818B7B8373CB7BFB
S31508002F20C3730B7C03744B7C437410BD0A78027020
S31508002F304A7842708A788270CA78C2700B794A7960
S31508002F4003EB022282808A79827170470A780270BE
S31508002F504A7842708A788270CA78C2700A79027191
S31508002F604A7942718A798271CA79C2710A7A027279
S31508002F70704730B513464578032D14D10578AD1E34
S31508002F809D4202DC0578AD1E00E01D46ACB2801CF1
S31508002F90002204E0855C0D70491C951CAAB2A24269
S31508002FA0F8DB00250D7030BD3EB505460C460220FF
S31508002FB002902846FEF7F7F830B9207820B1207835
S31508002FC0022801D00220207020780B2875D2DFE86D
S31508002FD000F006109CB44D687B87598C8D002846F6
S31508002FE0FEF7E1F820B101202070642000F036FADF
S31508002FF0A4E0D4F880108868804700212846FEF7A8
S3150800300089FB607180212846FEF784FB20712846DB
S31508003010FEF7CDF848BBD4F88010C8688047284624
S31508003020FEF77CF8C1B22120015504202070212228
S31508003030105DD4F8802091698847A0790021CDE9F0
S3150800304000102120035D94F8202021792846FFF7F7
S3150800305065FEA0790021CDE900102120035D94F8D2
S31508003060202061792846FFF759FE67E02146284661
S31508003070FEF7B0FE28B9D4F88010486B80470820C0
S3150800308020705BE0D4F88010886B8047012807D150
S31508003090E06F214602682846904708B90520207047
S315080030A04CE0E06F214682682846904702909DF8DA
S315080030B0080018B90620207005E03EE09DF80810C3
S315080030C02046FEF7A3FC39E0E06F2146C268284691
S315080030D0904702909DF808102046FEF797FC2DE0D1
S315080030E021462846FEF760FD28E027E021462846C7
S315080030F0FEF769FCD4F8801048688047E06F04F151
S31508003100200142682846904718E0D4F880100869DC
S31508003110804721462846FEF756FCD4F880104868B2
S315080031208047E06F04F12001426828469047284608
S31508003130FEF73BFC0020207000E000BF00BF3EBD4C
S3150800314001460020704770B506460C461546002114
S31508003150217505216175E58200212183618300239C
S315080031601A4621463046FEF796FB70BD70B50646F0
S315080031700C4615460021217509216175E582002155
S315080031802183618300231A4621463046FEF783FBD6
S3150800319070BD10B5034618785870072018709960E6
S315080031A09A8101241C77002010BD70470020014930
S315080031B008707047800000207047704710B5FDF70B
S315080031C028FF10BD10B5FDF724FF10BD10B5044645
S315080031D0012C03D0022C01D0FDF71BFF10BD704750
S315080031E07047000030B5164800684FF47A72B0FB95
S315080031F0F2F1B1F1807F01D301201DE021F07F407B
S31508003200401E4FF0E022506150170F22002807DABF
S3150800321013071D0E0B4B00F00F04241F1D5503E06A
S3150800322013071C0E084B1C5400BF00204FF0E02269
S31508003230906107201061002008B100BFFEE730BD8D
S315080032401C00002018ED00E000E400E010B51E4860
S31508003250007810B1012832D112E001221BA11C48C6
S3150800326001F0FAFF00B12BE01A48007B012800D1D3
S3150800327026E00020184908700120134908701FE04D
S3150800328015480078D0B9012013490870FDF74CFCA1
S3150800329070B10020FEF75AF80120FEF757F800BF74
S315080032A00E48FDF780FF0128FAD0FDF76DFC05E012
S315080032B00020FEF755F80120FEF748F800E000BFA9
S315080032C000BF002010BD000080000020303A00003A
S315080032D02C870020FC8D00208C000020FC8000201C
S315080032E070477047704770477047FDF792FE00BFFA
S315080032F0FEE70120704700001CB504460121084678
S31508003300FEF7A4F84FF40070009003208DF805002E
S3150800331001208DF8040000208DF8060001208DF8A4
S31508003320070069460548FDF77CFE4FF4007103481F
S31508003330FDF7EDFEC82000F091F81CBD0000024024
S3150800334070B505460C462CB94FF400710448FDF7D4
S31508003350DEFE04E04FF400710148FDF7D6FE70BDAD
S315080033600000024038B504464FF4C060FEF750F836
S3150800337043208DF8000001208DF801008DF8020029
S315080033808DF803006846FEF707F838BD1CB50446F5
S3150800339001210846FEF75AF84FF4C0500090032062
S315080033A08DF8050002208DF8040000208DF806002F
S315080033B08DF8070069460C48FDF733FE0A220B21F3
S315080033C00948FDF776FE0A220C210748FDF771FE2B
S315080033D001218803FEF76AF801218020FEF746F8E6
S315080033E000F004F81CBD00000000024008B50021EA
S315080033F04FF00060FEF716F84FF4A060FEF708F8E5
S315080034001C208DF8000001208DF801008DF80200BF
S315080034108DF803006846FDF7BFFF01210846FEF751
S3150800342035F808BD10B501218807FEF716F988B1E9
S3150800343001218807FEF702F90748006828B10648FF
S315080034400068401E0449086004E000214FF08040EF
S31508003450FEF7F7F810BD00003400002010B504464A
S3150800346001212046FCF7C0FE10BD10B50446022116
S315080034702046FCF7B9FE10BD3EB5044600250020DF
S31508003480029001900090207A01283DD1E068806B77
S315080034900190019820F480300190607A28B1019853
S315080034A020F4801000F5801001900198E168886387
S315080034B000200290E068C0680290029820F0400060
S315080034C00290029820F480000290029820F40030BE
S315080034D00290029820F4002002900298E168C860E1
S315080034E0204600F0C7F8E078012843D1009820F07C
S315080034F01E000A300090009820F02000203000902E
S315080035000098E168886035E0E068C0680290029833
S3150800351020F04000403002900298E168C8602046DA
S3150800352000F0A8F800200190019820F4803000F5FA
S3150800353080300190019820F4802000F580200190C9
S31508003540019820F4002000F500200190019820F44D
S31508003550001000F500100190607A28B1019820F457
S31508003560801000F5801001900198E16888631420A6
S31508003570FFF774FFE07801280FD1E06880680090B3
S31508003580009820F01E000A300090009820F02000D5
S31508003590203000900098E168886028463EBDFEB558
S315080035A0044600260025002002900190009020463F
S315080035B0FFF7A2FE0021D4F80C010160207A012849
S315080035C003D1204600F00DFC03E00121204600F05F
S315080035D008FC204600F05BFC6069006800900098D3
S315080035E020F004000090009960690160E07A0128E3
S315080035F01DD18020E168486202986FF30F00803081
S315080036000290029880B200F5C00002900298E16824
S31508003610886201986FF30F00E0300190019880B23C
S3150800362000F5C00001900198E168C1F80001102179
S31508003630204600F021F9204600F0F8F800250DE0B4
S315080036404FF0FF3104F1900050F825008160002109
S3150800365004F1900050F82500C1606D1C2078A8423E
S31508003660EED80121204600F04EF8204600F0A4F8D6
S315080036703046FEBDF8B50446002600250020009019
S3150800368000BF0320FFF7F1FEE06800690090681CA0
S3150800369005461349884201D90020F8BD0098C00F95
S315080036A00028EED00025009820F00100401C00906C
S315080036B00098E168086100BFE06800690090681C2E
S315080036C005460749884200D904E0009800F0010041
S315080036D00028F1D100BF0320FFF7C7FE3046DCE71C
S315080036E0400D030008B50146002000220092009A0A
S315080036F022F00102521C0092CA689268009B9A4303
S31508003700CB689A6008BD38B505460C46002000907F
S3150800371021462846FFF714FE284600F088FB00904D
S315080037200098C0F3003058B9012C09D1009820F44C
S31508003730805000F5805000900099D5F8CC000160C3
S315080037400098C0F3003040B13CB9009820F480508E
S3150800375000900099D5F8CC000160C820FFF77EFEDE
S3150800376038BD08B500210091491EC26851606FF046
S315080037708041C2685161009921F0004101F1004180
S315080037800091009921F4006101F50061009100990A
S31508003790C268916108BD08B5014600200022009262
S315080037A0009A22F00102521C0092CA689268009B95
S315080037B01A43CB689A6008BD38B504460025002030
S315080037C00090E1688861401EE16848612046FFF77D
S315080037D0C8FFE07820B9009820F01000103000905B
S315080037E0009820F0807000F180700090009820F01A
S315080037F0007000F100700090009820F0005000F171
S3150800380000500090009820F00800083000900098BA
S3150800381020F4001000F500100090E0688069009917
S3150800382088430843E1688861284638BDF8B50446E8
S315080038300025002600200090009820F01000103087
S3150800384000900098E168086100BFE0680069009090
S31508003850701C06460749884200D904E00098C0F360
S3150800386000100028F1D100BF0320FFF7FEFD28460F
S31508003870F8BD0000400D0300F8B504460D460026C5
S31508003880002700200090009820F0200020300090AB
S31508003890009865F38A1000900098E168086100BFF7
S315080038A0E06800690090781C07460749884200D9F5
S315080038B004E00098C0F340100028F1D100BF0320AF
S315080038C0FFF7D3FD3046F8BD400D03000146C86832
S315080038D0406900F0010070471CB50246002000232D
S315080038E00093009B23F0004303F100430093012457
S315080038F0009B64F3DC43009302F1900353F82130F4
S31508003900009C1C6102F1900353F821301B68019357
S31508003910019B23F0004303F100430193019B23F02D
S315080039208043019302F1900353F82130019C1C60F7
S315080039301CBD10B586B002460020002303930193F0
S3150800394002F1900353F821301B680093009B23F083
S31508003950004303F100430093009B23F0804303F1E7
S3150800396080430093009BC3F3814323B1009BC3F3B9
S315080039708143022B0BD1D368DB6A0393039BC3F302
S3150800398007437BB9009B23F0004300930AE0536981
S315080039901B690193019BC3F307431BB9009B23F0E3
S315080039A00043009302F1900353F82130009C1C60F9
S315080039B006B010BD3FB5024600200023002402943D
S315080039C003940194441E009402F1900454F8214093
S315080039D0009DA56000240394D478012C04D1039C8F
S315080039E024F00404241D039402F56B7404EB4114BB
S315080039F0647934B1012C6AD0022C03D0032C38D157
S31508003A0038E000BF039C24F00104641C0394039C63
S31508003A1024F0080408340394039C24F080048034BA
S31508003A200394039C24F4806404F580640394039C43
S31508003A3024F010041034039402F56B7404EB41145B
S31508003A40A47834B1039C24F4807404F58074039438
S31508003A500FE0039C24F040044034039402F56B7491
S31508003A6004EB4114247924B1039C24F02004203467
S31508003A7003944EE0039C24F00104641C0394039C05
S31508003A8024F0100410340394039C24F0080408342A
S31508003A900394039C24F0800480340394039C24F448
S31508003AA0806404F580640394039C24F4007404F58C
S31508003AB00074039402F56B7404EB4114A4782CB1DA
S31508003AC0039C24F4807404F58074039421E0039C19
S31508003AD024F00104641C0394039C24F4007404F584
S31508003AE000740394039C24F020042034039402F504
S31508003AF06B7404EB4114A47854B1039C24F080043D
S31508003B0080340394039C24F4807404F5807403942D
S31508003B1000BF00BF02F1900454F82140039DE56000
S31508003B20012404FA01F35469A4691C435569AC617C
S31508003B30029C24F0007404F100740294D468A46909
S31508003B40029D2C43D568AC610024019402F56B7480
S31508003B5004EB41142578019C65F39C54019402F505
S31508003B606B7404EB41146578019C65F3CE240194CB
S31508003B7002F56B7404EB4114A578019C65F3CF3408
S31508003B80019402F56B7404EB4114E478022C01D11C
S31508003B90012500E00025019C65F35144019402F5D6
S31508003BA06B7404EB41146579019C65F393440194A5
S31508003BB002F56B7404EB4114E588019C65F30A046D
S31508003BC0019402F56B7404EB41146479032C05D156
S31508003BD0019C24F0005404F10054019402F190046D
S31508003BE054F82140019D256004B030BD2DE9F0430D
S31508003BF088B004460D464FF00009C8464FF4807752
S31508003C00002006900790009004F56B7000EB4510B5
S31508003C10006910B304F56B7000EB4510016904F5F3
S31508003C206B7000EB4510C0880144491E04F56B70A3
S31508003C3000EB4510C088B1FBF0F086B2BE420DDD40
S31508003C403E4604F56B7000EB4510C188714304F5D8
S31508003C506B7000EB4510016100E0012604F56B70FE
S31508003C6000EB4510807850B104F56B7000EB4510F9
S31508003C70C188714304F56B7000EB4510016104F5CA
S31508003C806B7000EB45100169069861F31200069007
S31508003C90069866F3DC40069004F56B7000EB451059
S31508003CA0017A069861F35E70069004F1900050F868
S31508003CB0250006990161E078012809D104F56B70A1
S31508003CC000EB4510C16804F1900050F825004161E9
S31508003CD004F1900050F8250000680790204600F08F
S31508003CE08CF8079960F35D710791079820F00040FA
S31508003CF000F100400790079820F08040079004F1F3
S31508003D00900050F8250007990160E078002864D1F2
S31508003D1004F56B7000EB4510807800285DD104F53A
S31508003D206B7000EB45100069002856D004F56B70DF
S31508003D3000EB4510407930B1012821D0022803D084
S31508003D40032839D11BE000BFE068C06A039004F578
S31508003D506B7000EB45100069C01CC0F38F08039810
S31508003D6080B240450ADA009820F020002030009002
S31508003D70E068806900990843E16888611DE000BF32
S31508003D8060690069019004F56B7000EB45100069E5
S31508003D90C01CC0F38F08019880B240450BDA009822
S31508003DA020F0806000F180600090E06880690099EA
S31508003DB00843E168886100E000BF00BF04F56B7046
S31508003DC000EB4510008A83B204F56B7000EB4510D2
S31508003DD02A46C168204600F0F3FF484608B0BDE809
S31508003DE0F08308B5426912680092009A61F30102ED
S31508003DF00092009B4269136008BD014648698068C5
S31508003E0000F0010080F00100704700B50246104638
S31508003E10FFF75CFD012800D100BD0020FCE7014644
S31508003E200020CA685069CA6892691040704708B588
S31508003E300146D1F8CC0000680090009820F00400F4
S31508003E400090009820F002000090009820F00800EA
S31508003E500090009820F020000090009808BD0146C8
S31508003E60486940697047F0B503460024D01CC71757
S31508003E7000EB9777BD10D3F8D06000BF03E0306839
S31508003E800860641C091DAC42F9D30846F0BD38B574
S31508003E9004462046FFF7CBFF0090009820F4807078
S31508003EA000F5807000900099D4F8CC0001600A20D3
S31508003EB0FFF7D4FA009820F4807000900099D4F89F
S31508003EC0CC0001601420FFF7C9FA012038BD0000B4
S31508003ED070B502460C46002300200025D570012542
S31508003EE0957040259580012C0CD14FF0A0430125F3
S31508003EF0D57208251570042555709D15D58002259F
S31508003F0015720AE04CB9254B0025D5720C2515709B
S31508003F10062555704FF4A065D580D36003F5006576
S31508003F201561002110E003F5106505EB411602F155
S31508003F30180545F8216003F5306505EB411602F1D1
S31508003F40540545F82160491C55788D42EBD803F590
S31508003F50806555614035C2F8CC50002108E003F56C
S31508003F60A06505EB411602F1900545F82160491C4C
S31508003F7015788D42F3D8002108E003F5805505EB46
S31508003F80013602F1D00545F82160491C15788D42A5
S31508003F90F3D803F56065C2F80C5170BD0000044003
S31508003FA0F8B504460D460026E068C06800900098FB
S31508003FB020F000500090009820F080400090012DDD
S31508003FC006D1009820F0005000F10050009006E05D
S31508003FD02DB9009820F0804000F1804000900098AC
S31508003FE0E168C8603220FFF739FA3046F8BD0000AC
S31508003FF038B50446002000900748006881682046C6
S315080040008847009820F0005000F100500090009872
S31508004010E1684861012038BDEC0000200CB5014676
S31508004020D1F8900000680090009820F0004000F158
S3150800403000400090009820F0804000F180400090F9
S31508004040009AD1F89000026000200190019820F4AF
S31508004050001000F5001001900198CA68506101200F
S315080040600CBD7CB50546002400262846FFF7F7FE5A
S31508004070019000BF1BE0019880B20121A1400840D1
S31508004080A0B105F1900050F824000068009000984F
S31508004090C0F3C03028B12146284600F00DF8064383
S315080040A004E02146284600F01CFA0643641C2878DA
S315080040B0A042E0D830467CBD70B586B005460C46B1
S315080040C005F1900050F82460B0680590F0680490F7
S315080040D0DDE904100840059005F1900050F8240029
S315080040E000680390002004900598C0F38000D0B1C2
S315080040F000200190019820F00400001D019001980D
S31508004100B06005F1900050F82400C068019001984D
S3150800411020F00200801C019005F1900050F8240060
S315080041200199C16073E00598C0F3401048B10020BA
S315080041300190019820F02000203001900198B0608D
S3150800414065E00598C0F3C00078B305F1900050F813
S315080041502400C0680190019820F00200801C01909C
S3150800416005F1900050F824000199C160052105F574
S315080041706370015500200190019820F0100010305E
S3150800418001900198B06000200190019820F0080085
S31508004190083001900198B060059820F0100005904D
S315080041A0E1B22846FFF7C5FB31E0FFE70598C0F303
S315080041B0802060B305F1900050F82400C068019093
S315080041C0019820F00200801C019005F1900050F83B
S315080041D024000199C160E1B22846FFF7AAFB002036
S315080041E00190019820F01000103001900198B060FD
S315080041F0082105F56370015500200190019820F407
S31508004200806000F5806001900198B06000BF059855
S31508004210C0F34020F8B105F1900050F82400C068BA
S315080042200190019820F00200801C019005F1900091
S3150800423050F824000199C160E1B22846FFF779FBDE
S3150800424000200190019820F4007000F5007001909C
S315080042500198B06042E1059800F00100002871D08D
S31508004260E878012812D105F1900050F82400006979
S31508004270029005F56B7000EB441000690299C1F3D2
S315080042801201411A05F5547040F82410012105F56C
S31508004290637001550021783840F8241000200190F9
S315080042A0019820F00100401C01900198B060039825
S315080042B0C0F3814020B10398C0F3814002282AD177
S315080042C005F1900050F82400C0680190019820F08C
S315080042D00200801C019005F1900050F82400019915
S315080042E0C160E1B22846FFF724FB0020019001983F
S315080042F020F01000103001900198B06005F56B7041
S3150800430000EB4410007E80F0010105F56B7000EBB0
S3150800431044100176E2E00398C0F38140032899D15E
S31508004320039820F0005000F10050039005F190002A
S3150800433050F8240003990160012105F29B300155CC
S31508004340CCE0FFE70598C0F34000002851D005F1FE
S31508004350900050F82400C0680190019820F00200EF
S31508004360019005F1900050F824000199C16005F507
S315080043706370005D012804D1012105F29B300155C7
S315080043802DE005F56370005D052804D1042105F2CA
S315080043909B30015523E005F56370005D062804D0BF
S315080043A005F56370005D082808D1002105F54570FC
S315080043B040F8241003218730015510E00398C0F314
S315080043C0814003280BD105F56B7000EB4410007E85
S315080043D080F0010105F56B7000EB441001760020B2
S315080043E00190019820F00200801C01900198B060AD
S315080043F074E00598C0F3C01040B305F1900050F87A
S315080044002400C0680190019820F00200801C0190E9
S3150800441005F1900050F824000199C16005F5457032
S3150800442050F82410491C40F824100621783001550C
S31508004430E1B22846FFF77DFA00200190019820F0A6
S315080044408000803001900198B06047E00598C0F37D
S315080044500010E8B30398C0F38140032815D105F18D
S31508004460900050F82400C0680190019820F00200DE
S31508004470801C019005F1900050F824000199C16054
S31508004480E1B22846FFF755FA18E00398C0F38140D1
S3150800449020B10398C0F3814002280FD1039820F079
S315080044A0004000F100400390039820F080400390FC
S315080044B005F1900050F8240003990160032105F5E1
S315080044C06370015500200190019820F0100000E06B
S315080044D004E0103001900198B06000BF012006B0DA
S315080044E070BD7FB505460C4605F1900050F824606E
S315080044F0B0680390F0680290DDE902100840039066
S3150800450005F1900050F82400006801900398C0F364
S315080045108000D0B100200090009820F00400001D13
S3150800452000900098B06005F1900050F82400C0682B
S315080045300090009820F00200801C009005F1900081
S3150800454050F824000099C160B0E10398C0F3401008
S3150800455048B100200090009820F0200020300090FC
S315080045600098B060A2E10398C0F34020F8B105F1C5
S31508004570900050F82400C0680090009820F00200CF
S31508004580801C009005F1900050F824000099C16045
S31508004590E1B22846FFF7CDF900200090009820F4F4
S315080045A0007000F5007000900098B0607EE10398F6
S315080045B000F0010038B3002105F5457040F82410D5
S315080045C005F1900050F82400C0680090009820F08B
S315080045D00200801C009005F1900050F82400009914
S315080045E0C160E1B22846FFF7A4F9002000900098C0
S315080045F020F00100401C00900098B060012105F5EC
S315080046006370015552E10398C0F3C00010B300204F
S315080046100090009820F00800083000900098B060DC
S3150800462005F1900050F82400C0680090009820F02A
S315080046300200801C009005F1900050F824000099B3
S31508004640C160E1B22846FFF774F9052105F56370E4
S3150800465001552BE10398C0F3001038B3002105F586
S31508004660457040F8241005F1900050F82400C06801
S315080046700090009820F00200801C009005F1900040
S3150800468050F824000099C160E1B22846FFF751F9B5
S3150800469000200090009820F010001030009000983C
S315080046A0B060032105F563700155FFE00398C0F378
S315080046B0C01040B305F1900050F82400C06800907F
S315080046C0009820F00200801C009005F1900050F838
S315080046D024000099C160E1B22846FFF72AF905F5DA
S315080046E0457050F82410491C40F8241006217830EB
S315080046F0015500200090009820F08000803000903E
S315080047000098B060D2E00398C0F3801038B3002157
S3150800471005F5457040F8241005F1900050F824007E
S31508004720C0680090009820F00200801C009005F1F7
S31508004730900050F824000099C160E1B22846FFF7BE
S31508004740F8F800200090009820F0400040300090D3
S315080047500098B060042105F563700155A6E003983A
S31508004760C0F3802060B305F1900050F82400C068BB
S315080047700090009820F00200801C009005F190003F
S3150800478050F824000099C160E1B22846FFF7D1F835
S3150800479000200090009820F010001030009000983B
S315080047A0B060082105F56370015500200090009857
S315080047B020F4806000F5806000900098B06075E095
S315080047C00398C0F34000002870D005F1900050F817
S315080047D02400C0680090009820F00200009005F1BF
S315080047E0900050F824000099C16005F56370005DDB
S315080047F0012815D1012105F29B3001550198C0F316
S315080048008140022848D105F56B7000EB4410407EC4
S3150800481080F0010105F56B7000EB441041763BE032
S3150800482005F56370005D032804D1022105F29B306B
S31508004830015531E005F56370005D04280FD105F5D3
S315080048406B7000EB44100079012803D1E1B22846C9
S31508004850FFF742F8022105F29B3001551CE005F5E9
S315080048606370005D052804D1042105F29B300155CB
S3150800487012E005F56370005D06280DD105F5457053
S3150800488050F82400032807D1032105F29B3001556F
S315080048900021873840F8241000200090009820F066
S315080048A00200801C00900098B06000BF012004B090
S315080048B070BD7FB50446E068C06A00900198C0F3F1
S315080048C0C30104F56B7000EB41100069C01CC0F30E
S315080048D08F0673E04FF6FF71009801EA800501988C
S315080048E0C0F3C30104F56B7000EB41100069A842E0
S315080048F015D20198C0F3C30104F56B7000EB4110A3
S31508004900008A85B200200390039820F0200020300A
S315080049100390E068806903998843E1688861019893
S31508004920C0F3C30104F56B7000EB41100069C01CAD
S31508004930C0F38F060198C0F3C302C0F3C30304F59E
S315080049406B7000EB43102B46C168204600F038FA1E
S315080049500198C0F3C30104F56B7000EB4110C06801
S3150800496041190198C0F3C30204F56B7000EB4210BD
S31508004970C1600198C0F3C30104F56B7000EB4110E8
S315080049800069411B0198C0F3C30204F56B7000EB84
S31508004990421001610198C0F3C30104F56B7000EB86
S315080049A04110406941190198C0F3C30204F56B70C0
S315080049B000EB42104161E068C06A0090009880B23E
S315080049C0B0420ADD0198C0F3C30104F56B7000EB31
S315080049D04110006900287FF47DAF012004B070BD46
S315080049E0FEB504460026002500200090029001909E
S315080049F0D4F8CC0000680290D4F8CC000068019086
S31508004A00019820F004000190019820F0020001901E
S31508004A10019820F008000190019820F020000190EC
S31508004A200298C0F3400058B1019820F00200801C9B
S31508004A3001903248006841682046884745F00105DC
S31508004A400298C0F3C000002842D0019820F0080060
S31508004A50083001900298C0F38000002838D0274813
S31508004A6000684168204688470298C0F341400228FA
S31508004A7004D00298C0F34140012828D16069006833
S31508004A8000900298C0F34140022811D141F270719A
S31508004A9060694160009800F00300022818D0207A67
S31508004AA0022803D102212046FFF79BF901260FE0D1
S31508004AB04BF6803160694160009800F003000128D8
S31508004AC006D001212046FFF78CF9012600E00126D1
S31508004AD00298C0F3401030B1019820F02000203031
S31508004AE0019045F0010516B12046FFF7D0F9019966
S31508004AF0D4F8CC0001602846FEBD0000EC0000207A
S31508004B00FEB504466069006900900198C0F3C301C8
S31508004B1004F56B7000EB41100069C01CC0F38F06EA
S31508004B2074E04FF6FF71009801EA80050198C0F31A
S31508004B30C30104F56B7000EB41100069A84216D258
S31508004B400198C0F3C30104F56B7000EB4110008AAD
S31508004B5085B200200290029820F0806000F1806003
S31508004B600290E068806902998843E1688861019843
S31508004B70C0F3C30104F56B7000EB41100069C01C5B
S31508004B80C0F38F060198C0F3C302C0F3C30304F54C
S31508004B906B7000EB43102B46C168204600F010F9F5
S31508004BA00198C0F3C30104F56B7000EB4110C068AF
S31508004BB041190198C0F3C30204F56B7000EB42106B
S31508004BC0C1600198C0F3C30104F56B7000EB411096
S31508004BD00069411B0198C0F3C30204F56B7000EB32
S31508004BE0421001610198C0F3C30104F56B7000EB34
S31508004BF04110406941190198C0F3C30204F56B706E
S31508004C0000EB42104161606900690090009880B22B
S31508004C10B0420ADD0198C0F3C30104F56B7000EBDE
S31508004C204110006900287FF47CAF0120FEBD30B535
S31508004C3085B00446002000900390039820F01000E9
S31508004C4010300390E068806903998843E1688861B9
S31508004C50E068006A0490049800F00F00009004F1E0
S31508004C6090009DF8001050F8210000680190049803
S31508004C70C0F34340022806D0032878D0052877D009
S31508004C80072873D175E00498C0F30A10002869DD77
S31508004C9004F56B709DF8001000EB4110C068002801
S31508004CA060D00498C0F30A1204F56B709DF80030C2
S31508004CB000EB4310C1682046FFF7D5F8049800F0CA
S31508004CC00F0104F56B7000EB4110C0680499C1F33D
S31508004CD00A110144049800F00F0204F56B7000EB0A
S31508004CE04210C160049800F00F0104F56B7000EBE8
S31508004CF0411040690499C1F30A110144049800F06F
S31508004D000F0204F56B7000EB4210416104F56B70FD
S31508004D109DF8001000EB4110456904F554709DF8A4
S31508004D20001040F8215004F190009DF8001050F84A
S31508004D302100006902900298C0F3C940002811DDDD
S31508004D40019820F0004000F100400190019820F001
S31508004D508040019004F190009DF80020019950F8D8
S31508004D602200016006E002E002E0FFE700BF00BFA4
S31508004D7000BF00BF00BF039820F01000103003905A
S31508004D80E068806903990843E1688861012005B0F5
S31508004D9030BD000038B5044600200090074800687A
S31508004DA0016820468847009820F0080008300090DF
S31508004DB00098E1684861012038BD0000EC00002039
S31508004DC02DE9F04104460026E078B0B90027002016
S31508004DD0DD1C4FEAE57805EB98784FEAA80704F159
S31508004DE0D00555F822C000BF04E00D68CCF8005085
S31508004DF0401C091DB842F8D300BF3046BDE8F08113
S31508004E0000BFFEE702E008C8121F08C1002AFAD14F
S31508004E1070477047002001E001C1121F002AFBD12C
S31508004E20704770B504460D4629462046FBF72DFA0D
S31508004E30FCF722FA70BD000070B504460D46002046
S31508004E402071401E60622946204600F043FE08B1E4
S31508004E50032070BD94F8261294F8270241EA002030
S31508004E604AF65521884201D00220F2E794F86100FB
S31508004E70010694F8600041EA004194F85F0041EAAF
S31508004E80002094F85E10084320F07F400D498842C0
S31508004E9001D10020DDE794F87D00010694F87C0036
S31508004EA041EA004194F87B0041EA002094F87A1020
S31508004EB0084320F07F400349884201D10020C8E713
S31508004EC00120C6E746415400024600E0521C10780D
S31508004ED010B110788842F9D1107870470246891EB9
S31508004EE0D068801E884201D8002070479378106ADF
S31508004EF001FB0300F9E700002DE9F35F8A46DAF8BB
S31508004F00007000E07F1C38782F28FBD038785C28A2
S31508004F10F8D0009886690B222021304600F0D0FD93
S31508004F200025A946AB464FF0080800BF58460BF1C6
S31508004F30010B3C5C202C03DD2F2C01D05C2C00D10E
S31508004F4034E02E2C01D0C1450ED3B8F1080F01D19B
S31508004F502E2C02D00620BDE8FC9F4FF008094FF022
S31508004F600B08A806050EE1E7802C03DB45F00305D0
S31508004F700620F0E7214622A0FFF7A6FF08B1062083
S31508004F80E9E7412C04DB5A2C02DC45F0020508E06F
S31508004F90612C06DB7A2C04DC45F00105A4F120001F
S31508004FA0C4B2484609F101093454BFE700BF07EB0C
S31508004FB00B00CAF80000202C01DC042000E00020C9
S31508004FC00446B9F1000F01D10620C4E73078E52878
S31508004FD001D105203070B8F1080F01D1A806050ED9
S31508004FE005F00300012801D144F0100405F00C0077
S31508004FF0042801D144F00804F4720020ABE700004D
S31508005000222A2B2C3A3B3C3D3E3F5B5D7C7F0000D1
S315080050102DE9F04104460021204600F06EF80546C9
S3150800502015B12846BDE8F08100BF2169206800F067
S3150800503051FD054605B116E0666937780FB90425AE
S3150800504011E0F07A00F0080030B90B223046A16969
S3150800505000F016FD00B906E00021204600F006F82B
S315080050600546002DE1D000BF2846DBE72DE9F041D3
S3150800507004460F46E088461CB0B208B1206910B94C
S315080050800420BDE8F08106F00F0060BB2069401CD3
S315080050902061E06828B920680089B04223D8042036
S315080050A0EFE720688078401E00EA1610D8B9E16854
S315080050B0206800F089FB0546012D01D80220E0E7AB
S315080050C0681C08B90120DCE72068C068A84204D833
S315080050D00FB90420D5E70420D3E7E5602946206800
S315080050E0FFF7FCFE2061E6802068283006F00F01F5
S315080050F000EB411060610020C3E72DE9F04104464A
S315080051000E46E680A568012D03D02068C068A8422F
S3150800511002D80220BDE8F0812DB92068007803285E
S3150800512001D12068C56945B920680089B04201D80F
S315080051300220EFE72068C7691EE0206880784FEAFA
S31508005140001812E02946206800F03EFB0546681C58
S3150800515008B90120DEE7022D03D32068C068A842FB
S3150800516001D80220D6E7A6EB08064645EAD2294624
S315080051702068FFF7B3FE0746E5600FB90220C9E7C6
S3150800518007EB161020612068283006F00F0100EBA7
S31508005190411060610020BDE710B504460648FCF7DB
S315080051A002F828B10548007820F001000349087084
S315080051B00248007810BD0000FC800020D9000020BD
S315080051C02DE9F04105460F4690461C46002605B9CE
S315080051D014B90420BDE8F0811148007800F00100F8
S315080051E008B10320F6E70F48FBF7DDFF98B100BFCB
S315080051F06302424639460B48FDF754FB06460A4900
S315080052000848FDF78FF80748FBF7CDFF08B90120D6
S31508005210E0E7032EECD00EB90020DBE70120D9E742
S31508005220D9000020FC800020A8860020014609B18C
S315080052300120704701480078FBE70000D9000020EC
S3150800524070B50446204600F058FC05460DB9002006
S315080052502060284670BD0000F7B582B01646039850
S31508005260019001A800F024FB0546002D02DA0B2068
S3150800527005B0F0BD0E4850F825400CB1002020704E
S31508005280029810B10020029908700949029841F85D
S315080052902500029808B1012E01D00020E8E7002277
S315080052A003A902A800F0F6F807463846E0E700002A
S315080052B0F4000020F7B58AB00446174614B9092049
S315080052C00DB0F0BD0020206007F0010700220BA9F1
S315080052D003A800F0DFF80646002E2DD1CDF824D01D
S315080052E003A80B9900F028FA0646089D46B9089DBA
S315080052F00DB9062604E0E87A00F0100000B104268D
S31508005300D6B9A7710020E0712946039800F0F4FA8F
S315080053102061E87F0106A87F41EA0041687F41EAEB
S315080053200020297F0843E0600020A060A061039860
S3150800533020602068C088A0803046C1E72DE9FF4F6D
S3150800534083B0044615469946049800900020C9F88B
S315080053500000204600F0D1FB0290029818B102988E
S3150800536007B0BDE8F08FE07908B1E079F8E7A079F1
S3150800537000F0010008B90720F2E7D4E90210401A44
S3150800538001900198854200D9019D7EE02089C0F3ED
S31508005390080000285AD120688078401EA16800EAD3
S315080053A0512000F0FF08B8F1000F17D1A06810B916
S315080053B0D4F810B004E06169206800F005FA834665
S315080053C0BBF1020F02D20220E071C9E70BF101001E
S315080053D010B90120E071C3E7C4F814B06169206808
S315080053E0FFF77CFD074617B90220E071B8E7474486
S315080053F04FEA552ABAF1000F18D008EB0A002168BF
S315080054008978884203D920688078A0EB080A0AF0D0
S31508005410FF03216848783A460099FFF7D1FE10B194
S315080054200120E0719CE74FEA4A2622E0A069B842CB
S315080054300BD02168487801233A4604F11C01FFF78E
S31508005440BFFE10B10120E0718AE7A7612089C0F389
S315080054500800C0F50076AE4200D92E462089C0F372
S31508005460080204F11C0011183246009800F01BFBD4
S3150800547000BF009830440090A0683044A060D9F876
S3150800548000003044C9F80000AD1B002D7FF47EAF44
S31508005490002065E72DE9F74F88B0002108980160DC
S315080054A0099800F005FA07900798002803DA0B20F8
S315080054B00BB0BDE8F08F9E49079851F820400CB90B
S315080054C00C20F5E708980460207848B16078FFF763
S315080054D0ADFE82460AF0010010B900BF0020E7E7DA
S315080054E000202070079860706078FFF755FE8246A6
S315080054F00AF0010008B10320DAE700BF00273946A1
S315080055002046FFF799FC0546012D02D0002D2DD126
