:020000040000FA
:08000000E00E00209DBC000091
:020000040000FA
:10800000E00E00209DBC0000C1830000C983000079
:108010000000000000000000000000000000000060
:10802000000000000000000000000000CB83000002
:108030000000000000000000CD830000CF8300009E
:1080400000000000D18300000000000000000000DC
:10805000F78300002F840000378400003F84000075
:10806000478400004F8400005784000027840000EC
:108070000000000000000000000000000000000000
:10808000AFBC0000AFBC0000AFBC0000AFBC000044
:10809000AFBC0000AFBC00001985000035850000B2
:1080A000000000005F8400008F840000A5840000B1
:1080B000F98400000B850000038400001584000093
:1080C00000F002F800F030F80CA030C8083824188E
:1080D0002D18A246671EAB4654465D46AC4201D100
:1080E00000F022F87E460F3E0FCCB6460126334202
:1080F00000D0FB1AA246AB4633431847FC400000B1
:108100001C4100000023002400250026103A01D362
:1081100078C1FBD8520700D330C100D50B6070473F
:108120001FB51FBD10B510BD03F023FF1146FFF7AB
:10813000F7FF00F071FF03F03BFF03B4FFF7F2FF1E
:1081400003BC03F041FF000070B505460C4616461F
:1081500002E00FCC0FC5103E102EFAD2082E02D32B
:1081600003CC03C5083E042E07D301CC01C5361F3E
:1081700003E021782970641C6D1C761EF9D270BD55
:1081800070B57F4B7F4D19789E68CA06920EAC5A27
:10819000A852341B2018491C98601970597820295E
:1081A00006D2491CC9B2597003F0ECFD80B270BD13
:1081B000C002000C70BD70B5714B734D9978DE68CC
:1081C000CA06920EAC5AA852341B2018491CD8601B
:1081D0009970D978202906D2491CC9B2D97003F008
:1081E000D1FD80B270BDC002000C70BDF8B5044670
:1081F0000068664E624D002800D00047306832307B
:1082000068610020A8613068401C286160482060D7
:1082100030682969401A7DD4A869342148435D49F2
:1082200040182030407A02F028F93068401C28615C
:108230005948206030682969401A6BD402F019F956
:108240000146288B80B200F083FFA869401CA8611A
:108250000F28D8DB3068401C286150482060306807
:108260002969401A7FD4162002F007F93068401CB3
:1082700028614B48206030682969401A73D402F0A5
:10828000F8F82A7801469446D0063E4A800E135AE2
:10829000AF681152FB1A58186246521CA8602A7027
:1082A0006978202906D2491CC9B2697003F06AFDB9
:1082B00080B201E0C002000C3A49884201D93A4834
:1082C00007E0012109037D22091AD200504303F07F
:1082D00059FDA8803068401C28613448206030680F
:1082E0002969401A3FD40F2002F0C7F83068401CBB
:1082F00028612F48206030682969401A33D402F081
:10830000B8F8AA7801469446D0061F4A800E135A40
:10831000EF6800E027E01152FB1A58186246521C21
:10832000E860AA70E978202906D2491CC9B2E97030
:1083300003F028FD80B201E0C002000C1949884218
:1083400001D9194807E0012109037D22091AD20049
:10835000504303F017FDE8801648206030686969D3
:10836000401A00D44AE70020F8BD10B51249002099
:1083700008608021114802F018FF10BD0E4835E753
:108380000000002068040020A804002088000020CD
:108390000D820000B4000020318200005B820000EA
:1083A00073820000B70D000070170000DB82000030
:1083B000F3820000598300001C00002038000A509E
:1083C00010B502F0B3FF10BDFEE77047704770476D
:1083D0005A498868C20702D0594A0123137082079C
:1083E00007D5CA68920704D4564A53685B085B00F5
:1083F00053608860704710B503F01EFA03F020FA4E
:1084000010BD10B550480168491C01604F4803F089
:108410009FFA10BD10B54E480168491C01604D48D7
:1084200003F096FA10BD10B502F0BDFF10BD10B5F7
:1084300002F0D7FF10BD10B502F0F1FF10BD10B56E
:1084400003F00BF810BD10B503F024F810BD10B503
:1084500003F03DF810BD10B503F056F810BD70B52F
:1084600003F0BAF801213C488C050460BFF34F8F3C
:10847000BFF36F8F394A3A48138805885B19138018
:1084800000220280374804603748017070BD10B583
:1084900002F0D3F9102002F0BFF910BD10B503F0BF
:1084A00093FA10BD10B502F0C8F9044602F0E1F9E4
:1084B000200602D5802002F0AFF9600604D502F054
:1084C000DFF9402002F0A8F9A00604D502F0DCF99B
:1084D000202002F0A1F9200702D5082002F09CF923
:1084E000600708D502F022FAC00901D003F06CFA47
:1084F000042002F091F910BD10B502F09EF901F0D0
:10850000F3FC012002F088F910BD10B502F095F9D6
:10851000022002F081F910BD10B5144C204602F083
:10852000AEFE0F4B01461A882046521C1A8002F0FC
:10853000D8FE10BD10B501F09CFF10BD0001015028
:1085400060040020000001508800002000000B5053
:10855000B000002000400B5080E100E094000020BB
:108560008C00002000E100E09000002048000A504C
:10857000F0B50446006883B0002800D00047FE48EC
:108580000068FE4E6430F060FD480188FD480588B3
:10859000E1200001684303F0F5FBFB496A460B78D4
:1085A00013704B78537089789170D570290A1171C6
:1085B0005071000AF54D907128780D27FF010723AF
:1085C0000021C01901F0CFFC3078401C30708007CA
:1085D000800F04D0012817D002287DD1A3E0EC48F9
:1085E000694600880870000A4870EA480823008835
:1085F0008870000AC870287867252D016A46002116
:10860000401901F0B0FCABE000276846E24E07706D
:1086100039466A46107834224A4392192032927AB7
:108620008A401043491C6A46C9B210700829F0D329
:10863000577000220F2910D26B46587834234B43D1
:108640009B1920339B7A93401843491C521C6B465C
:10865000C9B25870D2B20F29EED369464878CF49D3
:10866000496B4906C90FC9010843694648708F70B4
:10867000002001466B469A78342343439B192033EC
:10868000DB7A8B401A43401C891C6B46C0B29A703F
:10869000C9B20428EED30021DF7008280FD2DA789F
:1086A000342343439B192033DB7A8B401A43401C0D
:1086B000891C6B46C0B2DA70C9B20828EFD300211A
:1086C0001F710C2811D21A79342343439B1920338C
:1086D000DB7A8B401A4300E042E0401C891C6B4669
:1086E000C0B21A71C9B20C28EDD300215F710F28F6
:1086F0000FD25A79342343439B192033DB7A8B40C2
:108700001A43401C891C6B46C0B25A71C9B20F286B
:10871000EFD328782B256D0106236A4600214019E6
:1087200001F021FC1CE09E48694600680870020ABE
:108730004A70020C8A70000EC8709A480A46008877
:108740000871000A48718E48082300888871000A61
:10875000C871287845252D010021401901F003FC3E
:1087600003F00CF990482060834801688348C06892
:10877000081A00D403E7002003B0F0BD70B58B4C9D
:1087800022202070082565700120A070884A0020F2
:10879000810051580B78442B05D14B78652B02D1C1
:1087A000897863290AD0401C0C28F1DB1220207143
:1087B00065715420A0712420E07170BD0A21401C15
:1087C00003F0EEFA00010843E070EFE770B50168CE
:1087D000694D6A4E82B00446002900D00847062041
:1087E0006A46107005205070232191701121D170BC
:1087F000002111711921517190711420D071082339
:1088000000216C4801F0AFFB2868FF30F530306183
:108810006948206028683169401AE0D5002002B01C
:1088200070BDF8B506460D46C806C10F53484170E5
:10883000A906C90F81702906C90FC17053490A786A
:10884000012A08D000244D4841788278C07811432D
:10885000014302D022E00224F5E74C480278012AC5
:1088600004D0022A1AD0032A18D10EE0342021465F
:108870004143494809180F4650A003F06FFA0028F9
:108880000CD001202037B87212E0342042496043F6
:1088900041184CA003F062FA002809D13046E040AC
:1088A000C20734203C496043D20F40182030827206
:1088B000641C0F2CC7DB35480078012802D12846FC
:1088C00000F01CFEF20B4021404802F076FCF8BD9F
:1088D000F0B5044600688DB0002800D00047264857
:1088E00001687D20400109182448416138482A4E1A
:1088F0000390304640300B904030029040300A9058
:10890000403009904030089040300790403001904E
:108910004030069009208001301805900520C001E4
:10892000301804900B20800130182A4D00902A48FE
:10893000206001F0E1FA002805D10F4801680F48D6
:108940004069081A7ED40C4801680C484069081A2E
:108950000AD40948006821494118084841610021AA
:1089600081800846FFF75DFF01F0C6FA0028DED0DF
:108970001B4801F0C4FA35E08800002020000020E8
:10898000140400209C000020E2030020DC030020EF
:108990000400002006000020B400002040000A501F
:1089A000A40000209A000020658700004C000020F1
:1089B000540000202E0500001188000041303720AF
:1089C00041313200413032204131330074000A50CD
:1089D000E904002044000020ED880000102700007A
:1089E000E8040020F94FFA4A3868811A904271D0A1
:1089F00033DCF84A811A904207D027DCF649411A45
:108A000003D0012901D0022991D1F4490A78F4490F
:108A100051188842387A75D1052865D0062886D144
:108A200007202870080A6870A9707020E87001207B
:108A30002871212068710520A8711020E871082391
:108A4000E84A00E08BE10021E74802E1EA297CD016
:108A5000EB293FD0EC29D7D1DEE09E2962D006DC9D
:108A6000702918D091291ED09D29CDD15AE09F2977
:108A700058D0D129C8D1D948002100784000801EA3
:108A8000C0B23B1808333420484380192030027CA0
:108A9000002A20D024E0D548397A0170797A4170D3
:108AA000B97A817043E7D24801687D2040010918F6
:108AB000D0484161FA7BB97B1202891889B2818062
:108AC000C64800780428EDD04000C019C088FFF7E0
:108AD000A8FE2CE793E01A88CA40D207D20FC273CF
:108AE000491C0F29CFDB22E701215F2002F033F977
:108AF000BFF34F8FC148C049C160BFF34F8F00BF64
:108B0000FDE7FFE7012805D00328CBD1012001F0C4
:108B100062FA0CE7B748002181800846FFF781FE22
:108B20000020F4E7AD496B220978120189188842C8
:108B3000B8D1387AAE28B5D1787AEA28B2D1BFF365
:108B40004F8FAE48AC49C16000E003E0BFF34F8FE8
:108B500000BFFDE7387A592834D006DC562809D002
:108B6000572814D0582857D11CE060283CD06328DF
:108B700052D145E0A24802230178297040786870FC
:108B80006120984A0021000101F0EDF944E0B87A33
:108B9000002800D00120797A3422514389192031EC
:108BA000887239E0787A342148438019408C2870E3
:108BB000000A6870612002238A4A0021000101F046
:108BC000D2F929E08F48042300882870000A6870D1
:108BD0008D48844A0088A870000AE870612000214E
:108BE000000101F0C0F917E08848022300887D4A9F
:108BF000000A287061200021000101F0B4F90BE0A7
:108C00007F4802238078774A8007800F2870612090
:108C10000021000101F0A7F9704B61201A780001D2
:108C200039681018814286D1397AA1296AD013DCBB
:108C300056291CD0592938D05C2975D0A029F2D1E9
:108C400029707349032309886970090AA970654A64
:108C5000002101F088F96AE6A3297DD0FE297CD0A5
:108C6000FF29F8D1708CFF2878D9FF209FE0039866
:108C7000417A027A08026649104308806548664DC9
:108C80002060286800286DD10120286001F02EF8AE
:108C90000020014628605148022305786120000128
:108CA0005EA2281801F05FF920E648485C4B017B82
:108CB000C27A090612040A43817A407A09021143F2
:108CC000084318605748206053480168002949D17B
:108CD0000121016054490020086054482060524836
:108CE00000F0CCFE02283DDB4B4900200860014625
:108CF0003A4802230578612000014DA2281801F0AE
:108D000032F9F3E5A1212970454905230968697005
:108D10000A0AAA700A0CEA70090E2971314A002168
:108D200001F021F903E6FFE70398417A027A08028D
:108D300040491043088040482060374801680029B6
:108D400010D1012101603849002008603B482060B3
:108D5000354800F093FE03E015E021E026E001E055
:108D6000022802DA00200DB0F0BD2B490020086077
:108D700001461A48022305786120000130A2281814
:108D800001F0F1F8B2E5A32129702A4903230988EB
:108D90006970090AA970134A002101F0E4F8C6E5D8
:108DA0000823284A002101F0DEF8C0E5C0B228708F
:108DB0000B98C08AFF2801D9FF2000E0C0B268707C
:108DC00002984089FF283FD9FF203EE0E8040020B8
:108DD000130600002605000020050000DC0300202B
:108DE0001F050000440000202E0500002600002082
:108DF00088000020200000200400FA0500ED00E0BB
:108E0000E203002004000020060000209C00002057
:108E1000140400207D8C00008400002056550000C2
:108E2000A4000020C58C000038000020DB8C00006E
:108E3000595500009A000020378D00004D8D00002C
:108E40005C5500004C000020C0B2A8700298C08F92
:108E5000FF2801D9FF2000E0C0B2E8700A98408ED8
:108E6000FF2801D9FF2000E0C0B228710998C08C0A
:108E7000FF2801D9FF2000E0C0B268710898408B3C
:108E8000FF2801D9FF2000E0C0B2A8710798C0896F
:108E9000FF2801D9FF2000E0C0B2E871500033493B
:108EA0001F4640180823324A002101F05CF801985F
:108EB0004088FF2801D9FF2000E0C0B22870019847
:108EC000C08EFF2801D9FF2000E0C0B2687006986C
:108ED000408DFF2801D9FF2000E0C0B2A87005989E
:108EE000C08BFF2801D9FF2000E0C0B2E8700498D1
:108EF000408AFF2801D9FF2000E0C0B22871009805
:108F0000C088FF2801D9FF2000E0C0B26871009836
:108F1000408FFF2801D9FF2000E0C0B2A8710020D7
:108F2000E87138781349400040180823104A00219E
:108F300001F019F8FBE41049002008600F490860AF
:108F4000704710B50C48FFF713FB0C48FFF7C0FC47
:108F500010BD0B480078042807D110B50648FFF76C
:108F600035FC0648FFF7B4FCF8E770478E060000B2
:108F7000440000208F0600003C000020400000203C
:108F8000DC03002070B504461C480D46844201D322
:108F9000002070BD01F0CDFF0028FAD0A0088000AD
:108FA00005221749120711603C215160332191605D
:108FB0000560012070BD10B4022912D94318203B6E
:108FC0009C7F0022FF2C0CD0891E04D4445CA21884
:108FD000D2B2491EFAD5D87F904202D110BC0120EE
:108FE000704710BC0020704702460020891E04D440
:108FF000535C1818C0B2491EFAD57047FF070040ED
:1090000078CD0000704770477047704770477047D1
:10901000704770477047704700F048FF00F004FD4C
:10902000FFF7ACF900F0D0FB00F0C9F900F01DFF2C
:1090300000F076F8FFF785FF01F033F801F0A6F8AD
:10904000FFF7E9FFEAE70000F8B5044600680026EC
:10905000344D002800D0004733482060287800288D
:1090600053D0012131482E7049060160BFF34F8F64
:10907000BFF36F8FA8882E4AAE8011602989091826
:1090800089B2298100916978092901D3002202E07F
:10909000491CCAB26A706A70A9780A2902D2491CAE
:1090A000C9B2A970A9708C46224952008B5AEF8828
:1090B0008852FB1AC01880B2E8800A2148436146F2
:1090C00002F060FEA8811C480188009802F05AFE58
:1090D00029816989C0B209186981696908186861BC
:1090E000A9698142B8D21548206015480168002955
:1090F0000AD101210160134806601348206011481D
:1091000000F0BCFC022801DA0020F8BD0C48066023
:1091100068690A30A8619FE70C4900200860704721
:109120000A4891E7900000205990000080E100E09B
:1091300000E100E0F804002014040020E7900000A3
:1091400084000020A0000020FB900000AC00002064
:109150003422BA4B30B44243D218538CDC08D36863
:109160004B43990DCB00591A34235843C908B34BCC
:1091700061185184C018D48CB14B2030A14207D95A
:10918000D1691A68511A01D40221017330BC7047A9
:10919000958C0024A9420FD9017B022900D10473C8
:1091A00051691C68611A01D401210173108C19687E
:1091B0004018D06130BC7047118B1D68491951614E
:1091C000118C1B68C918D161047330BC7047F8B5A5
:1091D0000D4606462C463168012000272034002920
:1091E00000D00847607B05287ED2010079440979C8
:1091F00049188F44020F485C9200E772A868016822
:10920000227A914301608F483060A07A00284DD0C7
:10921000012055E0E772E07B002832D08A480068E0
:109220002861607CE074A17C88422AD2E17C2869B4
:1092300040182861A8680168227A114301608348B8
:109240003060814928690968091A7AD4A17CE27CD6
:10925000891A08182861A8680168227A9143016078
:109260007B483060784829690068401A69D4A07A40
:1092700000286ED0E07C401CC0B2E074A17C884223
:10928000D4D302201CE0A8680168227A114301604F
:1092900070483060A07A002812D0207B002803D0CC
:1092A0000220E07203200BE0E7720020F8BDA868FE
:1092B0000168227A91430160A07B032802D3042035
:1092C000607347E0401CA0735D4800686249401825
:1092D0002861624830605A4829690068401A02D5FE
:1092E000A07A00282DD100E033E001215C4801F094
:1092F00060FF53480068801C28615A48306050481D
:1093000029690068401A1CD40121554801F04DFF1D
:10931000A07A002800D07BE7D2E753483060A07BDA
:1093200003280ED201214E4801F043FF4448006853
:10933000801C28614D483060414829690068401A06
:1093400001D50020F8BD0121454801F02EFF6773CB
:1093500000E06773002046493160002800D041E7F3
:109360000120F8BDF8B501213D4801F01EFF0025A0
:10937000324E2F463F48A90047503F480078012809
:1093800019D134206843841921463CA002F0E6FC40
:10939000002802D001212A200155214639A002F0DF
:1093A000DDFC002807D020462821203041743C21D4
:1093B0008174E08CA0846D1C0F2DDBDBF8BD10B533
:1093C0001E492C48FFF703FF30493148FFF7FFFEE5
:1093D00030493148FFF7FBFE30493148FFF7F7FECF
:1093E00030493148FFF7F3FE30493148FFF7EFFECF
:1093F00030493148FFF7EBFE30493148FFF7E7FECF
:1094000030493148FFF7E3FE30493148FFF7DFFECE
:1094100030493148FFF7DBFE30493148FFF7D7FECE
:1094200030493148FFF7D3FE30493148FFF7CFFECE
:1094300030493148FFF7CBFE10BD0000B4000020DA
:109440008800002007920000B00000203F9200003A
:1094500061920000919200000F270000D39200005B
:1094600064000A50FB9200001B930000359300003B
:10947000579300000C050020DC030020413037200A
:10948000413132004130312041303900E8000020C4
:10949000100500201C0100201405002050010020B0
:1094A00018050020840100201C050020B8010020C0
:1094B00020050020EC0100202405002020020020CF
:1094C00028050020540200202C05002088020020DE
:1094D00030050020BC02002034050020F0020020EE
:1094E00038050020240300203C05002058030020FC
:1094F000400500208C03002044050020F0B48106C4
:109500008A0F0027B449002A09D08207D30FC40765
:109510000207E40FD20F4507ED0F4D7203E0002460
:10952000234622464F72450605D44D7A012D00D0C0
:109530000025AA4EB574002C02D002220A7209E05E
:10954000002B01D0032202E0002A02D001220A727D
:1095500000E00F728205D20FCA70C205D20F4A70A6
:10956000000B14225043C0B28870142800D8142075
:109570008870F0BC70479A48406AC006C017401C0B
:109580007047F8B5044621680120964E0027924D99
:10959000002900D008479448EA790146203140303C
:1095A000062A6ED213007B441B79DB189F44020904
:1095B000387EE26A8D482060287A697A084374D040
:1095C000D6E06A7A012A01D103222A702A7A022A75
:1095D0000FD08F7201218177306868613068E86050
:1095E000834820607E48406AC006C017401C7DD179
:1095F00003E001228A728777F0E730680A30286139
:109600007C48206030682969401A6FD47A4820600D
:109610007348406AC006C017401C67D1022042E070
:1096200076482060687A2979884209D12A7A6B794C
:109630009A4205D16A4A526AD206D217521C55D0B4
:10964000884219D1297A6A79914215D12A78002A5B
:1096500002D0521E2A700FE001290DD831686A69C4
:10966000891AFF222D32914206D96878002801D04C
:10967000032018E0052016E02871287A687101207F
:10968000E8718AE08F72877730680A3028615C4819
:10969000206030682969401A63D4287A00287BD07A
:1096A000012865D10420E87177E05BE08F7287774D
:1096B0003068A978401828615248206030682969CC
:1096C000401A4ED4E87800282AD04F480068286114
:1096D000AF71A97928694018286108214B4801F029
:1096E00064FD4B4820604848016800E039E0286983
:1096F000091A36D4A9793222511A0818286108218A
:10970000424801F056FD434820603F4829690068FF
:10971000401A26D4A879401DC0B2A8713228D8D3E7
:1097200008213A4801F041FD3068FF30F5302861EA
:109730003948206030682969401A05D5287A0128FF
:1097400002D8687A00280DD00821304801F031FD98
:1097500030680A3028613148206030682969401A31
:1097600001D50020F8BD287A002815D0012899D00D
:10977000012098E7E868002817D029494018286197
:109780002848206030682969401A02D5287A0128C3
:109790000DD0287A0028EBD1EF71002022492160FA
:1097A000002800D0F7E60120F8BD3068E7E7687AC6
:1097B0000028DDD1F8BD10B50821144801F0F9FCEE
:1097C0001A490020086010BD19480078012801D10D
:1097D0001648D6E670470000C00300203401002080
:1097E00040000A5088000020B4000020B595000019
:1097F000E1950000019600000D9600002196000002
:109800008F960000B9960000B000002084000A5036
:10981000E39600000797000031970000579700007B
:1098200088130000819700009D970000D803002056
:10983000DC030020F8B5824E00250421304601F0FB
:10984000B8FC00BF0421304601F0AFFC7D4F00247E
:109850000421384601F0ADFC6804060C202178484C
:1098600001F0B5FC304305460421384601F09DFC6B
:10987000641C102CECDB7449E8430870000A734A3E
:109880004870506A526AC006C017401C4000120758
:10989000D20F80188870F8BDF0B5054600686C4F8F
:1098A000C1B0002800D000476A480068401CF8603A
:1098B0006948286067480068F968401A02D50020A6
:1098C00041B0F0BD7888614940044A6A000CD20674
:1098D000D60F06437E80B888496A4004000C090709
:1098E000CC0F0443FF22BC8001325C496846FEF77E
:1098F0002BFCE1B26846415C220A805C0818C0B2C9
:10990000082801D3012400E000244F48FF2284707E
:10991000013252496846FEF717FCF1B26846415CD5
:10992000320A805C0818C0B2082801D8012000E083
:1099300000204100444809198170B5E770B50168FD
:10994000444D434E0446002900D00847286814308F
:1099500030614348206028683169401A01D50020F1
:1099600070BDFFF767FFF1E7F8B50446384D0068B2
:10997000384EAF1D002800D000473068FF304E3011
:1099800068613848206030686969401A2DD401F058
:10999000F5FF3068FF304E30686133482060306832
:1099A0006969401A21D401F0E9FF3068FF304E3078
:1099B00068612E48206030686969401A15D41EE03D
:1099C0002B48206030686969401A0ED4FFF732FFD7
:1099D00078788006800F687030680A3068612548A2
:1099E000206030686969401A01D50020F8BDFFF792
:1099F00021FF78788006810F6878814205D001F0D8
:109A0000BDFF30680A306861DAE7401C287000202A
:109A100020600320F8BD10B5174900200860102110
:109A2000084801F0C2FB10BD134887E710B5124883
:109A3000FFF79AFF0328FAD10F490020086010BDF4
:109A400064000A5074000A50E203002040000A50EB
:109A5000DC03002088000020B19800002CC000002A
:109A600053990000839900009B990000B39900006E
:109A7000C1990000DF990000F4030020F8B5044606
:109A80000088654F654E664D4E2832D004DC0028B4
:109A900007D0482862D11AE053283FD059285DD119
:109AA0004EE060480821006838605F480088B88050
:109AB0005520B8715848FFF797FAF8710021022035
:109AC00001F04BFA30681930686048202080306817
:109AD0006968401A38D45548A86000202860800082
:109AE0003958A868FFF74EFA3068401C68604E206D
:109AF000208030686968401A26D4A868001DA860D4
:109B00002868401C28600228E9D30021032001F0C6
:109B100024FA306819306860532020803068696802
:109B2000401A11D44248A8600020286080003958AB
:109B3000A868FFF727FA3068401C68605920208029
:109B400030686968401A01D50020F8BDA868001D7A
:109B5000A8602868401C28600228E7D300202080E5
:109B60000320F8BDF0B583B002222B492F4801F045
:109B7000CDFA022269462E4801F0C8FA082126488B
:109B8000FFF719FA044608216846FFF714FA400067
:109B9000214D244E244F044304D0012C1FD0022C0D
:109BA00033D124E05524AC7100202860A88008211E
:109BB0001948FFF719FAE871306828603888A880DA
:109BC000AC7108211448FFF70FFAE8710121022057
:109BD00001F0C3F902221049144801F048FA0121AA
:109BE000032001F0BAF902220B4911480BE00C489E
:109BF000019A00990261C1600121022001F0ADF9D2
:109C000002220549094801F032FA28683060A88824
:109C1000388003B0F0BD000004040020880000205C
:109C2000F8030020A40000209A00002080000040DB
:109C3000C0000040F8B5044600880026624F634D1E
:109C4000352825D004DC002807D02F284BD10FE081
:109C50003A282ED0402846D13AE004215A48FFF74E
:109C6000C3F9F8700021084601F077F92F20208011
:109C700001F05FF9002838D0012080072E6068606D
:109C80003046800039586868FFF77CF9352020801D
:109C900001F04FF9002828D06868001D6860286826
:109CA000401C2860EDD00021012001F056F93A2037
:109CB000208001F03EF9002817D045482E606860EA
:109CC0003046800039586868FFF75CF940202080F2
:109CD00001F02FF9002808D06868001D6860286826
:109CE000401C2860EDD026800320F8BD10B504216B
:109CF0003548FFF779F93449C8700121002001F097
:109D00002CF901223049900701F0B1F901210846F0
:109D100001F023F901222C492D4801F0A8F910BDCA
:109D2000F8B5012295072849284601F0EFF9284E99
:109D300001226946304601F0E9F904212248FFF783
:109D40003AF9044604216846FFF735F94000044318
:109D500014D0012C30D0022C0FD11C486946098840
:109D600001816946498841810121002001F0F5F80F
:109D700001221549284601F07AF9F8BD124CAA20B3
:109D8000A0704B208001208004212046FFF72CF991
:109D9000E0700121002001F0E0F801222146284670
:109DA00001F065F90121084601F0D7F801222146AA
:109DB000304601F05CF9F8BD0121084601F0CDF80C
:109DC000012201493046D6E7140400200C0400208B
:109DD00040000040F8B504460068254D254E264F4A
:109DE000002800D0004729687D20C0000818706056
:109DF0002248206028687168401A1FD42048406BB0
:109E0000000724D429687D20C000081870601D4810
:109E1000206028687168401A10D41B482060386898
:109E200000280BD101203860124900200860174833
:109E300020601048FFF722FE022801DA0020F8BD5A
:109E4000002038600221124801F0B3F9CBE702216B
:109E50000F4801F0AAF9C6E710B502210C4801F03D
:109E6000A4F90C490020086010BD0A48B2E70000C0
:109E7000880000201804002084000020F19D0000CC
:109E800040000A500F9E00001B9E00002F9E000005
:109E900048000A5020040020704710B572B601F047
:109EA00092FE10BD62B670477047704770B50A4C9D
:109EB0000A4DAC4204D220688047241DAC42FAD33C
:109EC00070BD70B5064C074DAC4204D22068804787
:109ED000241DAC42FAD370BDB8C10000F0C100002F
:109EE000F4C10000F4C1000010B5734800F0F4FBA9
:109EF00072490120086010BD70480068704770B456
:109F00006E4C216800292BD001256D492D070D606D
:109F1000BFF34F8FBFF36F8F674A117C4171517C44
:109F200001714179002901D0516800E01168016098
:109F3000937C8371082B00D9082300218371002BA7
:109F400007D953181B7A461833728379491C8B4200
:109F5000F7D85C4805600020206070BC0120704785
:109F600070BC00207047F0B4544C6568002D02D0DE
:109F7000F0BC02207047A468266825696768AE1B9C
:109F8000FE421CD024686D1E2C404F4D24016419E4
:109F90006171002121712060A371082B00D9082371
:109FA000A3710020115C2318401C19720828F9D3F2
:109FB00046490868401C0860F0BC00207047F0BCAF
:109FC0000120704710B40246046883794179204625
:109FD00010BC0832C7E73949002801D0002000E052
:109FE000012048607047F8B504460068384E334D8C
:109FF000002800D0004737482060A8680168426800
:10A0000091423BD041680069401E014008012E4941
:10A0100042183149507908741079487450790028F1
:10A02000106801D0486000E0086093798B74082BB9
:10A0300000D9082300208B74002B07D913181B7A32
:10A040000F183B728B7C401C8342F7D81F4948682D
:10A05000401C48600120E8601F4800F084FB00F0CD
:10A06000E1FB30680A3028611C48206030682969AB
:10A07000401A05D500F0E1FB800701D40020F8BDAF
:10A0800000F0DBFB800703D5022000F0C5FBB2E740
:10A09000022000F0C1FBE868411CE9600328DBD323
:10A0A000A9E710B50E48FFF79EFF00F03FFC000641
:10A0B00001D501F089FC10BD5C05002024040020BE
:10A0C00080E100E000E100E0700500203C04002099
:10A0D00088000020F79F00004805002069A00000CC
:10A0E00038040020F0B42A48007803284BD12948CE
:10A0F00029490268002A00D01047284A1268294BD3
:10A1000064328A60264A1B7812781A4334D18A5600
:10A11000002A01D0521E0A70234A012552780A27CC
:10A1200053070026002B05DA4B78002B03D14D7026
:10A130000F7004E04E700023CB56002B01DD01238D
:10A1400000E00023194CA3770223CB56002B01D04B
:10A150005B1E8B70920705D5CA78002A03D1CD709B
:10A160008F7004E0CE7002228A56002A01DD01229F
:10A1700000E000220E4B9A740E4A0260074A1268F1
:10A180008B68D21AB9D5F0BC00207047AAE700004E
:10A19000DC03002058040020540400208800002024
:10A1A0002100002022000020E20300209402002071
:10A1B0003401002079A100004022B849530401284D
:10A1C000086808D090430860B5480360BFF34F8F1C
:10A1D000BFF36F8F704710430860B2480360704749
:10A1E000B149012800D0002008607047AB49002227
:10A1F0008A618A6902438A617047C2B2012A3FD1EB
:10A2000070B40204130EA54A20240825102689B232
:10A21000002B0CD0000C012B15D0022B1FD0506846
:10A22000A04350605068A843506070BC70475068AD
:10A23000204350605068A84350605068B04350605D
:10A24000D16070BC70475168214351605168A94387
:10A250005160516831435160D06070BC70475368A1
:10A260002343536053682B43536053683343536015
:10A2700053680424A3435360D060116170BC7047DD
:10A28000704770B4C2B285494023002A14D0012A15
:10A290004A6815D09A434A600204120E002602242E
:10A2A000814D012A0ED0022A12D04868032A19D003
:10A2B0009843486070BC70474A689A434A60EBE72D
:10A2C0001A43E8E7486820434860EE6070BC704776
:10A2D0004A68A2434A600121E9607449000CC863DE
:10A2E00070BC7047A0434860EE6070BC70470FB40C
:10A2F000F0B58446694C1F20099D2060CAB2202019
:10A30000012A22681AD082432260002060606061C6
:10A310000804000E0421012812D00028606913D01F
:10A32000084360616046C6B2614880218E4600687D
:10A33000604988422BD1002E08D008E00243E3E7B1
:10A34000606908436061EDE78843EAE71026402E24
:10A3500019D006DC102E0BD0202E10D0302E37D185
:10A3600011E0502E0FD0602E0DD0702E30D103E0B2
:10A3700001230C22302134E0012304221BE00223BC
:10A380000C2220212DE002230022102129E04A493D
:10A39000884221D13007000F1AD13011082817D276
:10A3A00001007944097949188F4403070E0E0E0EF7
:10A3B0000E0B00230C22302113E001230C2220215C
:10A3C0000FE00123042248E001230022102108E0CD
:10A3D00000231A46194604E0002E3CD000231A46FA
:10A3E000102167697020874367616069304360614D
:10A3F0007046084310433149184388636046000C97
:10A40000E0611920C863284F00263E617E610899EB
:10A410003046090C084380B229040843FFF731FF96
:10A420002A0C10460A9A80B2120410430A9A090CA8
:10A43000120C09041143FFF7E0FE0798A661A16919
:10A440000143A1613E600898C0B2FFF7B5FEF0BCC1
:10A4500008BC04B0184700230C222021C1E718488B
:10A460000E490A68401E120601D40028F9D10120C5
:10A4700070470A48806880B27047E0210843074966
:10A480000A681F231A430A600A6802400A6070477C
:10A4900002498A6982438A617047000000000950BE
:10A4A00080E100E000E100E080000950000006507B
:10A4B000640400200048E8010024F4004000095032
:10A4C00030750000FA490A6902430A617047F94889
:10A4D00000214160012141607047F0B50D4687B011
:10A4E0009E460646F34900200E9B94464860012094
:10A4F0004860F14904248C61F0498863EC4A116892
:10A5000001431160F0B2012804D0022806D00328CC
:10A510000CD107E010680221084301E010682043D5
:10A52000106003E050681021084350603002000EB4
:10A53000310E092949D20C007C4424792419A744FE
:10A54000040F18233277899BA000022822D001280B
:10A550000CD0002801D10F2009E0002001461DE0A9
:10A5600002281ED0012815D00028F6D1072001218D
:10A5700014E002285AD001281BD0002801D107205E
:10A580001AE00020014618E0022805D0012808D072
:10A590000028E2D10320EAE7002001210D2704244E
:10A5A0000DE00120E3E7022805D001283ED0002875
:10A5B000E7D1032000E0002001210A27032400291D
:10A5C00003D0906120013843D06190691446310472
:10A5D000090E08439061D069E9B20843D0612804AC
:10A5E000000E5063119A0F981099039200930291F4
:10A5F0000190149A1399129806920591049071464D
:10A6000060460D9B0C9A00F0CDF920684008400090
:10A61000206028022169000E01432161280EA84B09
:10A62000A849A94A040731D50B6034E00120C3E7EB
:10A63000022807D0012809D00028C6D101200D2703
:10A640000424BEE7002005270224BAE700200D27D6
:10A650000424B6E7022807D0012809D00028B4D185
:10A6600001200A270324ACE7002004270124A8E7DF
:10A6700000200A270324A4E70128E3D00028E5D01E
:10A68000A3E70128F0D00028F2D09EE71360BFF3C3
:10A690004F8FBFF36F8F8D4B440701D50B6004E0E4
:10A6A0001360BFF34F8FBFF36F8F894B840701D5C2
:10A6B0000B6004E01360BFF34F8FBFF36F8FC307CE
:10A6C000844801D0086004E01060BFF34F8FBFF3EF
:10A6D0006F8F012007B0F0BDF0B4754BD968C90782
:10A6E0003ED0764C6168A268E56826692468270632
:10A6F0000124002F09DA4905520311436A0111436D
:10A70000F20804741143416005E00025C9005209B4
:10A7100005741143016069490A68520601D5447401
:10A7200001E00022427409680907090F81740829B1
:10A7300001D908218174827C0021002A09D98A006C
:10A74000D218526D44182272491C827CC9B28A42C6
:10A75000F5D85868042108435860F0BC01207047C0
:10A76000F0BC0020704730B4002844D050498968BC
:10A7700049074ED5037C002B3FD04268FF25D1000E
:10A780000C0E2146D402240E2D022402A9432C4093
:10A790002143D404240E2D022404A9432C40214338
:10A7A000D2061143827C1207120F002B01D08023A6
:10A7B0001A43437C002B01D040231A433F4B1A60BD
:10A7C000CAB25A600A04120E9A600A02120EDA60C5
:10A7D000090E1961017A5961417A9961817AD961C9
:10A7E000C17A1962017B5962417B9962817BD9628E
:10A7F000C07B1863012030BC7047028851050C0EE5
:10A800002146FF2452072402120EA14312022240C5
:10A81000C7E730BC002070472F4908602549012058
:10A82000886070472C490220086022490120886016
:10A830001F494A6802434A6070471D48C068C0B259
:10A84000704730B42548244A1A4C194D0123E96851
:10A85000401E890705D502201060A36030BC01208E
:10A8600070470028F3D102201060A36030BC0020A4
:10A8700070470F48006B184A01215160C0B2704701
:10A880000B48C06AC0B270470948416803221143AF
:10A890004160704710B40124054B012A5A6A1FD049
:10A8A000A2435A6202220028586A1BD010431AE0C1
:10A8B00000000550400001500000015040000550CC
:10A8C0000000000400E100E080E100E0000000087A
:10A8D00000000010000000208000055030750000CE
:10A8E0002243DEE790435862F948002902D0846091
:10A8F00010BC70470021816010BC7047F649F548D4
:10A900004A6820231A434A600A6A401E002A01D07E
:10A91000012070470028F7D17047F048406BC0B263
:10A920007047ED490A6982430A617047EA488068C6
:10A93000C0B2704730B5FFF716FFE54B0220186034
:10A94000E74C0122A260E44D686810436860E1486A
:10A95000E968401E890703D502201860A26030BD57
:10A960000028F5D1F8E7DC48C06BC0B27047DA4880
:10A97000806BC0B2704710B5040008D1D948406858
:10A98000000704D400F045FE002800D10124D4487B
:10A99000046010BDD0488068400701D50120704791
:10A9A000002070470FB4F0B4CFA001686846057C62
:10A9B000C27C437C807CEF24012D52D0002B76D0CA
:10A9C0000998FF22C000000E034609981202C00237
:10A9D000000E00029343104003430A981202C00085
:10A9E000000E00049343104003430A98400B0006F6
:10A9F00003430C980004020E080A000210430C994D
:10AA0000FF2209061202090C9043114008430D99D8
:10AA10001202090A090490431140084300020D99EB
:10AA2000000A09060843AC490C68082294430C60EC
:10AA3000AA49DAB20A601A04120E4A601A02120E09
:10AA40008A601A0ECA60C2B20A610204120E4A611A
:10AA50000202120E8A61000EC861F0BC012004B02F
:10AA60007047002B059B23D0DB001C0E2346059C62
:10AA7000FF25E402240E2D022402AB432C40234385
:10AA8000059C2D02E404240E2404AB432C402343F4
:10AA9000059CFB25E406260E3406234304240028E7
:10AAA00066D01B0226431B0A3006034365E095E08F
:10AAB0005B051D0E2B46059DFF266D0736022D0EEC
:10AAC000B343FF272E023F023E403343002808D005
:10AAD000102005433846834328023D46284003435F
:10AAE00008E0FF200002254083432802FF252D02B5
:10AAF000284003436846007EFF252D040004AB4335
:10AB0000284003436846407EFF260006034307981B
:10AB100036024005050E080A00020799284349013C
:10AB2000FF251F312D02C9B2A8430D02354028432D
:10AB3000002A06D0214032460902904311400843C2
:10AB400007E010221143FF22120209029043114034
:10AB5000084308A90978FF22120409049043114010
:10AB6000084308A949780002000A090608432FE0B3
:10AB70001B022E401B0A300603430798C000060E36
:10AB8000080A000207993043C902FF26090E36025F
:10AB90000902B043314008430799360249090904C4
:10ABA000B0433140084307990002C906090EC91D88
:10ABB000000A0E063043002A05D000022940000A90
:10ABC0000906084304E000022143000A090608437D
:10ABD00041490A68082422430A6029E7099BFF27A4
:10ABE0005B051B0E1D46099B3F025E0108AB1B7BEC
:10ABF0009C461B091E43F3B2FF263602B5431E02D4
:10AC00003E403543002807D0102633433E461B0202
:10AC1000B54333401D4306E0FF26360223401B02A6
:10AC2000B54333401D430A9BFF265B051B0E3604CC
:10AC30001B04B54333401D430A9B664636075B0140
:10AC4000360F3343DEB233061D43002806D01020F2
:10AC50002B0206431B0A3006034304E02B02264066
:10AC60001B0A300603430C980E0A4005000E3602FC
:10AC700006430C98FF27410108A8007E3F02050902
:10AC80002943CDB2FF2109028E43290239400E43E8
:10AC90000D993F02C9080904BE4339400E430D997E
:10ACA00000074901000F01433002C9B2000A0E0635
:10ACB0003043002A1AD03A12254090432A023D120E
:10ACC0002A40104300022140000A09060843AAE670
:10ACD0008000055030750000000005504000055010
:10ACE0004000015000000150FFFFFFFF1022FF2431
:10ACF00024021543A0432C02FF252D022C402043A3
:10AD000000021143000A090608438CE6F6480121B7
:10AD100001600068012800D000207047F24800213F
:10AD200001600068002801D00020704701207047B2
:10AD300005200007C068C00700D001207047EB481D
:10AD400005210907CA68401ED20701D001207047BB
:10AD50000028F7D1704760280BD205221207D3686C
:10AD6000DB0706D0E24B80021360002903D0A52345
:10AD700002E0002070475A2353605523936000235C
:10AD8000002800D00360002904D0D848D168401EB4
:10AD9000C90701D0012070470028F7D17047F8B5E6
:10ADA0000C0005461DD0D24F3E07602D1DD2F06825
:10ADB000C0071AD0A8023760A52171605521B16083
:10ADC000002801D000210160C848F168401EC90771
:10ADD00009D0641E6D1CE4B2EDB200F0CFFD002C72
:10ADE000E3D10120F8BD0028EFD10020F8BD0521F6
:10ADF0000907CA68D20705D0BD4A0A60002803D0F7
:10AE0000A52202E0002070475A224A60AA228A60E6
:10AE1000002804D0B548CA68401ED20701D00120DE
:10AE200070470028F7D17047B24A90420FD80522E8
:10AE30001207D368DB070AD08008AD4B800013608F
:10AE4000A5235360332393600160A84801E00020EC
:10AE50007047D168401EC90701D001207047002803
:10AE6000F7D17047F7B5002514460646002A1FD0D3
:10AE70009F4F0198A90040589E498E421DD8052336
:10AE80001B07D968C90718D0B10889001F60A5221F
:10AE90005A6033229A6008609448D968401EC907F6
:10AEA00009D0641E6D1C361D00F068FD002CE0D139
:10AEB000012003B0F0BD0028EFD1002003B0F0BDA9
:10AEC00005221207D268D20705D0800880000068EA
:10AED00008600120704700200860704710B493009C
:10AEE00003241B18E403A34210D8002A0BD0052426
:10AEF0002407E368DB0709D083089B001B68001D5B
:10AF000008C1521EF5D110BC0120704710BC0020B2
:10AF100070477549784A4A60302800D930208860E7
:10AF20007648416808221143416075490220086053
:10AF30007047052000070069C00700D00120704756
:10AF40000020C043052109070A69401ED20701D02D
:10AF5000012070470028F7D1704720281BD2052216
:10AF600012071369DB0716D080019300C018654BE8
:10AF700013603C235360552393600023002800D0C6
:10AF80000360002905D00020C0431169401EC90795
:10AF900003D001207047002070470028F5D170478A
:10AFA000F8B50C00054622D0564F05263607202D51
:10AFB00021D23069C0071ED00120A90180070818DE
:10AFC00037603C2171605521B160002801D000211B
:10AFD00001600020C0433169401EC90709D0641ECA
:10AFE0006D1CE4B2EDB200F0C9FC002CDFD10120F1
:10AFF000F8BD0028EFD10020F8BD052109070A6936
:10B00000D20711D03F4B8A000B603C234B60AA2330
:10B010008B6000231360002804D0581E0A69401E6C
:10B02000D20703D001207047002070470028F5D1D7
:10B030007047354A904215D2052212071369DB0783
:10B0400010D080082F4B800013603C2353603323C3
:10B05000936001600020C0431169401EC90703D0FE
:10B0600001207047002070470028F5D17047F7B5E0
:10B07000002514460646002A20D0224F0198A90038
:10B08000405821498E421ED205231B071969C90762
:10B0900019D0B10889001F603C225A6033229A609F
:10B0A00008600020C0431969401EC90709D0641E0A
:10B0B0006D1C361D00F062FC002CDFD1012003B0B6
:10B0C000F0BD0028EFD1002003B0F0BD052212072B
:10B0D0001269D20705D0800880000068086001204E
:10B0E0007047002008607047000200503075000073
:10B0F00055AA0000FF7F010054DC23AB0001015082
:10B1000000E100E078CD0000FF07004010B493009C
:10B11000154C1B18A34213D8E404A04210D3002AF4
:10B120000BD0052424072369DB0709D083089B0083
:10B130001B68001D08C1521EF5D110BC01207047CC
:10B1400010BC002070470A49084A4A60242800D9E8
:10B150002420C86007484168102211434160064915
:10B1600002200860704700000008004054DC23AB58
:10B17000000200500001015000E100E0002907D06A
:10B1800001290BD0022902D1416811434160704767
:10B190004168914341608168914304E04168914373
:10B1A0004160816811438160704702680A43026010
:10B1B000704702688A4302607047012A026802D021
:10B1C0008A43026070470A43FBE7016070470068EA
:10B1D000084000D0012070470068C0B27047026884
:10B1E0000A42026801D08A4300E00A4302607047C5
:10B1F0005A4B984207D05A4B984204D0594B984228
:10B2000001D0002070470123002906D001290AD06F
:10B2100002290ED003291AD112E0016919430161F4
:10B220008169114312E00169194301618169914308
:10B230000CE001694908490001618169114305E099
:10B24000016949084900016181699143816141694E
:10B25000114341610120704702214B05012A026917
:10B2600008D08A43026140480360BFF34F8FBFF3A9
:10B270006F8F70470A4302613C4803607047016961
:10B2800009070FD5354A3A49904201D148690AE089
:10B29000334A904201D1886905E0324A904201D197
:10B2A000C86900E00020C0B270470269120716D5D5
:10B2B0002A4B2F4A984203D1506908400DD170475C
:10B2C000274B984203D19069084006D17047254B1F
:10B2D000984204D1D0690840F8D00120704700207E
:10B2E000704730B41D4B224A0424984207D150695C
:10B2F0000843506118692043186130BC7047184DED
:10B30000A84207D1906908439061D86A2043D86267
:10B3100030BC7047134B9842FAD1D0690843D061D2
:10B32000144881692143816130BC70471048016A2B
:10B33000042211430162704710B40D4A136A0424B9
:10B3400023431362102318431062012903D1106AAA
:10B3500002210843106210BC7047000000000A5030
:10B360001C000A5048000A5080E100E000E100E0C3
:10B3700080000A5040000A50664A91601060410601
:10B38000654802D565490860704765490860BFF3A4
:10B390004F8FBFF36F8F70475E49886070475D487D
:10B3A000406880B270475B48016880229143016029
:10B3B0007047584A1161D06041062020002902DA06
:10B3C00056490860704756490860BFF34F8FBFF376
:10B3D0006F8F70474F49086170474E48006980B2CF
:10B3E00070474C48C16880229143C1607047494A08
:10B3F0009161506141064020002902DA4749086006
:10B40000704747490860BFF34F8FBFF36F8F704796
:10B410004049886170473F48806980B270473D4825
:10B42000416980229143416170473A4A1162D0617B
:10B4300041068020002902DA3849086070473849FF
:10B440000860BFF34F8FBFF36F8F704731490862B9
:10B4500070473048006A80B270472E48C169802228
:10B460009143C16170472B4A9162506241062D4859
:10B4700002D52A490860704729490860BFF34F8FF9
:10B48000BFF36F8F70472349886270472148806AF5
:10B4900080B270471F48416A8022914341627047E1
:10B4A0001C4A1163D06241061F4802D51B4908603F
:10B4B00070471B490860BFF34F8FBFF36F8F704712
:10B4C0001449086370471348006B80B270471148F5
:10B4D000C16A80229143C16270470E4A91635063F2
:10B4E0004106124802D50D49086070470C490860B2
:10B4F000BFF34F8FBFF36F8F704706498863704764
:10B500000448806B80B270470248416B80229143AF
:10B5100041637047000006500008000000E100E0B1
:10B5200080E100E0000100000002000000040000D3
:10B5300070B504464006800F0D46012809D12E48FB
:10B540004068000705D400F064F8002801D16020AD
:10B5500084432A48046085602948E10602D52949C8
:10B56000086070BD28490860BFF34F8FBFF36F8F2D
:10B5700070BD2249886070472048406880B270479B
:10B580001E480168012252021143016070471B48A6
:10B590000168012252029143016070471748016817
:10B5A0001022114301601749500508607047134885
:10B5B0000168102291430160134950050860BFF3F0
:10B5C0004F8FBFF36F8F70470C480068000601D59E
:10B5D000012070470020704708480168802211430D
:10B5E0000160704705490A6860239A430A600A6847
:10B5F00002430A607047000000000150000007503D
:10B600000000000200E100E080E100E0AC490860D9
:10B610007047F0B4AA4CAB486168012631436160C1
:10B62000A9494A6832434A60A84B02221A600025A1
:10B630004D614B6993434B614B6933434B61A44B61
:10B640001D706768401E3F0715D5CD60C868304340
:10B65000C860C8681043C8604868104348604869BB
:10B660001043486148693043486148683043486046
:10B67000F0BC012070471F78002F01D10028E0D1D5
:10B680006068400840006060F0BC00207047F0B582
:10B690000C46154606468F498F4A904F88488E4281
:10B6A00014D18F498C4211D08660C4608D48844289
:10B6B00001D1900003E08C48844202D18B4838606D
:10B6C000F0BD8B488442FBD13A60F0BD012D04D01F
:10B6D000022D04D0032D05D005E0844900E0854902
:10B6E000396000E03A607648406800070DD4FFF703
:10B6F00090FF002809D1774E012D0AD0022D0AD0E3
:10B70000032D0BD0774C7C4838606D488660C46050
:10B71000F0BD754CF9E7744C7448F5E7744CF4E7E8
:10B72000674902220128486802D090434860704768
:10B730001043FBE762490128486903D040084000F4
:10B740004861704701221043FAE703280FD85C498B
:10B75000CA6937231A40CA61CA6992089200CA614D
:10B76000CA6904231A43CA61CA690243CA6170479D
:10B770005349CA6937231A40CA613022202805D0AC
:10B78000102803D0C8699043C8617047CB699343C0
:10B79000CB61CA690243CA61704749490861704771
:10B7A000494A50600220012906D054490860BFF37D
:10B7B0004F8FBFF36F8F704744490860704742480E
:10B7C000806880B270474049886070473C48416952
:10B7D0000422114341617047394841690422914371
:10B7E0004161704710B4364B0424012804D05869D5
:10B7F0002043586110BC70470329FBD85869A04307
:10B800005861586A800880005862586A0843586234
:10B810002D4910230120012A09D0002088613748D2
:10B820000360BFF34F8FBFF36F8F10BC7047886109
:10B830002648036010BC70472348C069C0B27047F7
:10B840002149C86170471E48416902221143416184
:10B8500070471B48416A042291434162704718486F
:10B86000416A04221143416270471548416902222E
:10B870009143416170470223114A0128506902D067
:10B88000184350617047984350610423506A01295E
:10B8900002D09843506270471843FBE708490122E1
:10B8A0008A62012802D00020C8627047CA627047CD
:10B8B0000548006880B2704703490860704700007F
:10B8C00000000150E09304000001015000E100E09D
:10B8D00060040020B3AC000000127A006404002071
:10B8E0006B7C0000BD9A0000A23C00000024F40024
:10B8F0008CE70000001BB7000048E80180E100E091
:10B9000010B401604260184C184A194BA0420CD187
:10B910001848890602D5106010BC70471860BFF344
:10B920004F8FBFF36F8F10BC704713488906F5D552
:10B93000F1E701680122114301607047016849087D
:10B9400049000160704741607047806880B270476D
:10B95000016840221143016070470068400601D52C
:10B96000012070470020704700000B5000E100E00C
:10B9700080E100E000000040000000800F490E4818
:10B98000486070470D490A68920603D50C4A4A6020
:10B99000086000E008600B490120486370470749D0
:10B9A000086008490120486370470449886070476F
:10B9B0000249C86070470000AA5500000000085006
:10B9C000C36B000000000150F0B58DB00020FEF701
:10B9D000D2FFA748426801680A920C91C368846844
:10B9E0004269016909949E46436A876A9C46066AD1
:10B9F000C5698469C36A006B00916146079308902A
:10BA00000697059101A874C07346099A0A990C9883
:10BA1000FEF763FD0DB0F0BDF0B5954C85B0204646
:10BA200034300FC884464434F1CC04976F4671C754
:10BA30006046FEF75CFC05B0F0BD704710B5FF2016
:10BA40008130FFF7ACFF7D20C001FFF7AEFF002083
:10BA5000FFF7AEFF10BD10B57D2252017B21854856
:10BA6000FFF74EFFFF2291327B218348FFF748FF0B
:10BA700010BD10B5232081490001FFF759FD10BD0D
:10BA800010B5012202217E48FFF778FB7D4C02228F
:10BA900011462046FFF772FB012202212046FFF7E4
:10BAA0006DFB794C802202212046FFF767FB0422C0
:10BAB00002212046FFF762FB022211462046FFF7D3
:10BAC0005DFB012202212046FFF758FB6F4C8022CC
:10BAD00002212046FFF752FB402202212046FFF7B9
:10BAE0004DFB202202212046FFF748FB10220221B5
:10BAF0002046FFF743FB082202212046FFF73EFBCA
:10BB0000042202212046FFF739FB0222114620467B
:10BB1000FFF734FB012211462046FFF72FFB0122DD
:10BB200002212046FFF764FB012211462046FFF761
:10BB300093FB574C202201212046FFF71FFB1022C8
:10BB400000212046FFF71AFB082201212046FFF7BB
:10BB500015FB042202212046FFF710FB01220221DF
:10BB60002046FFF70BFB4B4C802202212046FFF7BB
:10BB700005FB402202212046FFF700FB1022022194
:10BB80002046FFF7FBFA082200212046FFF7F6FACD
:10BB9000042202212046FFF7F1FA01220221204669
:10BBA000FFF7ECFA3C4C202202212046FFF7E6FA90
:10BBB000102202212046FFF7E1FA08220221204646
:10BBC000FFF7DCFA10BDF0B5FF208DB08130FFF734
:10BBD000E6FE7D20C001FFF7E8FE0020FFF7E8FE4B
:10BBE0000020FEF7C8FE2248416800680C902048FB
:10BBF0000A91C4688368426901690993436AA64649
:10BC00009C46876A066AC5698469C36A006B0091AD
:10BC10006146079308900697059101A874C0734682
:10BC2000099A0A990C98FEF758FC114C20463430BA
:10BC30000FC884464434F1CC04976F4671C7604600
:10BC4000FEF755FB7D2252017B210A48FFF758FE83
:10BC5000FF2291327B210848FFF752FE232007493B
:10BC60000001FFF765FCFFF70BFF0DB0F0BD000012
:10BC70002CC1000000000B5000400B50A8610000D8
:10BC800000000A501C000A5038000A5048000A50B0
:10BC900064000A5074000A5084000A500748804724
:10BCA00007480047FEE7FEE7FEE7FEE7FEE7FEE7A0
:10BCB00004480549054A064B7047000005BD0000D1
:10BCC000C1800000E0060020E00E0020E00A002015
:10BCD000E00A002010B41648C368164C164A1749EB
:10BCE000A34202D10A6010BC7047C068144BC01850
:10BCF00004D0144BC018F5D1134800E01348086075
:10BD000010BC704710B51248FFF747FD03221149D8
:10BD10001148FFF7BCFC01210846FFF7ACFD0122EA
:10BD200000211046FFF75EFD0120FFF7B7FD10BDB3
:10BD3000000001506B7C000000127A0064040020B7
:10BD40005EC3FFFFE5A1FFFF0048E8010024F40007
:10BD500000800000BD9A00009C8D000030B50546B3
:10BD60000B462A461C781078521C5B1C002801D018
:10BD7000A042F7D0002C03D0002802D06D1CEFE7C2
:10BD8000284630BD002203098B4273D3030A8B423D
:10BD900058D3030B8B423CD3030C8B4221D312E0CC
:10BDA00003460B437FD4002243088B4274D303091C
:10BDB0008B425FD3030A8B4244D3030B8B4228D3BD
:10BDC000030C8B420DD3FF22090212BA030C8B42E3
:10BDD00002D31212090265D0030B8B4219D300E083
:10BDE000090AC30B8B4201D3CB03C01A5241830B08
:10BDF0008B4201D38B03C01A5241430B8B4201D3B8
:10BE00004B03C01A5241030B8B4201D30B03C01AE0
:10BE10005241C30A8B4201D3CB02C01A5241830A5A
:10BE20008B4201D38B02C01A5241430A8B4201D389
:10BE30004B02C01A5241030A8B4201D30B02C01AB3
:10BE40005241CDD2C3098B4201D3CB01C01A52411A
:10BE500083098B4201D38B01C01A524143098B42A3
:10BE600001D34B01C01A524103098B4201D30B018C
:10BE7000C01A5241C3088B4201D3CB00C01A5241B1
:10BE800083088B4201D38B00C01A524143088B4276
:10BE900001D34B00C01A5241411A00D2014652410F
:10BEA000104670475DE0CA0F00D04942031000D32E
:10BEB0004042534000229C4603098B422DD3030A83
:10BEC0008B4212D3FC22890112BA030A8B420CD393
:10BED000890192118B4208D3890192118B4204D3BC
:10BEE00089013AD0921100E08909C3098B4201D33C
:10BEF000CB01C01A524183098B4201D38B01C01A76
:10BF0000524143098B4201D34B01C01A52410309EC
:10BF10008B4201D30B01C01A5241C3088B4201D39B
:10BF2000CB00C01A524183088B4201D38B00C01A48
:10BF30005241D9D243088B4201D34B00C01A52411F
:10BF4000411A00D20146634652415B10104601D3AC
:10BF50004042002B00D54942704763465B1000D336
:10BF6000404201B50020C046C04602BD7047704740
:10BF70007047754600F024F8AE4605006946534602
:10BF8000C008C000854618B020B5FFF791FE60BC20
:10BF900000274908B6460026C0C5C0C5C0C5C0C5F3
:10BFA000C0C5C0C5C0C5C0C5403D49008D4670472D
:10BFB00010B50446C046C0462046FCF7BEF810BD8A
:10BFC000004870478006002001491820ABBEFEE7FC
:10BFD00026000200704770B58C180578401C6B076E
:10BFE0005B0F01D10378401C2A1106D10278401C56
:10BFF00003E00678401C0E70491C5B1EF9D12B072C
:10C0000005D40023521E0DD40B70491CFAE70378A7
:10C01000401CCB1A921C03E01D780D70491C5B1C60
:10C02000521EF9D5A142D8D3002070BD00010102F3
:10C0300001020203010202030203030401020203DC
:10C0400002030304020303040304040501020203C0
:10C0500002030304020303040304040502030304AC
:10C060000304040503040405040505060102020394
:10C07000020303040203030403040405020303048C
:10C080000304040503040405040505060203030470
:10C09000030404050304040504050506030404055C
:10C0A0000405050604050506050606070102020348
:10C0B000020303040203030403040405020303044C
:10C0C0000304040503040405040505060203030430
:10C0D000030404050304040504050506030404051C
:10C0E0000405050604050506050606070203030404
:10C0F00003040405030404050405050603040405FC
:10C1000004050506040505060506060703040405DF
:10C1100004050506040505060506060704050506CB
:10C1200005060607050606070607070800C00202FF
:10C130008064010F01000000FFFF0000FFFF00000E
:10C14000FFFF0000FFFF0000FFFF0000FFFF0000F7
:10C15000FF000000FFFF0000FFFF0000FF000000E5
:10C160001000320000010000FEFC78000000000317
:10C17000640000026400AC0D00000000000000003C
:10C180000000000046656200446563004175670079
:10C190004A756C004A616E004A756E005365700006
:10C1A0004D617200417072004F6374004E6F7600F3
:10C1B0004D617900999E00009B9E0000599E0000F1
:10C1C000B7970000659B0000219D0000A59E000020
:10C1D0006B830000378F000019910000179A000050
:10C1E0002D9A00007D870000538F000065930000AA
:10C1F000A99E0000AB9E000018C2000000000020B5
:10C2000068040000D6BF000000C3000068040020DE
:10C21000780A00000481000001542394C11A8404A8
:10C220001AA0041AA4041AB0041A98041A90041A42
:10C230008C041A9C041AA8041AAC041A880401304D
:10C24000544130311284130A5093280A638813230F
:10C25000F40112B41CA4011008511B0332345239EA
:10C260000A1D4834AB8014348A32680B13D007346B
:10C2700012966C7C01204F29345331300A1D38341A
:10C28000AB0105688A339C091934AB04026852314A
:10C290000A1E1C68AA0D680A2334685A08104968E7
:10C2A0000A2332D0AB0206680A233568AB100B684C
:10C2B0007233091DD0AA0E680A233668AB200368C2
:10C2C0000A2334D0AB04156852370A1D74349B809E
:10C2D00004345334320A1D1C346A021B39680A23A1
:10C2E00038D08B400C3411031B0114024DFF133C5A
:10C2F00004021C2032100B11700624040048E801CF
:04000005000080C1B6
:00000001FF
